{
  "_format": "hh-sol-artifact-1",
  "contractName": "Nft",
  "sourceName": "contracts/Nft.sol",
  "abi": [
    {
      "inputs": [
        {
          "internalType": "string",
          "name": "uri",
          "type": "string"
        }
      ],
      "stateMutability": "nonpayable",
      "type": "constructor"
    },
    {
      "anonymous": false,
      "inputs": [
        {
          "indexed": true,
          "internalType": "address",
          "name": "owner",
          "type": "address"
        },
        {
          "indexed": true,
          "internalType": "address",
          "name": "approved",
          "type": "address"
        },
        {
          "indexed": true,
          "internalType": "uint256",
          "name": "tokenId",
          "type": "uint256"
        }
      ],
      "name": "Approval",
      "type": "event"
    },
    {
      "anonymous": false,
      "inputs": [
        {
          "indexed": true,
          "internalType": "address",
          "name": "owner",
          "type": "address"
        },
        {
          "indexed": true,
          "internalType": "address",
          "name": "operator",
          "type": "address"
        },
        {
          "indexed": false,
          "internalType": "bool",
          "name": "approved",
          "type": "bool"
        }
      ],
      "name": "ApprovalForAll",
      "type": "event"
    },
    {
      "anonymous": false,
      "inputs": [
        {
          "indexed": true,
          "internalType": "uint256",
          "name": "tokenId",
          "type": "uint256"
        }
      ],
      "name": "NftMinted",
      "type": "event"
    },
    {
      "anonymous": false,
      "inputs": [
        {
          "indexed": true,
          "internalType": "address",
          "name": "from",
          "type": "address"
        },
        {
          "indexed": true,
          "internalType": "address",
          "name": "to",
          "type": "address"
        },
        {
          "indexed": true,
          "internalType": "uint256",
          "name": "tokenId",
          "type": "uint256"
        }
      ],
      "name": "Transfer",
      "type": "event"
    },
    {
      "inputs": [
        {
          "internalType": "address",
          "name": "to",
          "type": "address"
        },
        {
          "internalType": "uint256",
          "name": "tokenId",
          "type": "uint256"
        }
      ],
      "name": "approve",
      "outputs": [],
      "stateMutability": "nonpayable",
      "type": "function"
    },
    {
      "inputs": [
        {
          "internalType": "address",
          "name": "owner",
          "type": "address"
        }
      ],
      "name": "balanceOf",
      "outputs": [
        {
          "internalType": "uint256",
          "name": "",
          "type": "uint256"
        }
      ],
      "stateMutability": "view",
      "type": "function"
    },
    {
      "inputs": [
        {
          "internalType": "uint256",
          "name": "tokenId",
          "type": "uint256"
        }
      ],
      "name": "getApproved",
      "outputs": [
        {
          "internalType": "address",
          "name": "",
          "type": "address"
        }
      ],
      "stateMutability": "view",
      "type": "function"
    },
    {
      "inputs": [],
      "name": "getTokenCounter",
      "outputs": [
        {
          "internalType": "uint256",
          "name": "",
          "type": "uint256"
        }
      ],
      "stateMutability": "view",
      "type": "function"
    },
    {
      "inputs": [
        {
          "internalType": "address",
          "name": "owner",
          "type": "address"
        },
        {
          "internalType": "address",
          "name": "operator",
          "type": "address"
        }
      ],
      "name": "isApprovedForAll",
      "outputs": [
        {
          "internalType": "bool",
          "name": "",
          "type": "bool"
        }
      ],
      "stateMutability": "view",
      "type": "function"
    },
    {
      "inputs": [],
      "name": "mintNft",
      "outputs": [],
      "stateMutability": "nonpayable",
      "type": "function"
    },
    {
      "inputs": [],
      "name": "name",
      "outputs": [
        {
          "internalType": "string",
          "name": "",
          "type": "string"
        }
      ],
      "stateMutability": "view",
      "type": "function"
    },
    {
      "inputs": [
        {
          "internalType": "uint256",
          "name": "tokenId",
          "type": "uint256"
        }
      ],
      "name": "ownerOf",
      "outputs": [
        {
          "internalType": "address",
          "name": "",
          "type": "address"
        }
      ],
      "stateMutability": "view",
      "type": "function"
    },
    {
      "inputs": [
        {
          "internalType": "address",
          "name": "from",
          "type": "address"
        },
        {
          "internalType": "address",
          "name": "to",
          "type": "address"
        },
        {
          "internalType": "uint256",
          "name": "tokenId",
          "type": "uint256"
        }
      ],
      "name": "safeTransferFrom",
      "outputs": [],
      "stateMutability": "nonpayable",
      "type": "function"
    },
    {
      "inputs": [
        {
          "internalType": "address",
          "name": "from",
          "type": "address"
        },
        {
          "internalType": "address",
          "name": "to",
          "type": "address"
        },
        {
          "internalType": "uint256",
          "name": "tokenId",
          "type": "uint256"
        },
        {
          "internalType": "bytes",
          "name": "data",
          "type": "bytes"
        }
      ],
      "name": "safeTransferFrom",
      "outputs": [],
      "stateMutability": "nonpayable",
      "type": "function"
    },
    {
      "inputs": [
        {
          "internalType": "address",
          "name": "operator",
          "type": "address"
        },
        {
          "internalType": "bool",
          "name": "approved",
          "type": "bool"
        }
      ],
      "name": "setApprovalForAll",
      "outputs": [],
      "stateMutability": "nonpayable",
      "type": "function"
    },
    {
      "inputs": [
        {
          "internalType": "bytes4",
          "name": "interfaceId",
          "type": "bytes4"
        }
      ],
      "name": "supportsInterface",
      "outputs": [
        {
          "internalType": "bool",
          "name": "",
          "type": "bool"
        }
      ],
      "stateMutability": "view",
      "type": "function"
    },
    {
      "inputs": [],
      "name": "symbol",
      "outputs": [
        {
          "internalType": "string",
          "name": "",
          "type": "string"
        }
      ],
      "stateMutability": "view",
      "type": "function"
    },
    {
      "inputs": [
        {
          "internalType": "uint256",
          "name": "tokenId",
          "type": "uint256"
        }
      ],
      "name": "tokenURI",
      "outputs": [
        {
          "internalType": "string",
          "name": "",
          "type": "string"
        }
      ],
      "stateMutability": "view",
      "type": "function"
    },
    {
      "inputs": [],
      "name": "tokenUri",
      "outputs": [
        {
          "internalType": "string",
          "name": "",
          "type": "string"
        }
      ],
      "stateMutability": "view",
      "type": "function"
    },
    {
      "inputs": [
        {
          "internalType": "address",
          "name": "from",
          "type": "address"
        },
        {
          "internalType": "address",
          "name": "to",
          "type": "address"
        },
        {
          "internalType": "uint256",
          "name": "tokenId",
          "type": "uint256"
        }
      ],
      "name": "transferFrom",
      "outputs": [],
      "stateMutability": "nonpayable",
      "type": "function"
    }
  ],
  "bytecode": "0x60806040523480156200001157600080fd5b5060405162002a3938038062002a3983398181016040528101906200003791906200022d565b6040518060400160405280600381526020017f4e667400000000000000000000000000000000000000000000000000000000008152506040518060400160405280600381526020017f4e465400000000000000000000000000000000000000000000000000000000008152508160009080519060200190620000bb929190620000ff565b508060019080519060200190620000d4929190620000ff565b5050508060069080519060200190620000ef929190620000ff565b5060006007819055505062000402565b8280546200010d9062000313565b90600052602060002090601f0160209004810192826200013157600085556200017d565b82601f106200014c57805160ff19168380011785556200017d565b828001600101855582156200017d579182015b828111156200017c5782518255916020019190600101906200015f565b5b5090506200018c919062000190565b5090565b5b80821115620001ab57600081600090555060010162000191565b5090565b6000620001c6620001c084620002a7565b6200027e565b905082815260208101848484011115620001e557620001e4620003e2565b5b620001f2848285620002dd565b509392505050565b600082601f830112620002125762000211620003dd565b5b815162000224848260208601620001af565b91505092915050565b600060208284031215620002465762000245620003ec565b5b600082015167ffffffffffffffff811115620002675762000266620003e7565b5b6200027584828501620001fa565b91505092915050565b60006200028a6200029d565b905062000298828262000349565b919050565b6000604051905090565b600067ffffffffffffffff821115620002c557620002c4620003ae565b5b620002d082620003f1565b9050602081019050919050565b60005b83811015620002fd578082015181840152602081019050620002e0565b838111156200030d576000848401525b50505050565b600060028204905060018216806200032c57607f821691505b602082108114156200034357620003426200037f565b5b50919050565b6200035482620003f1565b810181811067ffffffffffffffff82111715620003765762000375620003ae565b5b80604052505050565b7f4e487b7100000000000000000000000000000000000000000000000000000000600052602260045260246000fd5b7f4e487b7100000000000000000000000000000000000000000000000000000000600052604160045260246000fd5b600080fd5b600080fd5b600080fd5b600080fd5b6000601f19601f8301169050919050565b61262780620004126000396000f3fe608060405234801561001057600080fd5b50600436106101005760003560e01c80636e02007d11610097578063b88d4fde11610066578063b88d4fde146102ad578063c2229fea146102c9578063c87b56dd146102d3578063e985e9c51461030357610100565b80636e02007d1461022557806370a082311461024357806395d89b4114610273578063a22cb4651461029157610100565b806323b872dd116100d357806323b872dd1461019f578063355e0c5d146101bb57806342842e0e146101d95780636352211e146101f557610100565b806301ffc9a71461010557806306fdde0314610135578063081812fc14610153578063095ea7b314610183575b600080fd5b61011f600480360381019061011a9190611a8d565b610333565b60405161012c9190611dbe565b60405180910390f35b61013d610415565b60405161014a9190611dd9565b60405180910390f35b61016d60048036038101906101689190611ae7565b6104a7565b60405161017a9190611d57565b60405180910390f35b61019d60048036038101906101989190611a4d565b6104ed565b005b6101b960048036038101906101b49190611937565b610605565b005b6101c3610665565b6040516101d09190611dd9565b60405180910390f35b6101f360048036038101906101ee9190611937565b6106f3565b005b61020f600480360381019061020a9190611ae7565b610713565b60405161021c9190611d57565b60405180910390f35b61022d61079a565b60405161023a9190611f7b565b60405180910390f35b61025d600480360381019061025891906118ca565b6107a4565b60405161026a9190611f7b565b60405180910390f35b61027b61085c565b6040516102889190611dd9565b60405180910390f35b6102ab60048036038101906102a69190611a0d565b6108ee565b005b6102c760048036038101906102c2919061198a565b610904565b005b6102d1610966565b005b6102ed60048036038101906102e89190611ae7565b6109b8565b6040516102fa9190611dd9565b60405180910390f35b61031d600480360381019061031891906118f7565b610a94565b60405161032a9190611dbe565b60405180910390f35b60007f80ac58cd000000000000000000000000000000000000000000000000000000007bffffffffffffffffffffffffffffffffffffffffffffffffffffffff1916827bffffffffffffffffffffffffffffffffffffffffffffffffffffffff191614806103fe57507f5b5e139f000000000000000000000000000000000000000000000000000000007bffffffffffffffffffffffffffffffffffffffffffffffffffffffff1916827bffffffffffffffffffffffffffffffffffffffffffffffffffffffff1916145b8061040e575061040d82610b28565b5b9050919050565b60606000805461042490612164565b80601f016020809104026020016040519081016040528092919081815260200182805461045090612164565b801561049d5780601f106104725761010080835404028352916020019161049d565b820191906000526020600020905b81548152906001019060200180831161048057829003601f168201915b5050505050905090565b60006104b282610b92565b6004600083815260200190815260200160002060009054906101000a900473ffffffffffffffffffffffffffffffffffffffff169050919050565b60006104f882610713565b90508073ffffffffffffffffffffffffffffffffffffffff168373ffffffffffffffffffffffffffffffffffffffff161415610569576040517f08c379a000000000000000000000000000000000000000000000000000000000815260040161056090611f3b565b60405180910390fd5b8073ffffffffffffffffffffffffffffffffffffffff16610588610bdd565b73ffffffffffffffffffffffffffffffffffffffff1614806105b757506105b6816105b1610bdd565b610a94565b5b6105f6576040517f08c379a00000000000000000000000000000000000000000000000000000000081526004016105ed90611f5b565b60405180910390fd5b6106008383610be5565b505050565b610616610610610bdd565b82610c9e565b610655576040517f08c379a000000000000000000000000000000000000000000000000000000000815260040161064c90611dfb565b60405180910390fd5b610660838383610d33565b505050565b6006805461067290612164565b80601f016020809104026020016040519081016040528092919081815260200182805461069e90612164565b80156106eb5780601f106106c0576101008083540402835291602001916106eb565b820191906000526020600020905b8154815290600101906020018083116106ce57829003601f168201915b505050505081565b61070e83838360405180602001604052806000815250610904565b505050565b60008061071f8361102d565b9050600073ffffffffffffffffffffffffffffffffffffffff168173ffffffffffffffffffffffffffffffffffffffff161415610791576040517f08c379a000000000000000000000000000000000000000000000000000000000815260040161078890611f1b565b60405180910390fd5b80915050919050565b6000600754905090565b60008073ffffffffffffffffffffffffffffffffffffffff168273ffffffffffffffffffffffffffffffffffffffff161415610815576040517f08c379a000000000000000000000000000000000000000000000000000000000815260040161080c90611ebb565b60405180910390fd5b600360008373ffffffffffffffffffffffffffffffffffffffff1673ffffffffffffffffffffffffffffffffffffffff168152602001908152602001600020549050919050565b60606001805461086b90612164565b80601f016020809104026020016040519081016040528092919081815260200182805461089790612164565b80156108e45780601f106108b9576101008083540402835291602001916108e4565b820191906000526020600020905b8154815290600101906020018083116108c757829003601f168201915b5050505050905090565b6109006108f9610bdd565b838361106a565b5050565b61091561090f610bdd565b83610c9e565b610954576040517f08c379a000000000000000000000000000000000000000000000000000000000815260040161094b90611dfb565b60405180910390fd5b610960848484846111d7565b50505050565b61097233600754611233565b6007547f7f8949b6eca2b14d0feb1af0844a112998e467a4f88b8683301f3a6e409f32ae60405160405180910390a260016007546109b09190612024565b600781905550565b60606109c382611251565b610a02576040517f08c379a00000000000000000000000000000000000000000000000000000000081526004016109f990611efb565b60405180910390fd5b60068054610a0f90612164565b80601f0160208091040260200160405190810160405280929190818152602001828054610a3b90612164565b8015610a885780601f10610a5d57610100808354040283529160200191610a88565b820191906000526020600020905b815481529060010190602001808311610a6b57829003601f168201915b50505050509050919050565b6000600560008473ffffffffffffffffffffffffffffffffffffffff1673ffffffffffffffffffffffffffffffffffffffff16815260200190815260200160002060008373ffffffffffffffffffffffffffffffffffffffff1673ffffffffffffffffffffffffffffffffffffffff16815260200190815260200160002060009054906101000a900460ff16905092915050565b60007f01ffc9a7000000000000000000000000000000000000000000000000000000007bffffffffffffffffffffffffffffffffffffffffffffffffffffffff1916827bffffffffffffffffffffffffffffffffffffffffffffffffffffffff1916149050919050565b610b9b81611251565b610bda576040517f08c379a0000000000000000000000000000000000000000000000000000000008152600401610bd190611f1b565b60405180910390fd5b50565b600033905090565b816004600083815260200190815260200160002060006101000a81548173ffffffffffffffffffffffffffffffffffffffff021916908373ffffffffffffffffffffffffffffffffffffffff160217905550808273ffffffffffffffffffffffffffffffffffffffff16610c5883610713565b73ffffffffffffffffffffffffffffffffffffffff167f8c5be1e5ebec7d5bd14f71427d1e84f3dd0314c0f7b2291e5b200ac8c7c3b92560405160405180910390a45050565b600080610caa83610713565b90508073ffffffffffffffffffffffffffffffffffffffff168473ffffffffffffffffffffffffffffffffffffffff161480610cec5750610ceb8185610a94565b5b80610d2a57508373ffffffffffffffffffffffffffffffffffffffff16610d12846104a7565b73ffffffffffffffffffffffffffffffffffffffff16145b91505092915050565b8273ffffffffffffffffffffffffffffffffffffffff16610d5382610713565b73ffffffffffffffffffffffffffffffffffffffff1614610da9576040517f08c379a0000000000000000000000000000000000000000000000000000000008152600401610da090611e3b565b60405180910390fd5b600073ffffffffffffffffffffffffffffffffffffffff168273ffffffffffffffffffffffffffffffffffffffff161415610e19576040517f08c379a0000000000000000000000000000000000000000000000000000000008152600401610e1090611e7b565b60405180910390fd5b610e268383836001611292565b8273ffffffffffffffffffffffffffffffffffffffff16610e4682610713565b73ffffffffffffffffffffffffffffffffffffffff1614610e9c576040517f08c379a0000000000000000000000000000000000000000000000000000000008152600401610e9390611e3b565b60405180910390fd5b6004600082815260200190815260200160002060006101000a81549073ffffffffffffffffffffffffffffffffffffffff02191690556001600360008573ffffffffffffffffffffffffffffffffffffffff1673ffffffffffffffffffffffffffffffffffffffff168152602001908152602001600020600082825403925050819055506001600360008473ffffffffffffffffffffffffffffffffffffffff1673ffffffffffffffffffffffffffffffffffffffff16815260200190815260200160002060008282540192505081905550816002600083815260200190815260200160002060006101000a81548173ffffffffffffffffffffffffffffffffffffffff021916908373ffffffffffffffffffffffffffffffffffffffff160217905550808273ffffffffffffffffffffffffffffffffffffffff168473ffffffffffffffffffffffffffffffffffffffff167fddf252ad1be2c89b69c2b068fc378daa952ba7f163c4a11628f55a4df523b3ef60405160405180910390a461102883838360016113b8565b505050565b60006002600083815260200190815260200160002060009054906101000a900473ffffffffffffffffffffffffffffffffffffffff169050919050565b8173ffffffffffffffffffffffffffffffffffffffff168373ffffffffffffffffffffffffffffffffffffffff1614156110d9576040517f08c379a00000000000000000000000000000000000000000000000000000000081526004016110d090611e9b565b60405180910390fd5b80600560008573ffffffffffffffffffffffffffffffffffffffff1673ffffffffffffffffffffffffffffffffffffffff16815260200190815260200160002060008473ffffffffffffffffffffffffffffffffffffffff1673ffffffffffffffffffffffffffffffffffffffff16815260200190815260200160002060006101000a81548160ff0219169083151502179055508173ffffffffffffffffffffffffffffffffffffffff168373ffffffffffffffffffffffffffffffffffffffff167f17307eab39ab6107e8899845ad3d59bd9653f200f220920489ca2b5937696c31836040516111ca9190611dbe565b60405180910390a3505050565b6111e2848484610d33565b6111ee848484846113be565b61122d576040517f08c379a000000000000000000000000000000000000000000000000000000000815260040161122490611e1b565b60405180910390fd5b50505050565b61124d828260405180602001604052806000815250611555565b5050565b60008073ffffffffffffffffffffffffffffffffffffffff166112738361102d565b73ffffffffffffffffffffffffffffffffffffffff1614159050919050565b60018111156113b257600073ffffffffffffffffffffffffffffffffffffffff168473ffffffffffffffffffffffffffffffffffffffff16146113265780600360008673ffffffffffffffffffffffffffffffffffffffff1673ffffffffffffffffffffffffffffffffffffffff168152602001908152602001600020600082825461131e919061207a565b925050819055505b600073ffffffffffffffffffffffffffffffffffffffff168373ffffffffffffffffffffffffffffffffffffffff16146113b15780600360008573ffffffffffffffffffffffffffffffffffffffff1673ffffffffffffffffffffffffffffffffffffffff16815260200190815260200160002060008282546113a99190612024565b925050819055505b5b50505050565b50505050565b60006113df8473ffffffffffffffffffffffffffffffffffffffff166115b0565b15611548578373ffffffffffffffffffffffffffffffffffffffff1663150b7a02611408610bdd565b8786866040518563ffffffff1660e01b815260040161142a9493929190611d72565b602060405180830381600087803b15801561144457600080fd5b505af192505050801561147557506040513d601f19601f820116820180604052508101906114729190611aba565b60015b6114f8573d80600081146114a5576040519150601f19603f3d011682016040523d82523d6000602084013e6114aa565b606091505b506000815114156114f0576040517f08c379a00000000000000000000000000000000000000000000000000000000081526004016114e790611e1b565b60405180910390fd5b805181602001fd5b63150b7a0260e01b7bffffffffffffffffffffffffffffffffffffffffffffffffffffffff1916817bffffffffffffffffffffffffffffffffffffffffffffffffffffffff19161491505061154d565b600190505b949350505050565b61155f83836115d3565b61156c60008484846113be565b6115ab576040517f08c379a00000000000000000000000000000000000000000000000000000000081526004016115a290611e1b565b60405180910390fd5b505050565b6000808273ffffffffffffffffffffffffffffffffffffffff163b119050919050565b600073ffffffffffffffffffffffffffffffffffffffff168273ffffffffffffffffffffffffffffffffffffffff161415611643576040517f08c379a000000000000000000000000000000000000000000000000000000000815260040161163a90611edb565b60405180910390fd5b61164c81611251565b1561168c576040517f08c379a000000000000000000000000000000000000000000000000000000000815260040161168390611e5b565b60405180910390fd5b61169a600083836001611292565b6116a381611251565b156116e3576040517f08c379a00000000000000000000000000000000000000000000000000000000081526004016116da90611e5b565b60405180910390fd5b6001600360008473ffffffffffffffffffffffffffffffffffffffff1673ffffffffffffffffffffffffffffffffffffffff16815260200190815260200160002060008282540192505081905550816002600083815260200190815260200160002060006101000a81548173ffffffffffffffffffffffffffffffffffffffff021916908373ffffffffffffffffffffffffffffffffffffffff160217905550808273ffffffffffffffffffffffffffffffffffffffff16600073ffffffffffffffffffffffffffffffffffffffff167fddf252ad1be2c89b69c2b068fc378daa952ba7f163c4a11628f55a4df523b3ef60405160405180910390a46117ed6000838360016113b8565b5050565b60006118046117ff84611fbb565b611f96565b9050828152602081018484840111156118205761181f612259565b5b61182b848285612122565b509392505050565b60008135905061184281612595565b92915050565b600081359050611857816125ac565b92915050565b60008135905061186c816125c3565b92915050565b600081519050611881816125c3565b92915050565b600082601f83011261189c5761189b612254565b5b81356118ac8482602086016117f1565b91505092915050565b6000813590506118c4816125da565b92915050565b6000602082840312156118e0576118df612263565b5b60006118ee84828501611833565b91505092915050565b6000806040838503121561190e5761190d612263565b5b600061191c85828601611833565b925050602061192d85828601611833565b9150509250929050565b6000806000606084860312156119505761194f612263565b5b600061195e86828701611833565b935050602061196f86828701611833565b9250506040611980868287016118b5565b9150509250925092565b600080600080608085870312156119a4576119a3612263565b5b60006119b287828801611833565b94505060206119c387828801611833565b93505060406119d4878288016118b5565b925050606085013567ffffffffffffffff8111156119f5576119f461225e565b5b611a0187828801611887565b91505092959194509250565b60008060408385031215611a2457611a23612263565b5b6000611a3285828601611833565b9250506020611a4385828601611848565b9150509250929050565b60008060408385031215611a6457611a63612263565b5b6000611a7285828601611833565b9250506020611a83858286016118b5565b9150509250929050565b600060208284031215611aa357611aa2612263565b5b6000611ab18482850161185d565b91505092915050565b600060208284031215611ad057611acf612263565b5b6000611ade84828501611872565b91505092915050565b600060208284031215611afd57611afc612263565b5b6000611b0b848285016118b5565b91505092915050565b611b1d816120ae565b82525050565b611b2c816120c0565b82525050565b6000611b3d82611fec565b611b478185612002565b9350611b57818560208601612131565b611b6081612268565b840191505092915050565b6000611b7682611ff7565b611b808185612013565b9350611b90818560208601612131565b611b9981612268565b840191505092915050565b6000611bb1602d83612013565b9150611bbc82612279565b604082019050919050565b6000611bd4603283612013565b9150611bdf826122c8565b604082019050919050565b6000611bf7602583612013565b9150611c0282612317565b604082019050919050565b6000611c1a601c83612013565b9150611c2582612366565b602082019050919050565b6000611c3d602483612013565b9150611c488261238f565b604082019050919050565b6000611c60601983612013565b9150611c6b826123de565b602082019050919050565b6000611c83602983612013565b9150611c8e82612407565b604082019050919050565b6000611ca6602083612013565b9150611cb182612456565b602082019050919050565b6000611cc9602f83612013565b9150611cd48261247f565b604082019050919050565b6000611cec601883612013565b9150611cf7826124ce565b602082019050919050565b6000611d0f602183612013565b9150611d1a826124f7565b604082019050919050565b6000611d32603d83612013565b9150611d3d82612546565b604082019050919050565b611d5181612118565b82525050565b6000602082019050611d6c6000830184611b14565b92915050565b6000608082019050611d876000830187611b14565b611d946020830186611b14565b611da16040830185611d48565b8181036060830152611db38184611b32565b905095945050505050565b6000602082019050611dd36000830184611b23565b92915050565b60006020820190508181036000830152611df38184611b6b565b905092915050565b60006020820190508181036000830152611e1481611ba4565b9050919050565b60006020820190508181036000830152611e3481611bc7565b9050919050565b60006020820190508181036000830152611e5481611bea565b9050919050565b60006020820190508181036000830152611e7481611c0d565b9050919050565b60006020820190508181036000830152611e9481611c30565b9050919050565b60006020820190508181036000830152611eb481611c53565b9050919050565b60006020820190508181036000830152611ed481611c76565b9050919050565b60006020820190508181036000830152611ef481611c99565b9050919050565b60006020820190508181036000830152611f1481611cbc565b9050919050565b60006020820190508181036000830152611f3481611cdf565b9050919050565b60006020820190508181036000830152611f5481611d02565b9050919050565b60006020820190508181036000830152611f7481611d25565b9050919050565b6000602082019050611f906000830184611d48565b92915050565b6000611fa0611fb1565b9050611fac8282612196565b919050565b6000604051905090565b600067ffffffffffffffff821115611fd657611fd5612225565b5b611fdf82612268565b9050602081019050919050565b600081519050919050565b600081519050919050565b600082825260208201905092915050565b600082825260208201905092915050565b600061202f82612118565b915061203a83612118565b9250827fffffffffffffffffffffffffffffffffffffffffffffffffffffffffffffffff0382111561206f5761206e6121c7565b5b828201905092915050565b600061208582612118565b915061209083612118565b9250828210156120a3576120a26121c7565b5b828203905092915050565b60006120b9826120f8565b9050919050565b60008115159050919050565b60007fffffffff0000000000000000000000000000000000000000000000000000000082169050919050565b600073ffffffffffffffffffffffffffffffffffffffff82169050919050565b6000819050919050565b82818337600083830152505050565b60005b8381101561214f578082015181840152602081019050612134565b8381111561215e576000848401525b50505050565b6000600282049050600182168061217c57607f821691505b602082108114156121905761218f6121f6565b5b50919050565b61219f82612268565b810181811067ffffffffffffffff821117156121be576121bd612225565b5b80604052505050565b7f4e487b7100000000000000000000000000000000000000000000000000000000600052601160045260246000fd5b7f4e487b7100000000000000000000000000000000000000000000000000000000600052602260045260246000fd5b7f4e487b7100000000000000000000000000000000000000000000000000000000600052604160045260246000fd5b600080fd5b600080fd5b600080fd5b600080fd5b6000601f19601f8301169050919050565b7f4552433732313a2063616c6c6572206973206e6f7420746f6b656e206f776e6560008201527f72206f7220617070726f76656400000000000000000000000000000000000000602082015250565b7f4552433732313a207472616e7366657220746f206e6f6e20455243373231526560008201527f63656976657220696d706c656d656e7465720000000000000000000000000000602082015250565b7f4552433732313a207472616e736665722066726f6d20696e636f72726563742060008201527f6f776e6572000000000000000000000000000000000000000000000000000000602082015250565b7f4552433732313a20746f6b656e20616c7265616479206d696e74656400000000600082015250565b7f4552433732313a207472616e7366657220746f20746865207a65726f2061646460008201527f7265737300000000000000000000000000000000000000000000000000000000602082015250565b7f4552433732313a20617070726f766520746f2063616c6c657200000000000000600082015250565b7f4552433732313a2061646472657373207a65726f206973206e6f74206120766160008201527f6c6964206f776e65720000000000000000000000000000000000000000000000602082015250565b7f4552433732313a206d696e7420746f20746865207a65726f2061646472657373600082015250565b7f4552433732314d657461646174613a2055524920717565727920666f72206e6f60008201527f6e6578697374656e7420746f6b656e0000000000000000000000000000000000602082015250565b7f4552433732313a20696e76616c696420746f6b656e2049440000000000000000600082015250565b7f4552433732313a20617070726f76616c20746f2063757272656e74206f776e6560008201527f7200000000000000000000000000000000000000000000000000000000000000602082015250565b7f4552433732313a20617070726f76652063616c6c6572206973206e6f7420746f60008201527f6b656e206f776e6572206f7220617070726f76656420666f7220616c6c000000602082015250565b61259e816120ae565b81146125a957600080fd5b50565b6125b5816120c0565b81146125c057600080fd5b50565b6125cc816120cc565b81146125d757600080fd5b50565b6125e381612118565b81146125ee57600080fd5b5056fea2646970667358221220c83d99eb44b0a00967e8340a53e74052939fa2702433ce3fefb8e644c4a71b3d64736f6c63430008070033",
  "linkReferences": {},
  "deployedLinkReferences": {}
}