{
  "_format": "hh-sol-artifact-1",
  "contractName": "CampaignFactory",
  "sourceName": "contracts/CampaignFactory.sol",
  "abi": [
    {
      "inputs": [],
      "stateMutability": "nonpayable",
      "type": "constructor"
    },
    {
      "anonymous": false,
      "inputs": [
        {
          "indexed": true,
          "internalType": "address",
          "name": "campaignAddress",
          "type": "address"
        },
        {
          "indexed": true,
          "internalType": "address",
          "name": "organizer",
          "type": "address"
        },
        {
          "indexed": true,
          "internalType": "address",
          "name": "receiver",
          "type": "address"
        }
      ],
      "name": "CampaignStart",
      "type": "event"
    },
    {
      "inputs": [
        {
          "internalType": "address",
          "name": "newAdmin",
          "type": "address"
        }
      ],
      "name": "addAdmin",
      "outputs": [],
      "stateMutability": "nonpayable",
      "type": "function"
    },
    {
      "inputs": [
        {
          "internalType": "string",
          "name": "campaignDescription",
          "type": "string"
        },
        {
          "internalType": "address",
          "name": "receiver",
          "type": "address"
        },
        {
          "internalType": "uint256",
          "name": "timeLast",
          "type": "uint256"
        },
        {
          "components": [
            {
              "internalType": "address",
              "name": "nftAddress",
              "type": "address"
            },
            {
              "internalType": "uint256",
              "name": "tokenId",
              "type": "uint256"
            },
            {
              "internalType": "uint256",
              "name": "price",
              "type": "uint256"
            }
          ],
          "internalType": "struct Campaign.NftInfo[]",
          "name": "nftInfos",
          "type": "tuple[]"
        }
      ],
      "name": "addCampaign",
      "outputs": [
        {
          "internalType": "contract Campaign",
          "name": "",
          "type": "address"
        }
      ],
      "stateMutability": "nonpayable",
      "type": "function"
    },
    {
      "inputs": [],
      "name": "getCampaigns",
      "outputs": [
        {
          "internalType": "address[]",
          "name": "",
          "type": "address[]"
        }
      ],
      "stateMutability": "view",
      "type": "function"
    }
  ],
  "bytecode": "0x608060405234801561001057600080fd5b5060018060003373ffffffffffffffffffffffffffffffffffffffff1673ffffffffffffffffffffffffffffffffffffffff16815260200190815260200160002060006101000a81548160ff021916908315150217905550612d9d806100776000396000f3fe60806040523480156200001157600080fd5b5060043610620000465760003560e01c806370480275146200004b578063a6b03633146200006b578063e45cd97d146200008d575b600080fd5b6200006960048036038101906200006391906200077e565b620000c3565b005b62000075620001ac565b60405162000084919062000b58565b60405180910390f35b620000ab6004803603810190620000a59190620007e2565b6200023c565b604051620000ba919062000b7c565b60405180910390f35b600160003373ffffffffffffffffffffffffffffffffffffffff1673ffffffffffffffffffffffffffffffffffffffff16815260200190815260200160002060009054906101000a900460ff1662000152576040517f08c379a0000000000000000000000000000000000000000000000000000000008152600401620001499062000bbb565b60405180910390fd5b60018060008373ffffffffffffffffffffffffffffffffffffffff1673ffffffffffffffffffffffffffffffffffffffff16815260200190815260200160002060006101000a81548160ff02191690831515021790555050565b606060008054806020026020016040519081016040528092919081815260200182805480156200023257602002820191906000526020600020905b8160009054906101000a900473ffffffffffffffffffffffffffffffffffffffff1673ffffffffffffffffffffffffffffffffffffffff1681526020019060010190808311620001e7575b5050505050905090565b6000600160003373ffffffffffffffffffffffffffffffffffffffff1673ffffffffffffffffffffffffffffffffffffffff16815260200190815260200160002060009054906101000a900460ff16620002cd576040517f08c379a0000000000000000000000000000000000000000000000000000000008152600401620002c49062000bbb565b60405180910390fd5b60005b82518110156200046a576000838281518110620002f257620002f162000eaa565b5b602002602001015190506000816000015190503073ffffffffffffffffffffffffffffffffffffffff168173ffffffffffffffffffffffffffffffffffffffff1663081812fc84602001516040518263ffffffff1660e01b81526004016200035b919062000bff565b60206040518083038186803b1580156200037457600080fd5b505afa15801562000389573d6000803e3d6000fd5b505050506040513d601f19601f82011682018060405250810190620003af9190620007b0565b73ffffffffffffffffffffffffffffffffffffffff161462000408576040517f08c379a0000000000000000000000000000000000000000000000000000000008152600401620003ff9062000b99565b60405180910390fd5b600082604001511162000452576040517f08c379a0000000000000000000000000000000000000000000000000000000008152600401620004499062000bdd565b60405180910390fd5b50508080620004619062000e2d565b915050620002d0565b5060003386868686604051620004809062000590565b6200049095949392919062000aed565b604051809103906000f080158015620004ad573d6000803e3d6000fd5b5090506000819080600181540180825580915050600190039060005260206000200160009091909190916101000a81548173ffffffffffffffffffffffffffffffffffffffff021916908373ffffffffffffffffffffffffffffffffffffffff1602179055508473ffffffffffffffffffffffffffffffffffffffff163373ffffffffffffffffffffffffffffffffffffffff168273ffffffffffffffffffffffffffffffffffffffff167f8a7ccf74a17f0d10ac9d6211819ced50820effca707b5a6c872e506dfe298ccb60405160405180910390a480915050949350505050565b611d5b806200100d83390190565b6000620005b5620005af8462000c45565b62000c1c565b90508083825260208201905082856060860282011115620005db57620005da62000f12565b5b60005b858110156200060f5781620005f48882620006f8565b845260208401935060608301925050600181019050620005de565b5050509392505050565b6000620006306200062a8462000c74565b62000c1c565b9050828152602081018484840111156200064f576200064e62000f17565b5b6200065c84828562000db2565b509392505050565b600081359050620006758162000fd8565b92915050565b6000815190506200068c8162000fd8565b92915050565b600082601f830112620006aa57620006a962000f08565b5b8135620006bc8482602086016200059e565b91505092915050565b600082601f830112620006dd57620006dc62000f08565b5b8135620006ef84826020860162000619565b91505092915050565b60006060828403121562000711576200071062000f0d565b5b6200071d606062000c1c565b905060006200072f8482850162000664565b6000830152506020620007458482850162000767565b60208301525060406200075b8482850162000767565b60408301525092915050565b600081359050620007788162000ff2565b92915050565b60006020828403121562000797576200079662000f21565b5b6000620007a78482850162000664565b91505092915050565b600060208284031215620007c957620007c862000f21565b5b6000620007d9848285016200067b565b91505092915050565b60008060008060808587031215620007ff57620007fe62000f21565b5b600085013567ffffffffffffffff81111562000820576200081f62000f1c565b5b6200082e87828801620006c5565b9450506020620008418782880162000664565b9350506040620008548782880162000767565b925050606085013567ffffffffffffffff81111562000878576200087762000f1c565b5b620008868782880162000692565b91505092959194509250565b6000620008a08383620008c6565b60208301905092915050565b6000620008ba838362000a83565b60608301905092915050565b620008d18162000d38565b82525050565b620008e28162000d38565b82525050565b6000620008f58262000cca565b62000901818562000d05565b93506200090e8362000caa565b8060005b838110156200094557815162000929888262000892565b9750620009368362000ceb565b92505060018101905062000912565b5085935050505092915050565b60006200095f8262000cd5565b6200096b818562000d16565b9350620009788362000cba565b8060005b83811015620009af578151620009938882620008ac565b9750620009a08362000cf8565b9250506001810190506200097c565b5085935050505092915050565b620009c78162000d76565b82525050565b6000620009da8262000ce0565b620009e6818562000d27565b9350620009f881856020860162000dc1565b62000a038162000f26565b840191505092915050565b600062000a1d600c8362000d27565b915062000a2a8262000f37565b602082019050919050565b600062000a4460218362000d27565b915062000a518262000f60565b604082019050919050565b600062000a6b601c8362000d27565b915062000a788262000faf565b602082019050919050565b60608201600082015162000a9b6000850182620008c6565b50602082015162000ab0602085018262000acb565b50604082015162000ac5604085018262000acb565b50505050565b62000ad68162000d6c565b82525050565b62000ae78162000d6c565b82525050565b600060a08201905062000b046000830188620008d7565b818103602083015262000b188187620009cd565b905062000b296040830186620008d7565b62000b38606083018562000adc565b818103608083015262000b4c818462000952565b90509695505050505050565b6000602082019050818103600083015262000b748184620008e8565b905092915050565b600060208201905062000b936000830184620009bc565b92915050565b6000602082019050818103600083015262000bb48162000a0e565b9050919050565b6000602082019050818103600083015262000bd68162000a35565b9050919050565b6000602082019050818103600083015262000bf88162000a5c565b9050919050565b600060208201905062000c16600083018462000adc565b92915050565b600062000c2862000c3b565b905062000c36828262000df7565b919050565b6000604051905090565b600067ffffffffffffffff82111562000c635762000c6262000ed9565b5b602082029050602081019050919050565b600067ffffffffffffffff82111562000c925762000c9162000ed9565b5b62000c9d8262000f26565b9050602081019050919050565b6000819050602082019050919050565b6000819050602082019050919050565b600081519050919050565b600081519050919050565b600081519050919050565b6000602082019050919050565b6000602082019050919050565b600082825260208201905092915050565b600082825260208201905092915050565b600082825260208201905092915050565b600062000d458262000d4c565b9050919050565b600073ffffffffffffffffffffffffffffffffffffffff82169050919050565b6000819050919050565b600062000d838262000d8a565b9050919050565b600062000d978262000d9e565b9050919050565b600062000dab8262000d4c565b9050919050565b82818337600083830152505050565b60005b8381101562000de157808201518184015260208101905062000dc4565b8381111562000df1576000848401525b50505050565b62000e028262000f26565b810181811067ffffffffffffffff8211171562000e245762000e2362000ed9565b5b80604052505050565b600062000e3a8262000d6c565b91507fffffffffffffffffffffffffffffffffffffffffffffffffffffffffffffffff82141562000e705762000e6f62000e7b565b5b600182019050919050565b7f4e487b7100000000000000000000000000000000000000000000000000000000600052601160045260246000fd5b7f4e487b7100000000000000000000000000000000000000000000000000000000600052603260045260246000fd5b7f4e487b7100000000000000000000000000000000000000000000000000000000600052604160045260246000fd5b600080fd5b600080fd5b600080fd5b600080fd5b600080fd5b600080fd5b6000601f19601f8301169050919050565b7f4e6f7420617070726f7665640000000000000000000000000000000000000000600082015250565b7f4f6e6c792061646d696e2063616e2063616c6c20746869732066756e6374696f60008201527f6e00000000000000000000000000000000000000000000000000000000000000602082015250565b7f5072696365206d7573742062652067726561746572207468616e203000000000600082015250565b62000fe38162000d38565b811462000fef57600080fd5b50565b62000ffd8162000d6c565b81146200100957600080fd5b5056fe6101006040523480156200001257600080fd5b5060405162001d5b38038062001d5b833981810160405281019062000038919062000636565b8473ffffffffffffffffffffffffffffffffffffffff1660808173ffffffffffffffffffffffffffffffffffffffff1660601b815250508273ffffffffffffffffffffffffffffffffffffffff1660a08173ffffffffffffffffffffffffffffffffffffffff1660601b815250508160c081815250508360009080519060200190620000c6929190620003bd565b504260e081815250506000600160006101000a81548160ff02191690836001811115620000f857620000f762000953565b5b021790555060005b815181101562000162576000828281518110620001225762000121620009b1565b5b602002602001015190506200014b8160000151826020015183604001516200016e60201b60201c565b5080806200015990620008d6565b91505062000100565b50505050505062000a72565b82826000600260008473ffffffffffffffffffffffffffffffffffffffff1673ffffffffffffffffffffffffffffffffffffffff1681526020019081526020016000206000838152602001908152602001600020604051806040016040529081600082015481526020016001820160009054906101000a900473ffffffffffffffffffffffffffffffffffffffff1673ffffffffffffffffffffffffffffffffffffffff1673ffffffffffffffffffffffffffffffffffffffff168152505090506000816000015111156200027e5782826040517f4a5568d5000000000000000000000000000000000000000000000000000000008152600401620002759291906200071e565b60405180910390fd5b60405180604001604052808581526020013373ffffffffffffffffffffffffffffffffffffffff16815250600260008873ffffffffffffffffffffffffffffffffffffffff1673ffffffffffffffffffffffffffffffffffffffff16815260200190815260200160002060008781526020019081526020016000206000820151816000015560208201518160010160006101000a81548173ffffffffffffffffffffffffffffffffffffffff021916908373ffffffffffffffffffffffffffffffffffffffff160217905550905050848673ffffffffffffffffffffffffffffffffffffffff163073ffffffffffffffffffffffffffffffffffffffff167fd547e933094f12a9159076970143ebe73234e64480317844b0dcb36117116de487604051620003ad91906200074b565b60405180910390a4505050505050565b828054620003cb906200086a565b90600052602060002090601f016020900481019282620003ef57600085556200043b565b82601f106200040a57805160ff19168380011785556200043b565b828001600101855582156200043b579182015b828111156200043a5782518255916020019190600101906200041d565b5b5090506200044a91906200044e565b5090565b5b80821115620004695760008160009055506001016200044f565b5090565b6000620004846200047e8462000791565b62000768565b90508083825260208201905082856060860282011115620004aa57620004a962000a19565b5b60005b85811015620004de5781620004c38882620005b0565b845260208401935060608301925050600181019050620004ad565b5050509392505050565b6000620004ff620004f984620007c0565b62000768565b9050828152602081018484840111156200051e576200051d62000a1e565b5b6200052b84828562000834565b509392505050565b600081519050620005448162000a3e565b92915050565b600082601f83011262000562576200056162000a0f565b5b8151620005748482602086016200046d565b91505092915050565b600082601f83011262000595576200059462000a0f565b5b8151620005a7848260208601620004e8565b91505092915050565b600060608284031215620005c957620005c862000a14565b5b620005d5606062000768565b90506000620005e78482850162000533565b6000830152506020620005fd848285016200061f565b602083015250604062000613848285016200061f565b60408301525092915050565b600081519050620006308162000a58565b92915050565b600080600080600060a0868803121562000655576200065462000a28565b5b6000620006658882890162000533565b955050602086015167ffffffffffffffff81111562000689576200068862000a23565b5b62000697888289016200057d565b9450506040620006aa8882890162000533565b9350506060620006bd888289016200061f565b925050608086015167ffffffffffffffff811115620006e157620006e062000a23565b5b620006ef888289016200054a565b9150509295509295909350565b6200070781620007f6565b82525050565b62000718816200082a565b82525050565b6000604082019050620007356000830185620006fc565b6200074460208301846200070d565b9392505050565b60006020820190506200076260008301846200070d565b92915050565b60006200077462000787565b9050620007828282620008a0565b919050565b6000604051905090565b600067ffffffffffffffff821115620007af57620007ae620009e0565b5b602082029050602081019050919050565b600067ffffffffffffffff821115620007de57620007dd620009e0565b5b620007e98262000a2d565b9050602081019050919050565b600062000803826200080a565b9050919050565b600073ffffffffffffffffffffffffffffffffffffffff82169050919050565b6000819050919050565b60005b838110156200085457808201518184015260208101905062000837565b8381111562000864576000848401525b50505050565b600060028204905060018216806200088357607f821691505b602082108114156200089a576200089962000982565b5b50919050565b620008ab8262000a2d565b810181811067ffffffffffffffff82111715620008cd57620008cc620009e0565b5b80604052505050565b6000620008e3826200082a565b91507fffffffffffffffffffffffffffffffffffffffffffffffffffffffffffffffff82141562000919576200091862000924565b5b600182019050919050565b7f4e487b7100000000000000000000000000000000000000000000000000000000600052601160045260246000fd5b7f4e487b7100000000000000000000000000000000000000000000000000000000600052602160045260246000fd5b7f4e487b7100000000000000000000000000000000000000000000000000000000600052602260045260246000fd5b7f4e487b7100000000000000000000000000000000000000000000000000000000600052603260045260246000fd5b7f4e487b7100000000000000000000000000000000000000000000000000000000600052604160045260246000fd5b600080fd5b600080fd5b600080fd5b600080fd5b600080fd5b600080fd5b6000601f19601f8301169050919050565b62000a4981620007f6565b811462000a5557600080fd5b50565b62000a63816200082a565b811462000a6f57600080fd5b50565b60805160601c60a05160601c60c05160e05161128662000ad56000396000818161022601526104c401526000818161049901526109d70152600081816102d50152818161039f01526106360152600081816103d601526109ff01526112866000f3fe6080604052600436106100865760003560e01c806388700d1c1161005957806388700d1c1461014857806398aca922146101855780639f37092a146101b0578063b17124f6146101cc578063c2def3b9146101f757610086565b80630dc0c9711461008b5780634585e33b146100b65780636e04ff0d146100df5780637fb3761e1461011d575b600080fd5b34801561009757600080fd5b506100a0610222565b6040516100ad9190610ebd565b60405180910390f35b3480156100c257600080fd5b506100dd60048036038101906100d89190610b83565b61024a565b005b3480156100eb57600080fd5b5061010660048036038101906101019190610bd0565b610454565b604051610114929190610df7565b60405180910390f35b34801561012957600080fd5b50610132610550565b60405161013f9190610e27565b60405180910390f35b34801561015457600080fd5b5061016f600480360381019061016a9190610b43565b610567565b60405161017c9190610ea2565b60405180910390f35b34801561019157600080fd5b5061019a610632565b6040516101a79190610d7c565b60405180910390f35b6101ca60048036038101906101c59190610b43565b61065a565b005b3480156101d857600080fd5b506101e16109d3565b6040516101ee9190610ebd565b60405180910390f35b34801561020357600080fd5b5061020c6109fb565b6040516102199190610d7c565b60405180910390f35b60007f0000000000000000000000000000000000000000000000000000000000000000905090565b600061026460405180602001604052806000815250610454565b509050806102a7576040517f08c379a000000000000000000000000000000000000000000000000000000000815260040161029e90610e82565b60405180910390fd5b60018060006101000a81548160ff021916908360018111156102cc576102cb611103565b5b021790555060007f000000000000000000000000000000000000000000000000000000000000000073ffffffffffffffffffffffffffffffffffffffff164760405161031790610d67565b60006040518083038185875af1925050503d8060008114610354576040519150601f19603f3d011682016040523d82523d6000602084013e610359565b606091505b505090508061039d576040517f08c379a000000000000000000000000000000000000000000000000000000000815260040161039490610e62565b60405180910390fd5b7f000000000000000000000000000000000000000000000000000000000000000073ffffffffffffffffffffffffffffffffffffffff167f000000000000000000000000000000000000000000000000000000000000000073ffffffffffffffffffffffffffffffffffffffff163073ffffffffffffffffffffffffffffffffffffffff167f30d61e361afbab2c6369f7c0097f5a26a9744c4b73b37c8e454542bfc0e2e0e560405160405180910390a450505050565b60006060600080600181111561046d5761046c611103565b5b600160009054906101000a900460ff16600181111561048f5761048e611103565b5b1490506000610e107f00000000000000000000000000000000000000000000000000000000000000006104c29190610f66565b7f0000000000000000000000000000000000000000000000000000000000000000426104ee9190610fc0565b119050600080471190508280156105025750815b801561050b5750805b9450846040518060400160405280600381526020017f307830000000000000000000000000000000000000000000000000000000000081525094509450505050915091565b6000600160009054906101000a900460ff16905090565b61056f610a23565b600260008473ffffffffffffffffffffffffffffffffffffffff1673ffffffffffffffffffffffffffffffffffffffff1681526020019081526020016000206000838152602001908152602001600020604051806040016040529081600082015481526020016001820160009054906101000a900473ffffffffffffffffffffffffffffffffffffffff1673ffffffffffffffffffffffffffffffffffffffff1673ffffffffffffffffffffffffffffffffffffffff1681525050905092915050565b60007f0000000000000000000000000000000000000000000000000000000000000000905090565b81816000600260008473ffffffffffffffffffffffffffffffffffffffff1673ffffffffffffffffffffffffffffffffffffffff1681526020019081526020016000206000838152602001908152602001600020604051806040016040529081600082015481526020016001820160009054906101000a900473ffffffffffffffffffffffffffffffffffffffff1673ffffffffffffffffffffffffffffffffffffffff1673ffffffffffffffffffffffffffffffffffffffff1681525050905060008160000151116107665782826040517f6831488c00000000000000000000000000000000000000000000000000000000815260040161075d929190610dce565b60405180910390fd5b6000600260008773ffffffffffffffffffffffffffffffffffffffff1673ffffffffffffffffffffffffffffffffffffffff1681526020019081526020016000206000868152602001908152602001600020604051806040016040529081600082015481526020016001820160009054906101000a900473ffffffffffffffffffffffffffffffffffffffff1673ffffffffffffffffffffffffffffffffffffffff1673ffffffffffffffffffffffffffffffffffffffff16815250509050806000015134101561086c576040517f08c379a000000000000000000000000000000000000000000000000000000000815260040161086390610e42565b60405180910390fd5b600260008773ffffffffffffffffffffffffffffffffffffffff1673ffffffffffffffffffffffffffffffffffffffff16815260200190815260200160002060008681526020019081526020016000206000808201600090556001820160006101000a81549073ffffffffffffffffffffffffffffffffffffffff021916905550508573ffffffffffffffffffffffffffffffffffffffff166342842e0e826020015133886040518463ffffffff1660e01b815260040161092f93929190610d97565b600060405180830381600087803b15801561094957600080fd5b505af115801561095d573d6000803e3d6000fd5b50505050848673ffffffffffffffffffffffffffffffffffffffff163373ffffffffffffffffffffffffffffffffffffffff167f263223b1dd81e51054a4e6f791d45a4a1ddb4aadcd93a2dfd892615c3fdac18784600001516040516109c39190610ebd565b60405180910390a4505050505050565b60007f0000000000000000000000000000000000000000000000000000000000000000905090565b60007f0000000000000000000000000000000000000000000000000000000000000000905090565b604051806040016040528060008152602001600073ffffffffffffffffffffffffffffffffffffffff1681525090565b6000610a66610a6184610efd565b610ed8565b905082815260208101848484011115610a8257610a81611170565b5b610a8d848285611061565b509392505050565b600081359050610aa481611222565b92915050565b60008083601f840112610ac057610abf611166565b5b8235905067ffffffffffffffff811115610add57610adc611161565b5b602083019150836001820283011115610af957610af861116b565b5b9250929050565b600082601f830112610b1557610b14611166565b5b8135610b25848260208601610a53565b91505092915050565b600081359050610b3d81611239565b92915050565b60008060408385031215610b5a57610b5961117a565b5b6000610b6885828601610a95565b9250506020610b7985828601610b2e565b9150509250929050565b60008060208385031215610b9a57610b9961117a565b5b600083013567ffffffffffffffff811115610bb857610bb7611175565b5b610bc485828601610aaa565b92509250509250929050565b600060208284031215610be657610be561117a565b5b600082013567ffffffffffffffff811115610c0457610c03611175565b5b610c1084828501610b00565b91505092915050565b610c2281610ff4565b82525050565b610c3181610ff4565b82525050565b610c4081611006565b82525050565b6000610c5182610f2e565b610c5b8185610f39565b9350610c6b818560208601611070565b610c748161117f565b840191505092915050565b610c888161104f565b82525050565b6000610c9b601583610f55565b9150610ca682611190565b602082019050919050565b6000610cbe600f83610f55565b9150610cc9826111b9565b602082019050919050565b6000610ce1600083610f4a565b9150610cec826111e2565b600082019050919050565b6000610d04601083610f55565b9150610d0f826111e5565b602082019050919050565b604082016000820151610d306000850182610d49565b506020820151610d436020850182610c19565b50505050565b610d5281611045565b82525050565b610d6181611045565b82525050565b6000610d7282610cd4565b9150819050919050565b6000602082019050610d916000830184610c28565b92915050565b6000606082019050610dac6000830186610c28565b610db96020830185610c28565b610dc66040830184610d58565b949350505050565b6000604082019050610de36000830185610c28565b610df06020830184610d58565b9392505050565b6000604082019050610e0c6000830185610c37565b8181036020830152610e1e8184610c46565b90509392505050565b6000602082019050610e3c6000830184610c7f565b92915050565b60006020820190508181036000830152610e5b81610c8e565b9050919050565b60006020820190508181036000830152610e7b81610cb1565b9050919050565b60006020820190508181036000830152610e9b81610cf7565b9050919050565b6000604082019050610eb76000830184610d1a565b92915050565b6000602082019050610ed26000830184610d58565b92915050565b6000610ee2610ef3565b9050610eee82826110a3565b919050565b6000604051905090565b600067ffffffffffffffff821115610f1857610f17611132565b5b610f218261117f565b9050602081019050919050565b600081519050919050565b600082825260208201905092915050565b600081905092915050565b600082825260208201905092915050565b6000610f7182611045565b9150610f7c83611045565b9250817fffffffffffffffffffffffffffffffffffffffffffffffffffffffffffffffff0483118215151615610fb557610fb46110d4565b5b828202905092915050565b6000610fcb82611045565b9150610fd683611045565b925082821015610fe957610fe86110d4565b5b828203905092915050565b6000610fff82611025565b9050919050565b60008115159050919050565b60008190506110208261120e565b919050565b600073ffffffffffffffffffffffffffffffffffffffff82169050919050565b6000819050919050565b600061105a82611012565b9050919050565b82818337600083830152505050565b60005b8381101561108e578082015181840152602081019050611073565b8381111561109d576000848401525b50505050565b6110ac8261117f565b810181811067ffffffffffffffff821117156110cb576110ca611132565b5b80604052505050565b7f4e487b7100000000000000000000000000000000000000000000000000000000600052601160045260246000fd5b7f4e487b7100000000000000000000000000000000000000000000000000000000600052602160045260246000fd5b7f4e487b7100000000000000000000000000000000000000000000000000000000600052604160045260246000fd5b600080fd5b600080fd5b600080fd5b600080fd5b600080fd5b600080fd5b6000601f19601f8301169050919050565b7f4e6f7420656e6f7567682066756e64732073656e740000000000000000000000600082015250565b7f5472616e73666572206661696c65640000000000000000000000000000000000600082015250565b50565b7f4e6f2075706b656570206e656564656400000000000000000000000000000000600082015250565b6002811061121f5761121e611103565b5b50565b61122b81610ff4565b811461123657600080fd5b50565b61124281611045565b811461124d57600080fd5b5056fea264697066735822122070b82f1573456e2cf10f6f03cb3db4e84c3343c93704b82a3487d2988c9c708664736f6c63430008070033a26469706673582212200691aa9df702440071158bcc741b4f94573a46be2ea5fa7bd57c05a4fd84695a64736f6c63430008070033",
  "linkReferences": {},
  "deployedLinkReferences": {}
}