{
  "_format": "hh-sol-artifact-1",
  "contractName": "NftCharity",
  "sourceName": "contracts/NftCharity.sol",
  "abi": [
    {
      "inputs": [],
      "stateMutability": "nonpayable",
      "type": "constructor"
    },
    {
      "anonymous": false,
      "inputs": [
        {
          "indexed": true,
          "internalType": "address",
          "name": "buyer",
          "type": "address"
        },
        {
          "indexed": true,
          "internalType": "address",
          "name": "nftAddress",
          "type": "address"
        },
        {
          "indexed": true,
          "internalType": "uint256",
          "name": "tokenId",
          "type": "uint256"
        },
        {
          "indexed": false,
          "internalType": "uint256",
          "name": "price",
          "type": "uint256"
        }
      ],
      "name": "ItemBought",
      "type": "event"
    },
    {
      "anonymous": false,
      "inputs": [
        {
          "indexed": true,
          "internalType": "address",
          "name": "nftAddress",
          "type": "address"
        },
        {
          "indexed": true,
          "internalType": "uint256",
          "name": "tokenId",
          "type": "uint256"
        }
      ],
      "name": "ItemCanceled",
      "type": "event"
    },
    {
      "anonymous": false,
      "inputs": [
        {
          "indexed": true,
          "internalType": "address",
          "name": "nftAddress",
          "type": "address"
        },
        {
          "indexed": true,
          "internalType": "uint256",
          "name": "tokenId",
          "type": "uint256"
        },
        {
          "indexed": false,
          "internalType": "uint256",
          "name": "price",
          "type": "uint256"
        }
      ],
      "name": "ItemListed",
      "type": "event"
    },
    {
      "inputs": [
        {
          "internalType": "uint256",
          "name": "requestId",
          "type": "uint256"
        },
        {
          "internalType": "uint256",
          "name": "index",
          "type": "uint256"
        }
      ],
      "name": "approveRequest",
      "outputs": [],
      "stateMutability": "nonpayable",
      "type": "function"
    },
    {
      "inputs": [
        {
          "internalType": "address",
          "name": "nftAddress",
          "type": "address"
        },
        {
          "internalType": "uint256",
          "name": "tokenId",
          "type": "uint256"
        }
      ],
      "name": "buyItem",
      "outputs": [],
      "stateMutability": "payable",
      "type": "function"
    },
    {
      "inputs": [
        {
          "internalType": "address",
          "name": "nftAddress",
          "type": "address"
        },
        {
          "internalType": "uint256",
          "name": "tokenId",
          "type": "uint256"
        }
      ],
      "name": "cancelListing",
      "outputs": [],
      "stateMutability": "nonpayable",
      "type": "function"
    },
    {
      "inputs": [
        {
          "internalType": "uint256",
          "name": "index",
          "type": "uint256"
        }
      ],
      "name": "completeRequest",
      "outputs": [],
      "stateMutability": "nonpayable",
      "type": "function"
    },
    {
      "inputs": [
        {
          "internalType": "string",
          "name": "description",
          "type": "string"
        },
        {
          "internalType": "uint256",
          "name": "value",
          "type": "uint256"
        },
        {
          "internalType": "address",
          "name": "recipient",
          "type": "address"
        },
        {
          "internalType": "uint256",
          "name": "dayLast",
          "type": "uint256"
        }
      ],
      "name": "createRequest",
      "outputs": [],
      "stateMutability": "nonpayable",
      "type": "function"
    },
    {
      "inputs": [],
      "name": "getAdmin",
      "outputs": [
        {
          "internalType": "address",
          "name": "",
          "type": "address"
        }
      ],
      "stateMutability": "view",
      "type": "function"
    },
    {
      "inputs": [],
      "name": "getAvailableRequests",
      "outputs": [
        {
          "components": [
            {
              "internalType": "uint256",
              "name": "id",
              "type": "uint256"
            },
            {
              "internalType": "string",
              "name": "description",
              "type": "string"
            },
            {
              "internalType": "uint256",
              "name": "value",
              "type": "uint256"
            },
            {
              "internalType": "address",
              "name": "recipient",
              "type": "address"
            },
            {
              "internalType": "uint256",
              "name": "timeCreated",
              "type": "uint256"
            },
            {
              "internalType": "uint256",
              "name": "dayLast",
              "type": "uint256"
            },
            {
              "internalType": "enum NftCharity.RequestState",
              "name": "state",
              "type": "uint8"
            },
            {
              "internalType": "uint256",
              "name": "approvalsCount",
              "type": "uint256"
            }
          ],
          "internalType": "struct NftCharity.Request[]",
          "name": "",
          "type": "tuple[]"
        }
      ],
      "stateMutability": "view",
      "type": "function"
    },
    {
      "inputs": [],
      "name": "getCompleteRequestsCount",
      "outputs": [
        {
          "internalType": "uint256",
          "name": "",
          "type": "uint256"
        }
      ],
      "stateMutability": "view",
      "type": "function"
    },
    {
      "inputs": [],
      "name": "getCompletedRequests",
      "outputs": [
        {
          "components": [
            {
              "internalType": "uint256",
              "name": "id",
              "type": "uint256"
            },
            {
              "internalType": "string",
              "name": "description",
              "type": "string"
            },
            {
              "internalType": "uint256",
              "name": "value",
              "type": "uint256"
            },
            {
              "internalType": "address",
              "name": "recipient",
              "type": "address"
            },
            {
              "internalType": "uint256",
              "name": "timeCreated",
              "type": "uint256"
            },
            {
              "internalType": "uint256",
              "name": "dayLast",
              "type": "uint256"
            },
            {
              "internalType": "enum NftCharity.RequestState",
              "name": "state",
              "type": "uint8"
            },
            {
              "internalType": "uint256",
              "name": "approvalsCount",
              "type": "uint256"
            }
          ],
          "internalType": "struct NftCharity.Request[]",
          "name": "",
          "type": "tuple[]"
        }
      ],
      "stateMutability": "view",
      "type": "function"
    },
    {
      "inputs": [],
      "name": "getCurrentBalance",
      "outputs": [
        {
          "internalType": "uint256",
          "name": "",
          "type": "uint256"
        }
      ],
      "stateMutability": "view",
      "type": "function"
    },
    {
      "inputs": [],
      "name": "getDonatorsCount",
      "outputs": [
        {
          "internalType": "uint256",
          "name": "",
          "type": "uint256"
        }
      ],
      "stateMutability": "view",
      "type": "function"
    },
    {
      "inputs": [],
      "name": "getExpiredRequests",
      "outputs": [
        {
          "components": [
            {
              "internalType": "uint256",
              "name": "id",
              "type": "uint256"
            },
            {
              "internalType": "string",
              "name": "description",
              "type": "string"
            },
            {
              "internalType": "uint256",
              "name": "value",
              "type": "uint256"
            },
            {
              "internalType": "address",
              "name": "recipient",
              "type": "address"
            },
            {
              "internalType": "uint256",
              "name": "timeCreated",
              "type": "uint256"
            },
            {
              "internalType": "uint256",
              "name": "dayLast",
              "type": "uint256"
            },
            {
              "internalType": "enum NftCharity.RequestState",
              "name": "state",
              "type": "uint8"
            },
            {
              "internalType": "uint256",
              "name": "approvalsCount",
              "type": "uint256"
            }
          ],
          "internalType": "struct NftCharity.Request[]",
          "name": "",
          "type": "tuple[]"
        }
      ],
      "stateMutability": "view",
      "type": "function"
    },
    {
      "inputs": [],
      "name": "getMoneyAvailableForRequests",
      "outputs": [
        {
          "internalType": "uint256",
          "name": "",
          "type": "uint256"
        }
      ],
      "stateMutability": "view",
      "type": "function"
    },
    {
      "inputs": [
        {
          "internalType": "address",
          "name": "nftAddress",
          "type": "address"
        },
        {
          "internalType": "uint256",
          "name": "tokenId",
          "type": "uint256"
        }
      ],
      "name": "getNftListingPrice",
      "outputs": [
        {
          "internalType": "uint256",
          "name": "",
          "type": "uint256"
        }
      ],
      "stateMutability": "view",
      "type": "function"
    },
    {
      "inputs": [
        {
          "internalType": "address",
          "name": "owner",
          "type": "address"
        }
      ],
      "name": "getNftsByOwner",
      "outputs": [
        {
          "components": [
            {
              "internalType": "address",
              "name": "nftAddress",
              "type": "address"
            },
            {
              "internalType": "uint256",
              "name": "tokenId",
              "type": "uint256"
            },
            {
              "internalType": "uint256",
              "name": "price",
              "type": "uint256"
            }
          ],
          "internalType": "struct NftCharity.NftItem[]",
          "name": "",
          "type": "tuple[]"
        }
      ],
      "stateMutability": "view",
      "type": "function"
    },
    {
      "inputs": [],
      "name": "getRejectedRequests",
      "outputs": [
        {
          "components": [
            {
              "internalType": "uint256",
              "name": "id",
              "type": "uint256"
            },
            {
              "internalType": "string",
              "name": "description",
              "type": "string"
            },
            {
              "internalType": "uint256",
              "name": "value",
              "type": "uint256"
            },
            {
              "internalType": "address",
              "name": "recipient",
              "type": "address"
            },
            {
              "internalType": "uint256",
              "name": "timeCreated",
              "type": "uint256"
            },
            {
              "internalType": "uint256",
              "name": "dayLast",
              "type": "uint256"
            },
            {
              "internalType": "enum NftCharity.RequestState",
              "name": "state",
              "type": "uint8"
            },
            {
              "internalType": "uint256",
              "name": "approvalsCount",
              "type": "uint256"
            }
          ],
          "internalType": "struct NftCharity.Request[]",
          "name": "",
          "type": "tuple[]"
        }
      ],
      "stateMutability": "view",
      "type": "function"
    },
    {
      "inputs": [],
      "name": "getRejectedRequestsCount",
      "outputs": [
        {
          "internalType": "uint256",
          "name": "",
          "type": "uint256"
        }
      ],
      "stateMutability": "view",
      "type": "function"
    },
    {
      "inputs": [],
      "name": "getRequests",
      "outputs": [
        {
          "components": [
            {
              "internalType": "uint256",
              "name": "id",
              "type": "uint256"
            },
            {
              "internalType": "string",
              "name": "description",
              "type": "string"
            },
            {
              "internalType": "uint256",
              "name": "value",
              "type": "uint256"
            },
            {
              "internalType": "address",
              "name": "recipient",
              "type": "address"
            },
            {
              "internalType": "uint256",
              "name": "timeCreated",
              "type": "uint256"
            },
            {
              "internalType": "uint256",
              "name": "dayLast",
              "type": "uint256"
            },
            {
              "internalType": "enum NftCharity.RequestState",
              "name": "state",
              "type": "uint8"
            },
            {
              "internalType": "uint256",
              "name": "approvalsCount",
              "type": "uint256"
            }
          ],
          "internalType": "struct NftCharity.Request[]",
          "name": "",
          "type": "tuple[]"
        }
      ],
      "stateMutability": "view",
      "type": "function"
    },
    {
      "inputs": [],
      "name": "getRequestsCount",
      "outputs": [
        {
          "internalType": "uint256",
          "name": "",
          "type": "uint256"
        }
      ],
      "stateMutability": "view",
      "type": "function"
    },
    {
      "inputs": [
        {
          "internalType": "address",
          "name": "nftAddress",
          "type": "address"
        },
        {
          "internalType": "uint256",
          "name": "tokenId",
          "type": "uint256"
        },
        {
          "internalType": "uint256",
          "name": "price",
          "type": "uint256"
        }
      ],
      "name": "listItem",
      "outputs": [],
      "stateMutability": "nonpayable",
      "type": "function"
    },
    {
      "inputs": [
        {
          "internalType": "uint256",
          "name": "index",
          "type": "uint256"
        }
      ],
      "name": "rejectRequest",
      "outputs": [],
      "stateMutability": "nonpayable",
      "type": "function"
    }
  ],
  "bytecode": "0x608060405234801561001057600080fd5b50600160008190555033600160006101000a81548173ffffffffffffffffffffffffffffffffffffffff021916908373ffffffffffffffffffffffffffffffffffffffff160217905550613f01806100696000396000f3fe60806040526004361061012a5760003560e01c80636e9960c3116100ab578063a57497101161006f578063a5749710146103af578063aec9e4f6146103da578063b2ddee0614610405578063cc1e03591461042e578063cc6e07b614610457578063e91f9d96146104825761012a565b80636e9960c3146102e95780638813ce121461031457806389bfd38f1461033f5780639a34d0fb146103685780639f37092a146103935761012a565b80632c0a90a9116100f25780632c0a90a9146102165780632d7788db1461023f5780633277187c146102685780633410452a1461029357806364be6c27146102be5761012a565b806309282a601461012f578063126d89ff1461015a5780631f13ed321461018557806326883efa146101b057806329465b1c146101d9575b600080fd5b34801561013b57600080fd5b506101446104bf565b6040516101519190613651565b60405180910390f35b34801561016657600080fd5b5061016f6104c9565b60405161017c919061340f565b60405180910390f35b34801561019157600080fd5b5061019a61075e565b6040516101a7919061340f565b60405180910390f35b3480156101bc57600080fd5b506101d760048036038101906101d29190612dab565b610b64565b005b3480156101e557600080fd5b5061020060048036038101906101fb9190612d18565b610d4e565b60405161020d9190613651565b60405180910390f35b34801561022257600080fd5b5061023d60048036038101906102389190612e5b565b610da9565b005b34801561024b57600080fd5b5061026660048036038101906102619190612e2e565b61105c565b005b34801561027457600080fd5b5061027d6112a8565b60405161028a9190613651565b60405180910390f35b34801561029f57600080fd5b506102a86112b2565b6040516102b59190613651565b60405180910390f35b3480156102ca57600080fd5b506102d36112bc565b6040516102e0919061340f565b60405180910390f35b3480156102f557600080fd5b506102fe6116c0565b60405161030b919061339b565b60405180910390f35b34801561032057600080fd5b506103296116ea565b604051610336919061340f565b60405180910390f35b34801561034b57600080fd5b5061036660048036038101906103619190612d58565b61189f565b005b34801561037457600080fd5b5061037d611cdd565b60405161038a9190613651565b60405180910390f35b6103ad60048036038101906103a89190612d18565b611ce7565b005b3480156103bb57600080fd5b506103c4612101565b6040516103d19190613651565b60405180910390f35b3480156103e657600080fd5b506103ef612109565b6040516103fc919061340f565b60405180910390f35b34801561041157600080fd5b5061042c60048036038101906104279190612d18565b61239d565b005b34801561043a57600080fd5b5061045560048036038101906104509190612e2e565b61268e565b005b34801561046357600080fd5b5061046c612993565b6040516104799190613651565b60405180910390f35b34801561048e57600080fd5b506104a960048036038101906104a49190612cbe565b61299d565b6040516104b691906133ed565b60405180910390f35b6000600a54905090565b6060600060085467ffffffffffffffff8111156104e9576104e8613abb565b5b60405190808252806020026020018201604052801561052257816020015b61050f612aff565b8152602001906001900390816105075790505b5090506000805b600654811015610755576001600281111561054757610546613a2e565b5b6004828154811061055b5761055a613a8c565b5b906000526020600020906008020160060160009054906101000a900460ff16600281111561058c5761058b613a2e565b5b141561074257600481815481106105a6576105a5613a8c565b5b906000526020600020906008020160405180610100016040529081600082015481526020016001820180546105da90613924565b80601f016020809104026020016040519081016040528092919081815260200182805461060690613924565b80156106535780601f1061062857610100808354040283529160200191610653565b820191906000526020600020905b81548152906001019060200180831161063657829003601f168201915b50505050508152602001600282015481526020016003820160009054906101000a900473ffffffffffffffffffffffffffffffffffffffff1673ffffffffffffffffffffffffffffffffffffffff1673ffffffffffffffffffffffffffffffffffffffff16815260200160048201548152602001600582015481526020016006820160009054906101000a900460ff1660028111156106f5576106f4613a2e565b5b600281111561070757610706613a2e565b5b815260200160078201548152505083838151811061072857610727613a8c565b5b6020026020010181905250818061073e90613987565b9250505b808061074d90613987565b915050610529565b50819250505090565b6060600080600090505b600654811015610862576000600281111561078657610785613a2e565b5b6004828154811061079a57610799613a8c565b5b906000526020600020906008020160060160009054906101000a900460ff1660028111156107cb576107ca613a2e565b5b14801561083b575062015180600482815481106107eb576107ea613a8c565b5b90600052602060002090600802016005015461080791906137f3565b6004828154811061081b5761081a613a8c565b5b906000526020600020906008020160040154610837919061376c565b4210155b1561084f57818061084b90613987565b9250505b808061085a90613987565b915050610768565b506000808267ffffffffffffffff8111156108805761087f613abb565b5b6040519080825280602002602001820160405280156108b957816020015b6108a6612aff565b81526020019060019003908161089e5790505b50905060005b600654811015610b5a57600060028111156108dd576108dc613a2e565b5b600482815481106108f1576108f0613a8c565b5b906000526020600020906008020160060160009054906101000a900460ff16600281111561092257610921613a2e565b5b1480156109925750620151806004828154811061094257610941613a8c565b5b90600052602060002090600802016005015461095e91906137f3565b6004828154811061097257610971613a8c565b5b90600052602060002090600802016004015461098e919061376c565b4210155b15610b4757600481815481106109ab576109aa613a8c565b5b906000526020600020906008020160405180610100016040529081600082015481526020016001820180546109df90613924565b80601f0160208091040260200160405190810160405280929190818152602001828054610a0b90613924565b8015610a585780601f10610a2d57610100808354040283529160200191610a58565b820191906000526020600020905b815481529060010190602001808311610a3b57829003601f168201915b50505050508152602001600282015481526020016003820160009054906101000a900473ffffffffffffffffffffffffffffffffffffffff1673ffffffffffffffffffffffffffffffffffffffff1673ffffffffffffffffffffffffffffffffffffffff16815260200160048201548152602001600582015481526020016006820160009054906101000a900460ff166002811115610afa57610af9613a2e565b5b6002811115610b0c57610b0b613a2e565b5b8152602001600782015481525050828481518110610b2d57610b2c613a8c565b5b60200260200101819052508280610b4390613987565b9350505b8080610b5290613987565b9150506108bf565b5080935050505090565b600160009054906101000a900473ffffffffffffffffffffffffffffffffffffffff1673ffffffffffffffffffffffffffffffffffffffff163373ffffffffffffffffffffffffffffffffffffffff1614610bf4576040517f08c379a0000000000000000000000000000000000000000000000000000000008152600401610beb906135d1565b60405180910390fd5b600a54831115610c39576040517f08c379a0000000000000000000000000000000000000000000000000000000008152600401610c30906135b1565b60405180910390fd5b600060046001816001815401808255809150500390600052602060002090600802019050600654816000018190555084816001019080519060200190610c80929190612b6c565b50838160020181905550828160030160006101000a81548173ffffffffffffffffffffffffffffffffffffffff021916908373ffffffffffffffffffffffffffffffffffffffff16021790555060008160060160006101000a81548160ff02191690836002811115610cf557610cf4613a2e565b5b02179055506000816007018190555042816004018190555081816005018190555060066000815480929190610d2990613987565b919050555083600a6000828254610d40919061384d565b925050819055505050505050565b6000600260008473ffffffffffffffffffffffffffffffffffffffff1673ffffffffffffffffffffffffffffffffffffffff168152602001908152602001600020600083815260200190815260200160002054905092915050565b600560003373ffffffffffffffffffffffffffffffffffffffff1673ffffffffffffffffffffffffffffffffffffffff16815260200190815260200160002060009054906101000a900460ff16610e35576040517f08c379a0000000000000000000000000000000000000000000000000000000008152600401610e2c90613491565b60405180910390fd5b600060048281548110610e4b57610e4a613a8c565b5b9060005260206000209060080201905060006002811115610e6f57610e6e613a2e565b5b8160060160009054906101000a900460ff166002811115610e9357610e92613a2e565b5b14610ed3576040517f08c379a0000000000000000000000000000000000000000000000000000000008152600401610eca90613571565b60405180910390fd5b6003600084815260200190815260200160002060003373ffffffffffffffffffffffffffffffffffffffff1673ffffffffffffffffffffffffffffffffffffffff16815260200190815260200160002060009054906101000a900460ff1615610f71576040517f08c379a0000000000000000000000000000000000000000000000000000000008152600401610f6890613591565b60405180910390fd5b620151808160050154610f8491906137f3565b8160040154610f93919061376c565b4210610fd4576040517f08c379a0000000000000000000000000000000000000000000000000000000008152600401610fcb90613451565b60405180910390fd5b60016003600085815260200190815260200160002060003373ffffffffffffffffffffffffffffffffffffffff1673ffffffffffffffffffffffffffffffffffffffff16815260200190815260200160002060006101000a81548160ff02191690831515021790555080600701600081548092919061105290613987565b9190505550505050565b600160009054906101000a900473ffffffffffffffffffffffffffffffffffffffff1673ffffffffffffffffffffffffffffffffffffffff163373ffffffffffffffffffffffffffffffffffffffff16146110ec576040517f08c379a00000000000000000000000000000000000000000000000000000000081526004016110e3906135d1565b60405180910390fd5b60006004828154811061110257611101613a8c565b5b90600052602060002090600802019050600260075461112191906137c2565b816007015410611166576040517f08c379a000000000000000000000000000000000000000000000000000000000815260040161115d90613531565b60405180910390fd5b6000600281111561117a57611179613a2e565b5b8160060160009054906101000a900460ff16600281111561119e5761119d613a2e565b5b146111de576040517f08c379a00000000000000000000000000000000000000000000000000000000081526004016111d590613571565b60405180910390fd5b6201518081600501546111f191906137f3565b8160040154611200919061376c565b421015611242576040517f08c379a000000000000000000000000000000000000000000000000000000000815260040161123990613471565b60405180910390fd5b8060020154600a6000828254611258919061376c565b9250508190555060028160060160006101000a81548160ff0219169083600281111561128757611286613a2e565b5b02179055506009600081548092919061129f90613987565b91905055505050565b6000600954905090565b6000600654905090565b6060600080600090505b6006548110156113bf57600060028111156112e4576112e3613a2e565b5b600482815481106112f8576112f7613a8c565b5b906000526020600020906008020160060160009054906101000a900460ff16600281111561132957611328613a2e565b5b1480156113985750620151806004828154811061134957611348613a8c565b5b90600052602060002090600802016005015461136591906137f3565b6004828154811061137957611378613a8c565b5b906000526020600020906008020160040154611395919061376c565b42105b156113ac5781806113a890613987565b9250505b80806113b790613987565b9150506112c6565b506000808267ffffffffffffffff8111156113dd576113dc613abb565b5b60405190808252806020026020018201604052801561141657816020015b611403612aff565b8152602001906001900390816113fb5790505b50905060005b6006548110156116b6576000600281111561143a57611439613a2e565b5b6004828154811061144e5761144d613a8c565b5b906000526020600020906008020160060160009054906101000a900460ff16600281111561147f5761147e613a2e565b5b1480156114ee5750620151806004828154811061149f5761149e613a8c565b5b9060005260206000209060080201600501546114bb91906137f3565b600482815481106114cf576114ce613a8c565b5b9060005260206000209060080201600401546114eb919061376c565b42105b156116a3576004818154811061150757611506613a8c565b5b9060005260206000209060080201604051806101000160405290816000820154815260200160018201805461153b90613924565b80601f016020809104026020016040519081016040528092919081815260200182805461156790613924565b80156115b45780601f10611589576101008083540402835291602001916115b4565b820191906000526020600020905b81548152906001019060200180831161159757829003601f168201915b50505050508152602001600282015481526020016003820160009054906101000a900473ffffffffffffffffffffffffffffffffffffffff1673ffffffffffffffffffffffffffffffffffffffff1673ffffffffffffffffffffffffffffffffffffffff16815260200160048201548152602001600582015481526020016006820160009054906101000a900460ff16600281111561165657611655613a2e565b5b600281111561166857611667613a2e565b5b815260200160078201548152505082848151811061168957611688613a8c565b5b6020026020010181905250828061169f90613987565b9350505b80806116ae90613987565b91505061141c565b5080935050505090565b6000600160009054906101000a900473ffffffffffffffffffffffffffffffffffffffff16905090565b60606004805480602002602001604051908101604052809291908181526020016000905b828210156118965783829060005260206000209060080201604051806101000160405290816000820154815260200160018201805461174c90613924565b80601f016020809104026020016040519081016040528092919081815260200182805461177890613924565b80156117c55780601f1061179a576101008083540402835291602001916117c5565b820191906000526020600020905b8154815290600101906020018083116117a857829003601f168201915b50505050508152602001600282015481526020016003820160009054906101000a900473ffffffffffffffffffffffffffffffffffffffff1673ffffffffffffffffffffffffffffffffffffffff1673ffffffffffffffffffffffffffffffffffffffff16815260200160048201548152602001600582015481526020016006820160009054906101000a900460ff16600281111561186757611866613a2e565b5b600281111561187957611878613a2e565b5b81526020016007820154815250508152602001906001019061170e565b50505050905090565b600160009054906101000a900473ffffffffffffffffffffffffffffffffffffffff1673ffffffffffffffffffffffffffffffffffffffff163373ffffffffffffffffffffffffffffffffffffffff161461192f576040517f08c379a0000000000000000000000000000000000000000000000000000000008152600401611926906135d1565b60405180910390fd5b8282600082905060008173ffffffffffffffffffffffffffffffffffffffff16636352211e846040518263ffffffff1660e01b81526004016119719190613651565b60206040518083038186803b15801561198957600080fd5b505afa15801561199d573d6000803e3d6000fd5b505050506040513d601f19601f820116820180604052508101906119c19190612ceb565b9050600160009054906101000a900473ffffffffffffffffffffffffffffffffffffffff1673ffffffffffffffffffffffffffffffffffffffff168173ffffffffffffffffffffffffffffffffffffffff1614611a53576040517f08c379a0000000000000000000000000000000000000000000000000000000008152600401611a4a906134d1565b60405180910390fd5b86866000600260008473ffffffffffffffffffffffffffffffffffffffff1673ffffffffffffffffffffffffffffffffffffffff16815260200190815260200160002060008381526020019081526020016000205490506000811115611aee576040517f08c379a0000000000000000000000000000000000000000000000000000000008152600401611ae590613511565b60405180910390fd5b60008811611b31576040517f08c379a0000000000000000000000000000000000000000000000000000000008152600401611b2890613431565b60405180910390fd5b60008a90503073ffffffffffffffffffffffffffffffffffffffff168173ffffffffffffffffffffffffffffffffffffffff1663081812fc8c6040518263ffffffff1660e01b8152600401611b869190613651565b60206040518083038186803b158015611b9e57600080fd5b505afa158015611bb2573d6000803e3d6000fd5b505050506040513d601f19601f82011682018060405250810190611bd69190612ceb565b73ffffffffffffffffffffffffffffffffffffffff1614611c2c576040517f08c379a0000000000000000000000000000000000000000000000000000000008152600401611c23906135f1565b60405180910390fd5b88600260008d73ffffffffffffffffffffffffffffffffffffffff1673ffffffffffffffffffffffffffffffffffffffff16815260200190815260200160002060008c815260200190815260200160002081905550898b73ffffffffffffffffffffffffffffffffffffffff167f94e7b934c857a9e3202e8ed9c1f3f96e396b7d2b5885930d2001abcb51ff58fa8b604051611cc89190613651565b60405180910390a35050505050505050505050565b6000600854905090565b81816000600260008473ffffffffffffffffffffffffffffffffffffffff1673ffffffffffffffffffffffffffffffffffffffff168152602001908152602001600020600083815260200190815260200160002054905060008111611d81576040517f08c379a0000000000000000000000000000000000000000000000000000000008152600401611d7890613551565b60405180910390fd5b611d89612aa5565b6000600260008773ffffffffffffffffffffffffffffffffffffffff1673ffffffffffffffffffffffffffffffffffffffff168152602001908152602001600020600086815260200190815260200160002054905080341015611e21576040517f08c379a0000000000000000000000000000000000000000000000000000000008152600401611e18906134f1565b60405180910390fd5b600260008773ffffffffffffffffffffffffffffffffffffffff1673ffffffffffffffffffffffffffffffffffffffff1681526020019081526020016000206000868152602001908152602001600020600090556001600560003373ffffffffffffffffffffffffffffffffffffffff1673ffffffffffffffffffffffffffffffffffffffff16815260200190815260200160002060006101000a81548160ff02191690831515021790555060076000815480929190611ee090613987565b919050555080600a6000828254611ef7919061376c565b925050819055508573ffffffffffffffffffffffffffffffffffffffff166342842e0e600160009054906101000a900473ffffffffffffffffffffffffffffffffffffffff1633886040518463ffffffff1660e01b8152600401611f5d939291906133b6565b600060405180830381600087803b158015611f7757600080fd5b505af1158015611f8b573d6000803e3d6000fd5b50505050600060405180606001604052808873ffffffffffffffffffffffffffffffffffffffff168152602001878152602001838152509050600b60003373ffffffffffffffffffffffffffffffffffffffff1673ffffffffffffffffffffffffffffffffffffffff16815260200190815260200160002081908060018154018082558091505060019003906000526020600020906003020160009091909190915060008201518160000160006101000a81548173ffffffffffffffffffffffffffffffffffffffff021916908373ffffffffffffffffffffffffffffffffffffffff16021790555060208201518160010155604082015181600201555050858773ffffffffffffffffffffffffffffffffffffffff163373ffffffffffffffffffffffffffffffffffffffff167f263223b1dd81e51054a4e6f791d45a4a1ddb4aadcd93a2dfd892615c3fdac187856040516120e89190613651565b60405180910390a450506120fa612af5565b5050505050565b600047905090565b6060600060095467ffffffffffffffff81111561212957612128613abb565b5b60405190808252806020026020018201604052801561216257816020015b61214f612aff565b8152602001906001900390816121475790505b5090506000805b6006548110156123945760028081111561218657612185613a2e565b5b6004828154811061219a57612199613a8c565b5b906000526020600020906008020160060160009054906101000a900460ff1660028111156121cb576121ca613a2e565b5b141561238157600481815481106121e5576121e4613a8c565b5b9060005260206000209060080201604051806101000160405290816000820154815260200160018201805461221990613924565b80601f016020809104026020016040519081016040528092919081815260200182805461224590613924565b80156122925780601f1061226757610100808354040283529160200191612292565b820191906000526020600020905b81548152906001019060200180831161227557829003601f168201915b50505050508152602001600282015481526020016003820160009054906101000a900473ffffffffffffffffffffffffffffffffffffffff1673ffffffffffffffffffffffffffffffffffffffff1673ffffffffffffffffffffffffffffffffffffffff16815260200160048201548152602001600582015481526020016006820160009054906101000a900460ff16600281111561233457612333613a2e565b5b600281111561234657612345613a2e565b5b815260200160078201548152505083838151811061236757612366613a8c565b5b6020026020010181905250818061237d90613987565b9250505b808061238c90613987565b915050612169565b50819250505090565b600160009054906101000a900473ffffffffffffffffffffffffffffffffffffffff1673ffffffffffffffffffffffffffffffffffffffff163373ffffffffffffffffffffffffffffffffffffffff161461242d576040517f08c379a0000000000000000000000000000000000000000000000000000000008152600401612424906135d1565b60405180910390fd5b8181600082905060008173ffffffffffffffffffffffffffffffffffffffff16636352211e846040518263ffffffff1660e01b815260040161246f9190613651565b60206040518083038186803b15801561248757600080fd5b505afa15801561249b573d6000803e3d6000fd5b505050506040513d601f19601f820116820180604052508101906124bf9190612ceb565b9050600160009054906101000a900473ffffffffffffffffffffffffffffffffffffffff1673ffffffffffffffffffffffffffffffffffffffff168173ffffffffffffffffffffffffffffffffffffffff1614612551576040517f08c379a0000000000000000000000000000000000000000000000000000000008152600401612548906134d1565b60405180910390fd5b85856000600260008473ffffffffffffffffffffffffffffffffffffffff1673ffffffffffffffffffffffffffffffffffffffff1681526020019081526020016000206000838152602001908152602001600020549050600081116125eb576040517f08c379a00000000000000000000000000000000000000000000000000000000081526004016125e290613551565b60405180910390fd5b600260008a73ffffffffffffffffffffffffffffffffffffffff1673ffffffffffffffffffffffffffffffffffffffff168152602001908152602001600020600089815260200190815260200160002060009055878973ffffffffffffffffffffffffffffffffffffffff167ff86e54241e209ee4b38db8e64af9614b083d18f23c32f3293c8a87c6b8bf894360405160405180910390a3505050505050505050565b600160009054906101000a900473ffffffffffffffffffffffffffffffffffffffff1673ffffffffffffffffffffffffffffffffffffffff163373ffffffffffffffffffffffffffffffffffffffff161461271e576040517f08c379a0000000000000000000000000000000000000000000000000000000008152600401612715906135d1565b60405180910390fd5b60006004828154811061273457612733613a8c565b5b90600052602060002090600802019050600260075461275391906137c2565b81600701541015612799576040517f08c379a000000000000000000000000000000000000000000000000000000000815260040161279090613631565b60405180910390fd5b600060028111156127ad576127ac613a2e565b5b8160060160009054906101000a900460ff1660028111156127d1576127d0613a2e565b5b14612811576040517f08c379a000000000000000000000000000000000000000000000000000000000815260040161280890613571565b60405180910390fd5b62015180816005015461282491906137f3565b8160040154612833919061376c565b421015612875576040517f08c379a000000000000000000000000000000000000000000000000000000000815260040161286c90613471565b60405180910390fd5b60008160030160009054906101000a900473ffffffffffffffffffffffffffffffffffffffff1673ffffffffffffffffffffffffffffffffffffffff1682600201546040516128c390613386565b60006040518083038185875af1925050503d8060008114612900576040519150601f19603f3d011682016040523d82523d6000602084013e612905565b606091505b5050905080612949576040517f08c379a0000000000000000000000000000000000000000000000000000000008152600401612940906134b1565b60405180910390fd5b60018260060160006101000a81548160ff0219169083600281111561297157612970613a2e565b5b02179055506008600081548092919061298990613987565b9190505550505050565b6000600754905090565b6060600b60008373ffffffffffffffffffffffffffffffffffffffff1673ffffffffffffffffffffffffffffffffffffffff168152602001908152602001600020805480602002602001604051908101604052809291908181526020016000905b82821015612a9a57838290600052602060002090600302016040518060600160405290816000820160009054906101000a900473ffffffffffffffffffffffffffffffffffffffff1673ffffffffffffffffffffffffffffffffffffffff1673ffffffffffffffffffffffffffffffffffffffff16815260200160018201548152602001600282015481525050815260200190600101906129fe565b505050509050919050565b60026000541415612aeb576040517f08c379a0000000000000000000000000000000000000000000000000000000008152600401612ae290613611565b60405180910390fd5b6002600081905550565b6001600081905550565b604051806101000160405280600081526020016060815260200160008152602001600073ffffffffffffffffffffffffffffffffffffffff168152602001600081526020016000815260200160006002811115612b5f57612b5e613a2e565b5b8152602001600081525090565b828054612b7890613924565b90600052602060002090601f016020900481019282612b9a5760008555612be1565b82601f10612bb357805160ff1916838001178555612be1565b82800160010185558215612be1579182015b82811115612be0578251825591602001919060010190612bc5565b5b509050612bee9190612bf2565b5090565b5b80821115612c0b576000816000905550600101612bf3565b5090565b6000612c22612c1d84613691565b61366c565b905082815260208101848484011115612c3e57612c3d613aef565b5b612c498482856138e2565b509392505050565b600081359050612c6081613e9d565b92915050565b600081519050612c7581613e9d565b92915050565b600082601f830112612c9057612c8f613aea565b5b8135612ca0848260208601612c0f565b91505092915050565b600081359050612cb881613eb4565b92915050565b600060208284031215612cd457612cd3613af9565b5b6000612ce284828501612c51565b91505092915050565b600060208284031215612d0157612d00613af9565b5b6000612d0f84828501612c66565b91505092915050565b60008060408385031215612d2f57612d2e613af9565b5b6000612d3d85828601612c51565b9250506020612d4e85828601612ca9565b9150509250929050565b600080600060608486031215612d7157612d70613af9565b5b6000612d7f86828701612c51565b9350506020612d9086828701612ca9565b9250506040612da186828701612ca9565b9150509250925092565b60008060008060808587031215612dc557612dc4613af9565b5b600085013567ffffffffffffffff811115612de357612de2613af4565b5b612def87828801612c7b565b9450506020612e0087828801612ca9565b9350506040612e1187828801612c51565b9250506060612e2287828801612ca9565b91505092959194509250565b600060208284031215612e4457612e43613af9565b5b6000612e5284828501612ca9565b91505092915050565b60008060408385031215612e7257612e71613af9565b5b6000612e8085828601612ca9565b9250506020612e9185828601612ca9565b9150509250929050565b6000612ea78383613276565b60608301905092915050565b6000612ebf83836132b8565b905092915050565b612ed081613881565b82525050565b612edf81613881565b82525050565b6000612ef0826136e2565b612efa818561371d565b9350612f05836136c2565b8060005b83811015612f36578151612f1d8882612e9b565b9750612f2883613703565b925050600181019050612f09565b5085935050505092915050565b6000612f4e826136ed565b612f58818561372e565b935083602082028501612f6a856136d2565b8060005b85811015612fa65784840389528151612f878582612eb3565b9450612f9283613710565b925060208a01995050600181019050612f6e565b50829750879550505050505092915050565b612fc1816138d0565b82525050565b6000612fd2826136f8565b612fdc818561374a565b9350612fec8185602086016138f1565b612ff581613afe565b840191505092915050565b600061300d601a8361375b565b915061301882613b0f565b602082019050919050565b600061303060128361375b565b915061303b82613b38565b602082019050919050565b600061305360118361375b565b915061305e82613b61565b602082019050919050565b600061307660238361375b565b915061308182613b8a565b604082019050919050565b6000613099600f8361375b565b91506130a482613bd9565b602082019050919050565b60006130bc601f8361375b565b91506130c782613c02565b602082019050919050565b60006130df60238361375b565b91506130ea82613c2b565b604082019050919050565b600061310260168361375b565b915061310d82613c7a565b602082019050919050565b6000613125601a8361375b565b915061313082613ca3565b602082019050919050565b600061314860128361375b565b915061315382613ccc565b602082019050919050565b600061316b60158361375b565b915061317682613cf5565b602082019050919050565b600061318e60008361373f565b915061319982613d1e565b600082019050919050565b60006131b160268361375b565b91506131bc82613d21565b604082019050919050565b60006131d460278361375b565b91506131df82613d70565b604082019050919050565b60006131f760218361375b565b915061320282613dbf565b604082019050919050565b600061321a60198361375b565b915061322582613e0e565b602082019050919050565b600061323d601f8361375b565b915061324882613e37565b602082019050919050565b600061326060148361375b565b915061326b82613e60565b602082019050919050565b60608201600082015161328c6000850182612ec7565b50602082015161329f6020850182613368565b5060408201516132b26040850182613368565b50505050565b6000610100830160008301516132d16000860182613368565b50602083015184820360208601526132e98282612fc7565b91505060408301516132fe6040860182613368565b5060608301516133116060860182612ec7565b5060808301516133246080860182613368565b5060a083015161333760a0860182613368565b5060c083015161334a60c0860182612fb8565b5060e083015161335d60e0860182613368565b508091505092915050565b613371816138c6565b82525050565b613380816138c6565b82525050565b600061339182613181565b9150819050919050565b60006020820190506133b06000830184612ed6565b92915050565b60006060820190506133cb6000830186612ed6565b6133d86020830185612ed6565b6133e56040830184613377565b949350505050565b600060208201905081810360008301526134078184612ee5565b905092915050565b600060208201905081810360008301526134298184612f43565b905092915050565b6000602082019050818103600083015261344a81613000565b9050919050565b6000602082019050818103600083015261346a81613023565b9050919050565b6000602082019050818103600083015261348a81613046565b9050919050565b600060208201905081810360008301526134aa81613069565b9050919050565b600060208201905081810360008301526134ca8161308c565b9050919050565b600060208201905081810360008301526134ea816130af565b9050919050565b6000602082019050818103600083015261350a816130d2565b9050919050565b6000602082019050818103600083015261352a816130f5565b9050919050565b6000602082019050818103600083015261354a81613118565b9050919050565b6000602082019050818103600083015261356a8161313b565b9050919050565b6000602082019050818103600083015261358a8161315e565b9050919050565b600060208201905081810360008301526135aa816131a4565b9050919050565b600060208201905081810360008301526135ca816131c7565b9050919050565b600060208201905081810360008301526135ea816131ea565b9050919050565b6000602082019050818103600083015261360a8161320d565b9050919050565b6000602082019050818103600083015261362a81613230565b9050919050565b6000602082019050818103600083015261364a81613253565b9050919050565b60006020820190506136666000830184613377565b92915050565b6000613676613687565b90506136828282613956565b919050565b6000604051905090565b600067ffffffffffffffff8211156136ac576136ab613abb565b5b6136b582613afe565b9050602081019050919050565b6000819050602082019050919050565b6000819050602082019050919050565b600081519050919050565b600081519050919050565b600081519050919050565b6000602082019050919050565b6000602082019050919050565b600082825260208201905092915050565b600082825260208201905092915050565b600081905092915050565b600082825260208201905092915050565b600082825260208201905092915050565b6000613777826138c6565b9150613782836138c6565b9250827fffffffffffffffffffffffffffffffffffffffffffffffffffffffffffffffff038211156137b7576137b66139d0565b5b828201905092915050565b60006137cd826138c6565b91506137d8836138c6565b9250826137e8576137e76139ff565b5b828204905092915050565b60006137fe826138c6565b9150613809836138c6565b9250817fffffffffffffffffffffffffffffffffffffffffffffffffffffffffffffffff0483118215151615613842576138416139d0565b5b828202905092915050565b6000613858826138c6565b9150613863836138c6565b925082821015613876576138756139d0565b5b828203905092915050565b600061388c826138a6565b9050919050565b60008190506138a182613e89565b919050565b600073ffffffffffffffffffffffffffffffffffffffff82169050919050565b6000819050919050565b60006138db82613893565b9050919050565b82818337600083830152505050565b60005b8381101561390f5780820151818401526020810190506138f4565b8381111561391e576000848401525b50505050565b6000600282049050600182168061393c57607f821691505b602082108114156139505761394f613a5d565b5b50919050565b61395f82613afe565b810181811067ffffffffffffffff8211171561397e5761397d613abb565b5b80604052505050565b6000613992826138c6565b91507fffffffffffffffffffffffffffffffffffffffffffffffffffffffffffffffff8214156139c5576139c46139d0565b5b600182019050919050565b7f4e487b7100000000000000000000000000000000000000000000000000000000600052601160045260246000fd5b7f4e487b7100000000000000000000000000000000000000000000000000000000600052601260045260246000fd5b7f4e487b7100000000000000000000000000000000000000000000000000000000600052602160045260246000fd5b7f4e487b7100000000000000000000000000000000000000000000000000000000600052602260045260246000fd5b7f4e487b7100000000000000000000000000000000000000000000000000000000600052603260045260246000fd5b7f4e487b7100000000000000000000000000000000000000000000000000000000600052604160045260246000fd5b600080fd5b600080fd5b600080fd5b600080fd5b6000601f19601f8301169050919050565b7f546865207072696365206d7573742062652061626f766520302e000000000000600082015250565b7f5265717565737420697320657870697265640000000000000000000000000000600082015250565b7f5265717565737420697320616374697665000000000000000000000000000000600082015250565b7f4f6e6c7920646f6e61746f722063616e2063616c6c20746869732066756e637460008201527f696f6e0000000000000000000000000000000000000000000000000000000000602082015250565b7f5472616e73666572206661696c65640000000000000000000000000000000000600082015250565b7f546865204e4654206d757374206265206f776e65642062792061646d696e2e00600082015250565b7f596f75206d7573742070617920746865207072696365206f662074686520697460008201527f656d2e0000000000000000000000000000000000000000000000000000000000602082015250565b7f4974656d20697320616c7265616479206c697374656400000000000000000000600082015250565b7f54686572652061726520656e6f75676820617070726f76616c73000000000000600082015250565b7f4974656d206973206e6f74206c69737465640000000000000000000000000000600082015250565b7f52657175657374206973206e6f74206163746976650000000000000000000000600082015250565b50565b7f596f75206861766520616c726561647920617070726f7665642074686973207260008201527f6571756573740000000000000000000000000000000000000000000000000000602082015250565b7f4e6f7420656e6f756768206d6f6e657920617661696c61626c6520666f72207260008201527f6571756573747300000000000000000000000000000000000000000000000000602082015250565b7f4f6e6c792061646d696e2063616e2063616c6c20746869732066756e6374696f60008201527f6e00000000000000000000000000000000000000000000000000000000000000602082015250565b7f546865204e6674206d75737420626520617070726f7665642e00000000000000600082015250565b7f5265656e7472616e637947756172643a207265656e7472616e742063616c6c00600082015250565b7f4e6f7420656e6f75676820617070726f76616c73000000000000000000000000600082015250565b60038110613e9a57613e99613a2e565b5b50565b613ea681613881565b8114613eb157600080fd5b50565b613ebd816138c6565b8114613ec857600080fd5b5056fea26469706673582212201cb3c8b6f38249a9fa00d702ed379a7632934ba69f85cc838da586ffaad7d41364736f6c63430008070033",
  "linkReferences": {},
  "deployedLinkReferences": {}
}