{
  "_format": "hh-sol-artifact-1",
  "contractName": "NftCharity",
  "sourceName": "contracts/NftCharity.sol",
  "abi": [
    {
      "inputs": [],
      "stateMutability": "nonpayable",
      "type": "constructor"
    },
    {
      "anonymous": false,
      "inputs": [
        {
          "indexed": true,
          "internalType": "address",
          "name": "buyer",
          "type": "address"
        },
        {
          "indexed": true,
          "internalType": "address",
          "name": "nftAddress",
          "type": "address"
        },
        {
          "indexed": true,
          "internalType": "uint256",
          "name": "tokenId",
          "type": "uint256"
        },
        {
          "indexed": false,
          "internalType": "uint256",
          "name": "price",
          "type": "uint256"
        }
      ],
      "name": "ItemBought",
      "type": "event"
    },
    {
      "anonymous": false,
      "inputs": [
        {
          "indexed": true,
          "internalType": "address",
          "name": "nftAddress",
          "type": "address"
        },
        {
          "indexed": true,
          "internalType": "uint256",
          "name": "tokenId",
          "type": "uint256"
        }
      ],
      "name": "ItemCanceled",
      "type": "event"
    },
    {
      "anonymous": false,
      "inputs": [
        {
          "indexed": true,
          "internalType": "address",
          "name": "nftAddress",
          "type": "address"
        },
        {
          "indexed": true,
          "internalType": "uint256",
          "name": "tokenId",
          "type": "uint256"
        },
        {
          "indexed": false,
          "internalType": "uint256",
          "name": "price",
          "type": "uint256"
        }
      ],
      "name": "ItemListed",
      "type": "event"
    },
    {
      "inputs": [
        {
          "internalType": "uint256",
          "name": "requestId",
          "type": "uint256"
        },
        {
          "internalType": "uint256",
          "name": "index",
          "type": "uint256"
        }
      ],
      "name": "approveRequest",
      "outputs": [],
      "stateMutability": "nonpayable",
      "type": "function"
    },
    {
      "inputs": [
        {
          "internalType": "address",
          "name": "nftAddress",
          "type": "address"
        },
        {
          "internalType": "uint256",
          "name": "tokenId",
          "type": "uint256"
        }
      ],
      "name": "buyItem",
      "outputs": [],
      "stateMutability": "payable",
      "type": "function"
    },
    {
      "inputs": [
        {
          "internalType": "address",
          "name": "nftAddress",
          "type": "address"
        },
        {
          "internalType": "uint256",
          "name": "tokenId",
          "type": "uint256"
        }
      ],
      "name": "cancelListing",
      "outputs": [],
      "stateMutability": "nonpayable",
      "type": "function"
    },
    {
      "inputs": [
        {
          "internalType": "uint256",
          "name": "index",
          "type": "uint256"
        }
      ],
      "name": "completeRequest",
      "outputs": [],
      "stateMutability": "nonpayable",
      "type": "function"
    },
    {
      "inputs": [
        {
          "internalType": "string",
          "name": "description",
          "type": "string"
        },
        {
          "internalType": "uint256",
          "name": "value",
          "type": "uint256"
        },
        {
          "internalType": "address",
          "name": "recipient",
          "type": "address"
        },
        {
          "internalType": "uint256",
          "name": "dayLast",
          "type": "uint256"
        }
      ],
      "name": "createRequest",
      "outputs": [],
      "stateMutability": "nonpayable",
      "type": "function"
    },
    {
      "inputs": [],
      "name": "getAdmin",
      "outputs": [
        {
          "internalType": "address",
          "name": "",
          "type": "address"
        }
      ],
      "stateMutability": "view",
      "type": "function"
    },
    {
      "inputs": [],
      "name": "getAvailableRequests",
      "outputs": [
        {
          "components": [
            {
              "internalType": "uint256",
              "name": "id",
              "type": "uint256"
            },
            {
              "internalType": "string",
              "name": "description",
              "type": "string"
            },
            {
              "internalType": "uint256",
              "name": "value",
              "type": "uint256"
            },
            {
              "internalType": "address",
              "name": "recipient",
              "type": "address"
            },
            {
              "internalType": "uint256",
              "name": "timeCreated",
              "type": "uint256"
            },
            {
              "internalType": "uint256",
              "name": "dayLast",
              "type": "uint256"
            },
            {
              "internalType": "enum NftCharity.RequestState",
              "name": "state",
              "type": "uint8"
            },
            {
              "internalType": "uint256",
              "name": "approvalsCount",
              "type": "uint256"
            }
          ],
          "internalType": "struct NftCharity.Request[]",
          "name": "",
          "type": "tuple[]"
        }
      ],
      "stateMutability": "view",
      "type": "function"
    },
    {
      "inputs": [],
      "name": "getCompleteRequestsCount",
      "outputs": [
        {
          "internalType": "uint256",
          "name": "",
          "type": "uint256"
        }
      ],
      "stateMutability": "view",
      "type": "function"
    },
    {
      "inputs": [],
      "name": "getCompletedRequests",
      "outputs": [
        {
          "components": [
            {
              "internalType": "uint256",
              "name": "id",
              "type": "uint256"
            },
            {
              "internalType": "string",
              "name": "description",
              "type": "string"
            },
            {
              "internalType": "uint256",
              "name": "value",
              "type": "uint256"
            },
            {
              "internalType": "address",
              "name": "recipient",
              "type": "address"
            },
            {
              "internalType": "uint256",
              "name": "timeCreated",
              "type": "uint256"
            },
            {
              "internalType": "uint256",
              "name": "dayLast",
              "type": "uint256"
            },
            {
              "internalType": "enum NftCharity.RequestState",
              "name": "state",
              "type": "uint8"
            },
            {
              "internalType": "uint256",
              "name": "approvalsCount",
              "type": "uint256"
            }
          ],
          "internalType": "struct NftCharity.Request[]",
          "name": "",
          "type": "tuple[]"
        }
      ],
      "stateMutability": "view",
      "type": "function"
    },
    {
      "inputs": [],
      "name": "getCurrentBalance",
      "outputs": [
        {
          "internalType": "uint256",
          "name": "",
          "type": "uint256"
        }
      ],
      "stateMutability": "view",
      "type": "function"
    },
    {
      "inputs": [],
      "name": "getDonatorsCount",
      "outputs": [
        {
          "internalType": "uint256",
          "name": "",
          "type": "uint256"
        }
      ],
      "stateMutability": "view",
      "type": "function"
    },
    {
      "inputs": [],
      "name": "getExpiredRequests",
      "outputs": [
        {
          "components": [
            {
              "internalType": "uint256",
              "name": "id",
              "type": "uint256"
            },
            {
              "internalType": "string",
              "name": "description",
              "type": "string"
            },
            {
              "internalType": "uint256",
              "name": "value",
              "type": "uint256"
            },
            {
              "internalType": "address",
              "name": "recipient",
              "type": "address"
            },
            {
              "internalType": "uint256",
              "name": "timeCreated",
              "type": "uint256"
            },
            {
              "internalType": "uint256",
              "name": "dayLast",
              "type": "uint256"
            },
            {
              "internalType": "enum NftCharity.RequestState",
              "name": "state",
              "type": "uint8"
            },
            {
              "internalType": "uint256",
              "name": "approvalsCount",
              "type": "uint256"
            }
          ],
          "internalType": "struct NftCharity.Request[]",
          "name": "",
          "type": "tuple[]"
        }
      ],
      "stateMutability": "view",
      "type": "function"
    },
    {
      "inputs": [],
      "name": "getMoneyAvailableForRequests",
      "outputs": [
        {
          "internalType": "uint256",
          "name": "",
          "type": "uint256"
        }
      ],
      "stateMutability": "view",
      "type": "function"
    },
    {
      "inputs": [
        {
          "internalType": "address",
          "name": "nftAddress",
          "type": "address"
        },
        {
          "internalType": "uint256",
          "name": "tokenId",
          "type": "uint256"
        }
      ],
      "name": "getNftListingPrice",
      "outputs": [
        {
          "internalType": "uint256",
          "name": "",
          "type": "uint256"
        }
      ],
      "stateMutability": "view",
      "type": "function"
    },
    {
      "inputs": [],
      "name": "getRejectedRequests",
      "outputs": [
        {
          "components": [
            {
              "internalType": "uint256",
              "name": "id",
              "type": "uint256"
            },
            {
              "internalType": "string",
              "name": "description",
              "type": "string"
            },
            {
              "internalType": "uint256",
              "name": "value",
              "type": "uint256"
            },
            {
              "internalType": "address",
              "name": "recipient",
              "type": "address"
            },
            {
              "internalType": "uint256",
              "name": "timeCreated",
              "type": "uint256"
            },
            {
              "internalType": "uint256",
              "name": "dayLast",
              "type": "uint256"
            },
            {
              "internalType": "enum NftCharity.RequestState",
              "name": "state",
              "type": "uint8"
            },
            {
              "internalType": "uint256",
              "name": "approvalsCount",
              "type": "uint256"
            }
          ],
          "internalType": "struct NftCharity.Request[]",
          "name": "",
          "type": "tuple[]"
        }
      ],
      "stateMutability": "view",
      "type": "function"
    },
    {
      "inputs": [],
      "name": "getRejectedRequestsCount",
      "outputs": [
        {
          "internalType": "uint256",
          "name": "",
          "type": "uint256"
        }
      ],
      "stateMutability": "view",
      "type": "function"
    },
    {
      "inputs": [],
      "name": "getRequests",
      "outputs": [
        {
          "components": [
            {
              "internalType": "uint256",
              "name": "id",
              "type": "uint256"
            },
            {
              "internalType": "string",
              "name": "description",
              "type": "string"
            },
            {
              "internalType": "uint256",
              "name": "value",
              "type": "uint256"
            },
            {
              "internalType": "address",
              "name": "recipient",
              "type": "address"
            },
            {
              "internalType": "uint256",
              "name": "timeCreated",
              "type": "uint256"
            },
            {
              "internalType": "uint256",
              "name": "dayLast",
              "type": "uint256"
            },
            {
              "internalType": "enum NftCharity.RequestState",
              "name": "state",
              "type": "uint8"
            },
            {
              "internalType": "uint256",
              "name": "approvalsCount",
              "type": "uint256"
            }
          ],
          "internalType": "struct NftCharity.Request[]",
          "name": "",
          "type": "tuple[]"
        }
      ],
      "stateMutability": "view",
      "type": "function"
    },
    {
      "inputs": [],
      "name": "getRequestsCount",
      "outputs": [
        {
          "internalType": "uint256",
          "name": "",
          "type": "uint256"
        }
      ],
      "stateMutability": "view",
      "type": "function"
    },
    {
      "inputs": [
        {
          "internalType": "address",
          "name": "nftAddress",
          "type": "address"
        },
        {
          "internalType": "uint256",
          "name": "tokenId",
          "type": "uint256"
        },
        {
          "internalType": "uint256",
          "name": "price",
          "type": "uint256"
        }
      ],
      "name": "listItem",
      "outputs": [],
      "stateMutability": "nonpayable",
      "type": "function"
    },
    {
      "inputs": [
        {
          "internalType": "uint256",
          "name": "index",
          "type": "uint256"
        }
      ],
      "name": "rejectRequest",
      "outputs": [],
      "stateMutability": "nonpayable",
      "type": "function"
    }
  ],
  "bytecode": "0x608060405234801561001057600080fd5b50600160008190555033600160006101000a81548173ffffffffffffffffffffffffffffffffffffffff021916908373ffffffffffffffffffffffffffffffffffffffff160217905550613b75806100696000396000f3fe60806040526004361061011f5760003560e01c80636e9960c3116100a0578063a574971011610064578063a5749710146103a4578063aec9e4f6146103cf578063b2ddee06146103fa578063cc1e035914610423578063cc6e07b61461044c5761011f565b80636e9960c3146102de5780638813ce121461030957806389bfd38f146103345780639a34d0fb1461035d5780639f37092a146103885761011f565b80632c0a90a9116100e75780632c0a90a91461020b5780632d7788db146102345780633277187c1461025d5780633410452a1461028857806364be6c27146102b35761011f565b806309282a6014610124578063126d89ff1461014f5780631f13ed321461017a57806326883efa146101a557806329465b1c146101ce575b600080fd5b34801561013057600080fd5b50610139610477565b60405161014691906132fe565b60405180910390f35b34801561015b57600080fd5b50610164610481565b60405161017191906130bc565b60405180910390f35b34801561018657600080fd5b5061018f610716565b60405161019c91906130bc565b60405180910390f35b3480156101b157600080fd5b506101cc60048036038101906101c79190612b32565b610b1c565b005b3480156101da57600080fd5b506101f560048036038101906101f09190612a9f565b610d06565b60405161020291906132fe565b60405180910390f35b34801561021757600080fd5b50610232600480360381019061022d9190612be2565b610d61565b005b34801561024057600080fd5b5061025b60048036038101906102569190612bb5565b611014565b005b34801561026957600080fd5b50610272611260565b60405161027f91906132fe565b60405180910390f35b34801561029457600080fd5b5061029d61126a565b6040516102aa91906132fe565b60405180910390f35b3480156102bf57600080fd5b506102c8611274565b6040516102d591906130bc565b60405180910390f35b3480156102ea57600080fd5b506102f3611678565b604051610300919061306a565b60405180910390f35b34801561031557600080fd5b5061031e6116a2565b60405161032b91906130bc565b60405180910390f35b34801561034057600080fd5b5061035b60048036038101906103569190612adf565b611857565b005b34801561036957600080fd5b50610372611c95565b60405161037f91906132fe565b60405180910390f35b6103a2600480360381019061039d9190612a9f565b611c9f565b005b3480156103b057600080fd5b506103b9611fbd565b6040516103c691906132fe565b60405180910390f35b3480156103db57600080fd5b506103e4611fc5565b6040516103f191906130bc565b60405180910390f35b34801561040657600080fd5b50610421600480360381019061041c9190612a9f565b612259565b005b34801561042f57600080fd5b5061044a60048036038101906104459190612bb5565b61254a565b005b34801561045857600080fd5b5061046161284f565b60405161046e91906132fe565b60405180910390f35b6000600a54905090565b6060600060085467ffffffffffffffff8111156104a1576104a061372f565b5b6040519080825280602002602001820160405280156104da57816020015b6104c76128b3565b8152602001906001900390816104bf5790505b5090506000805b60065481101561070d57600160028111156104ff576104fe6136a2565b5b6004828154811061051357610512613700565b5b906000526020600020906008020160060160009054906101000a900460ff166002811115610544576105436136a2565b5b14156106fa576004818154811061055e5761055d613700565b5b9060005260206000209060080201604051806101000160405290816000820154815260200160018201805461059290613598565b80601f01602080910402602001604051908101604052809291908181526020018280546105be90613598565b801561060b5780601f106105e05761010080835404028352916020019161060b565b820191906000526020600020905b8154815290600101906020018083116105ee57829003601f168201915b50505050508152602001600282015481526020016003820160009054906101000a900473ffffffffffffffffffffffffffffffffffffffff1673ffffffffffffffffffffffffffffffffffffffff1673ffffffffffffffffffffffffffffffffffffffff16815260200160048201548152602001600582015481526020016006820160009054906101000a900460ff1660028111156106ad576106ac6136a2565b5b60028111156106bf576106be6136a2565b5b81526020016007820154815250508383815181106106e0576106df613700565b5b602002602001018190525081806106f6906135fb565b9250505b8080610705906135fb565b9150506104e1565b50819250505090565b6060600080600090505b60065481101561081a576000600281111561073e5761073d6136a2565b5b6004828154811061075257610751613700565b5b906000526020600020906008020160060160009054906101000a900460ff166002811115610783576107826136a2565b5b1480156107f3575062015180600482815481106107a3576107a2613700565b5b9060005260206000209060080201600501546107bf9190613467565b600482815481106107d3576107d2613700565b5b9060005260206000209060080201600401546107ef91906133e0565b4210155b15610807578180610803906135fb565b9250505b8080610812906135fb565b915050610720565b506000808267ffffffffffffffff8111156108385761083761372f565b5b60405190808252806020026020018201604052801561087157816020015b61085e6128b3565b8152602001906001900390816108565790505b50905060005b600654811015610b125760006002811115610895576108946136a2565b5b600482815481106108a9576108a8613700565b5b906000526020600020906008020160060160009054906101000a900460ff1660028111156108da576108d96136a2565b5b14801561094a575062015180600482815481106108fa576108f9613700565b5b9060005260206000209060080201600501546109169190613467565b6004828154811061092a57610929613700565b5b90600052602060002090600802016004015461094691906133e0565b4210155b15610aff576004818154811061096357610962613700565b5b9060005260206000209060080201604051806101000160405290816000820154815260200160018201805461099790613598565b80601f01602080910402602001604051908101604052809291908181526020018280546109c390613598565b8015610a105780601f106109e557610100808354040283529160200191610a10565b820191906000526020600020905b8154815290600101906020018083116109f357829003601f168201915b50505050508152602001600282015481526020016003820160009054906101000a900473ffffffffffffffffffffffffffffffffffffffff1673ffffffffffffffffffffffffffffffffffffffff1673ffffffffffffffffffffffffffffffffffffffff16815260200160048201548152602001600582015481526020016006820160009054906101000a900460ff166002811115610ab257610ab16136a2565b5b6002811115610ac457610ac36136a2565b5b8152602001600782015481525050828481518110610ae557610ae4613700565b5b60200260200101819052508280610afb906135fb565b9350505b8080610b0a906135fb565b915050610877565b5080935050505090565b600160009054906101000a900473ffffffffffffffffffffffffffffffffffffffff1673ffffffffffffffffffffffffffffffffffffffff163373ffffffffffffffffffffffffffffffffffffffff1614610bac576040517f08c379a0000000000000000000000000000000000000000000000000000000008152600401610ba39061327e565b60405180910390fd5b600a54831115610bf1576040517f08c379a0000000000000000000000000000000000000000000000000000000008152600401610be89061325e565b60405180910390fd5b600060046001816001815401808255809150500390600052602060002090600802019050600654816000018190555084816001019080519060200190610c38929190612920565b50838160020181905550828160030160006101000a81548173ffffffffffffffffffffffffffffffffffffffff021916908373ffffffffffffffffffffffffffffffffffffffff16021790555060008160060160006101000a81548160ff02191690836002811115610cad57610cac6136a2565b5b02179055506000816007018190555042816004018190555081816005018190555060066000815480929190610ce1906135fb565b919050555083600a6000828254610cf891906134c1565b925050819055505050505050565b6000600260008473ffffffffffffffffffffffffffffffffffffffff1673ffffffffffffffffffffffffffffffffffffffff168152602001908152602001600020600083815260200190815260200160002054905092915050565b600560003373ffffffffffffffffffffffffffffffffffffffff1673ffffffffffffffffffffffffffffffffffffffff16815260200190815260200160002060009054906101000a900460ff16610ded576040517f08c379a0000000000000000000000000000000000000000000000000000000008152600401610de49061313e565b60405180910390fd5b600060048281548110610e0357610e02613700565b5b9060005260206000209060080201905060006002811115610e2757610e266136a2565b5b8160060160009054906101000a900460ff166002811115610e4b57610e4a6136a2565b5b14610e8b576040517f08c379a0000000000000000000000000000000000000000000000000000000008152600401610e829061321e565b60405180910390fd5b6003600084815260200190815260200160002060003373ffffffffffffffffffffffffffffffffffffffff1673ffffffffffffffffffffffffffffffffffffffff16815260200190815260200160002060009054906101000a900460ff1615610f29576040517f08c379a0000000000000000000000000000000000000000000000000000000008152600401610f209061323e565b60405180910390fd5b620151808160050154610f3c9190613467565b8160040154610f4b91906133e0565b4210610f8c576040517f08c379a0000000000000000000000000000000000000000000000000000000008152600401610f83906130fe565b60405180910390fd5b60016003600085815260200190815260200160002060003373ffffffffffffffffffffffffffffffffffffffff1673ffffffffffffffffffffffffffffffffffffffff16815260200190815260200160002060006101000a81548160ff02191690831515021790555080600701600081548092919061100a906135fb565b9190505550505050565b600160009054906101000a900473ffffffffffffffffffffffffffffffffffffffff1673ffffffffffffffffffffffffffffffffffffffff163373ffffffffffffffffffffffffffffffffffffffff16146110a4576040517f08c379a000000000000000000000000000000000000000000000000000000000815260040161109b9061327e565b60405180910390fd5b6000600482815481106110ba576110b9613700565b5b9060005260206000209060080201905060026007546110d99190613436565b81600701541061111e576040517f08c379a0000000000000000000000000000000000000000000000000000000008152600401611115906131de565b60405180910390fd5b60006002811115611132576111316136a2565b5b8160060160009054906101000a900460ff166002811115611156576111556136a2565b5b14611196576040517f08c379a000000000000000000000000000000000000000000000000000000000815260040161118d9061321e565b60405180910390fd5b6201518081600501546111a99190613467565b81600401546111b891906133e0565b4210156111fa576040517f08c379a00000000000000000000000000000000000000000000000000000000081526004016111f19061311e565b60405180910390fd5b8060020154600a600082825461121091906133e0565b9250508190555060028160060160006101000a81548160ff0219169083600281111561123f5761123e6136a2565b5b021790555060096000815480929190611257906135fb565b91905055505050565b6000600954905090565b6000600654905090565b6060600080600090505b600654811015611377576000600281111561129c5761129b6136a2565b5b600482815481106112b0576112af613700565b5b906000526020600020906008020160060160009054906101000a900460ff1660028111156112e1576112e06136a2565b5b1480156113505750620151806004828154811061130157611300613700565b5b90600052602060002090600802016005015461131d9190613467565b6004828154811061133157611330613700565b5b90600052602060002090600802016004015461134d91906133e0565b42105b15611364578180611360906135fb565b9250505b808061136f906135fb565b91505061127e565b506000808267ffffffffffffffff8111156113955761139461372f565b5b6040519080825280602002602001820160405280156113ce57816020015b6113bb6128b3565b8152602001906001900390816113b35790505b50905060005b60065481101561166e57600060028111156113f2576113f16136a2565b5b6004828154811061140657611405613700565b5b906000526020600020906008020160060160009054906101000a900460ff166002811115611437576114366136a2565b5b1480156114a65750620151806004828154811061145757611456613700565b5b9060005260206000209060080201600501546114739190613467565b6004828154811061148757611486613700565b5b9060005260206000209060080201600401546114a391906133e0565b42105b1561165b57600481815481106114bf576114be613700565b5b906000526020600020906008020160405180610100016040529081600082015481526020016001820180546114f390613598565b80601f016020809104026020016040519081016040528092919081815260200182805461151f90613598565b801561156c5780601f106115415761010080835404028352916020019161156c565b820191906000526020600020905b81548152906001019060200180831161154f57829003601f168201915b50505050508152602001600282015481526020016003820160009054906101000a900473ffffffffffffffffffffffffffffffffffffffff1673ffffffffffffffffffffffffffffffffffffffff1673ffffffffffffffffffffffffffffffffffffffff16815260200160048201548152602001600582015481526020016006820160009054906101000a900460ff16600281111561160e5761160d6136a2565b5b60028111156116205761161f6136a2565b5b815260200160078201548152505082848151811061164157611640613700565b5b60200260200101819052508280611657906135fb565b9350505b8080611666906135fb565b9150506113d4565b5080935050505090565b6000600160009054906101000a900473ffffffffffffffffffffffffffffffffffffffff16905090565b60606004805480602002602001604051908101604052809291908181526020016000905b8282101561184e5783829060005260206000209060080201604051806101000160405290816000820154815260200160018201805461170490613598565b80601f016020809104026020016040519081016040528092919081815260200182805461173090613598565b801561177d5780601f106117525761010080835404028352916020019161177d565b820191906000526020600020905b81548152906001019060200180831161176057829003601f168201915b50505050508152602001600282015481526020016003820160009054906101000a900473ffffffffffffffffffffffffffffffffffffffff1673ffffffffffffffffffffffffffffffffffffffff1673ffffffffffffffffffffffffffffffffffffffff16815260200160048201548152602001600582015481526020016006820160009054906101000a900460ff16600281111561181f5761181e6136a2565b5b6002811115611831576118306136a2565b5b8152602001600782015481525050815260200190600101906116c6565b50505050905090565b600160009054906101000a900473ffffffffffffffffffffffffffffffffffffffff1673ffffffffffffffffffffffffffffffffffffffff163373ffffffffffffffffffffffffffffffffffffffff16146118e7576040517f08c379a00000000000000000000000000000000000000000000000000000000081526004016118de9061327e565b60405180910390fd5b8282600082905060008173ffffffffffffffffffffffffffffffffffffffff16636352211e846040518263ffffffff1660e01b815260040161192991906132fe565b60206040518083038186803b15801561194157600080fd5b505afa158015611955573d6000803e3d6000fd5b505050506040513d601f19601f820116820180604052508101906119799190612a72565b9050600160009054906101000a900473ffffffffffffffffffffffffffffffffffffffff1673ffffffffffffffffffffffffffffffffffffffff168173ffffffffffffffffffffffffffffffffffffffff1614611a0b576040517f08c379a0000000000000000000000000000000000000000000000000000000008152600401611a029061317e565b60405180910390fd5b86866000600260008473ffffffffffffffffffffffffffffffffffffffff1673ffffffffffffffffffffffffffffffffffffffff16815260200190815260200160002060008381526020019081526020016000205490506000811115611aa6576040517f08c379a0000000000000000000000000000000000000000000000000000000008152600401611a9d906131be565b60405180910390fd5b60008811611ae9576040517f08c379a0000000000000000000000000000000000000000000000000000000008152600401611ae0906130de565b60405180910390fd5b60008a90503073ffffffffffffffffffffffffffffffffffffffff168173ffffffffffffffffffffffffffffffffffffffff1663081812fc8c6040518263ffffffff1660e01b8152600401611b3e91906132fe565b60206040518083038186803b158015611b5657600080fd5b505afa158015611b6a573d6000803e3d6000fd5b505050506040513d601f19601f82011682018060405250810190611b8e9190612a72565b73ffffffffffffffffffffffffffffffffffffffff1614611be4576040517f08c379a0000000000000000000000000000000000000000000000000000000008152600401611bdb9061329e565b60405180910390fd5b88600260008d73ffffffffffffffffffffffffffffffffffffffff1673ffffffffffffffffffffffffffffffffffffffff16815260200190815260200160002060008c815260200190815260200160002081905550898b73ffffffffffffffffffffffffffffffffffffffff167f94e7b934c857a9e3202e8ed9c1f3f96e396b7d2b5885930d2001abcb51ff58fa8b604051611c8091906132fe565b60405180910390a35050505050505050505050565b6000600854905090565b81816000600260008473ffffffffffffffffffffffffffffffffffffffff1673ffffffffffffffffffffffffffffffffffffffff168152602001908152602001600020600083815260200190815260200160002054905060008111611d39576040517f08c379a0000000000000000000000000000000000000000000000000000000008152600401611d30906131fe565b60405180910390fd5b611d41612859565b6000600260008773ffffffffffffffffffffffffffffffffffffffff1673ffffffffffffffffffffffffffffffffffffffff168152602001908152602001600020600086815260200190815260200160002054905080341015611dd9576040517f08c379a0000000000000000000000000000000000000000000000000000000008152600401611dd09061319e565b60405180910390fd5b600260008773ffffffffffffffffffffffffffffffffffffffff1673ffffffffffffffffffffffffffffffffffffffff1681526020019081526020016000206000868152602001908152602001600020600090556001600560003373ffffffffffffffffffffffffffffffffffffffff1673ffffffffffffffffffffffffffffffffffffffff16815260200190815260200160002060006101000a81548160ff02191690831515021790555060076000815480929190611e98906135fb565b919050555080600a6000828254611eaf91906133e0565b925050819055508573ffffffffffffffffffffffffffffffffffffffff166342842e0e600160009054906101000a900473ffffffffffffffffffffffffffffffffffffffff1633886040518463ffffffff1660e01b8152600401611f1593929190613085565b600060405180830381600087803b158015611f2f57600080fd5b505af1158015611f43573d6000803e3d6000fd5b50505050848673ffffffffffffffffffffffffffffffffffffffff163373ffffffffffffffffffffffffffffffffffffffff167f263223b1dd81e51054a4e6f791d45a4a1ddb4aadcd93a2dfd892615c3fdac18784604051611fa591906132fe565b60405180910390a450611fb66128a9565b5050505050565b600047905090565b6060600060095467ffffffffffffffff811115611fe557611fe461372f565b5b60405190808252806020026020018201604052801561201e57816020015b61200b6128b3565b8152602001906001900390816120035790505b5090506000805b60065481101561225057600280811115612042576120416136a2565b5b6004828154811061205657612055613700565b5b906000526020600020906008020160060160009054906101000a900460ff166002811115612087576120866136a2565b5b141561223d57600481815481106120a1576120a0613700565b5b906000526020600020906008020160405180610100016040529081600082015481526020016001820180546120d590613598565b80601f016020809104026020016040519081016040528092919081815260200182805461210190613598565b801561214e5780601f106121235761010080835404028352916020019161214e565b820191906000526020600020905b81548152906001019060200180831161213157829003601f168201915b50505050508152602001600282015481526020016003820160009054906101000a900473ffffffffffffffffffffffffffffffffffffffff1673ffffffffffffffffffffffffffffffffffffffff1673ffffffffffffffffffffffffffffffffffffffff16815260200160048201548152602001600582015481526020016006820160009054906101000a900460ff1660028111156121f0576121ef6136a2565b5b6002811115612202576122016136a2565b5b815260200160078201548152505083838151811061222357612222613700565b5b60200260200101819052508180612239906135fb565b9250505b8080612248906135fb565b915050612025565b50819250505090565b600160009054906101000a900473ffffffffffffffffffffffffffffffffffffffff1673ffffffffffffffffffffffffffffffffffffffff163373ffffffffffffffffffffffffffffffffffffffff16146122e9576040517f08c379a00000000000000000000000000000000000000000000000000000000081526004016122e09061327e565b60405180910390fd5b8181600082905060008173ffffffffffffffffffffffffffffffffffffffff16636352211e846040518263ffffffff1660e01b815260040161232b91906132fe565b60206040518083038186803b15801561234357600080fd5b505afa158015612357573d6000803e3d6000fd5b505050506040513d601f19601f8201168201806040525081019061237b9190612a72565b9050600160009054906101000a900473ffffffffffffffffffffffffffffffffffffffff1673ffffffffffffffffffffffffffffffffffffffff168173ffffffffffffffffffffffffffffffffffffffff161461240d576040517f08c379a00000000000000000000000000000000000000000000000000000000081526004016124049061317e565b60405180910390fd5b85856000600260008473ffffffffffffffffffffffffffffffffffffffff1673ffffffffffffffffffffffffffffffffffffffff1681526020019081526020016000206000838152602001908152602001600020549050600081116124a7576040517f08c379a000000000000000000000000000000000000000000000000000000000815260040161249e906131fe565b60405180910390fd5b600260008a73ffffffffffffffffffffffffffffffffffffffff1673ffffffffffffffffffffffffffffffffffffffff168152602001908152602001600020600089815260200190815260200160002060009055878973ffffffffffffffffffffffffffffffffffffffff167ff86e54241e209ee4b38db8e64af9614b083d18f23c32f3293c8a87c6b8bf894360405160405180910390a3505050505050505050565b600160009054906101000a900473ffffffffffffffffffffffffffffffffffffffff1673ffffffffffffffffffffffffffffffffffffffff163373ffffffffffffffffffffffffffffffffffffffff16146125da576040517f08c379a00000000000000000000000000000000000000000000000000000000081526004016125d19061327e565b60405180910390fd5b6000600482815481106125f0576125ef613700565b5b90600052602060002090600802019050600260075461260f9190613436565b81600701541015612655576040517f08c379a000000000000000000000000000000000000000000000000000000000815260040161264c906132de565b60405180910390fd5b60006002811115612669576126686136a2565b5b8160060160009054906101000a900460ff16600281111561268d5761268c6136a2565b5b146126cd576040517f08c379a00000000000000000000000000000000000000000000000000000000081526004016126c49061321e565b60405180910390fd5b6201518081600501546126e09190613467565b81600401546126ef91906133e0565b421015612731576040517f08c379a00000000000000000000000000000000000000000000000000000000081526004016127289061311e565b60405180910390fd5b60008160030160009054906101000a900473ffffffffffffffffffffffffffffffffffffffff1673ffffffffffffffffffffffffffffffffffffffff16826002015460405161277f90613055565b60006040518083038185875af1925050503d80600081146127bc576040519150601f19603f3d011682016040523d82523d6000602084013e6127c1565b606091505b5050905080612805576040517f08c379a00000000000000000000000000000000000000000000000000000000081526004016127fc9061315e565b60405180910390fd5b60018260060160006101000a81548160ff0219169083600281111561282d5761282c6136a2565b5b021790555060086000815480929190612845906135fb565b9190505550505050565b6000600754905090565b6002600054141561289f576040517f08c379a0000000000000000000000000000000000000000000000000000000008152600401612896906132be565b60405180910390fd5b6002600081905550565b6001600081905550565b604051806101000160405280600081526020016060815260200160008152602001600073ffffffffffffffffffffffffffffffffffffffff168152602001600081526020016000815260200160006002811115612913576129126136a2565b5b8152602001600081525090565b82805461292c90613598565b90600052602060002090601f01602090048101928261294e5760008555612995565b82601f1061296757805160ff1916838001178555612995565b82800160010185558215612995579182015b82811115612994578251825591602001919060010190612979565b5b5090506129a291906129a6565b5090565b5b808211156129bf5760008160009055506001016129a7565b5090565b60006129d66129d18461333e565b613319565b9050828152602081018484840111156129f2576129f1613763565b5b6129fd848285613556565b509392505050565b600081359050612a1481613b11565b92915050565b600081519050612a2981613b11565b92915050565b600082601f830112612a4457612a4361375e565b5b8135612a548482602086016129c3565b91505092915050565b600081359050612a6c81613b28565b92915050565b600060208284031215612a8857612a8761376d565b5b6000612a9684828501612a1a565b91505092915050565b60008060408385031215612ab657612ab561376d565b5b6000612ac485828601612a05565b9250506020612ad585828601612a5d565b9150509250929050565b600080600060608486031215612af857612af761376d565b5b6000612b0686828701612a05565b9350506020612b1786828701612a5d565b9250506040612b2886828701612a5d565b9150509250925092565b60008060008060808587031215612b4c57612b4b61376d565b5b600085013567ffffffffffffffff811115612b6a57612b69613768565b5b612b7687828801612a2f565b9450506020612b8787828801612a5d565b9350506040612b9887828801612a05565b9250506060612ba987828801612a5d565b91505092959194509250565b600060208284031215612bcb57612bca61376d565b5b6000612bd984828501612a5d565b91505092915050565b60008060408385031215612bf957612bf861376d565b5b6000612c0785828601612a5d565b9250506020612c1885828601612a5d565b9150509250929050565b6000612c2e8383612f87565b905092915050565b612c3f816134f5565b82525050565b612c4e816134f5565b82525050565b6000612c5f8261337f565b612c6981856133a2565b935083602082028501612c7b8561336f565b8060005b85811015612cb75784840389528151612c988582612c22565b9450612ca383613395565b925060208a01995050600181019050612c7f565b50829750879550505050505092915050565b612cd281613544565b82525050565b6000612ce38261338a565b612ced81856133be565b9350612cfd818560208601613565565b612d0681613772565b840191505092915050565b6000612d1e601a836133cf565b9150612d2982613783565b602082019050919050565b6000612d416012836133cf565b9150612d4c826137ac565b602082019050919050565b6000612d646011836133cf565b9150612d6f826137d5565b602082019050919050565b6000612d876023836133cf565b9150612d92826137fe565b604082019050919050565b6000612daa600f836133cf565b9150612db58261384d565b602082019050919050565b6000612dcd601f836133cf565b9150612dd882613876565b602082019050919050565b6000612df06023836133cf565b9150612dfb8261389f565b604082019050919050565b6000612e136016836133cf565b9150612e1e826138ee565b602082019050919050565b6000612e36601a836133cf565b9150612e4182613917565b602082019050919050565b6000612e596012836133cf565b9150612e6482613940565b602082019050919050565b6000612e7c6015836133cf565b9150612e8782613969565b602082019050919050565b6000612e9f6000836133b3565b9150612eaa82613992565b600082019050919050565b6000612ec26026836133cf565b9150612ecd82613995565b604082019050919050565b6000612ee56027836133cf565b9150612ef0826139e4565b604082019050919050565b6000612f086021836133cf565b9150612f1382613a33565b604082019050919050565b6000612f2b6019836133cf565b9150612f3682613a82565b602082019050919050565b6000612f4e601f836133cf565b9150612f5982613aab565b602082019050919050565b6000612f716014836133cf565b9150612f7c82613ad4565b602082019050919050565b600061010083016000830151612fa06000860182613037565b5060208301518482036020860152612fb88282612cd8565b9150506040830151612fcd6040860182613037565b506060830151612fe06060860182612c36565b506080830151612ff36080860182613037565b5060a083015161300660a0860182613037565b5060c083015161301960c0860182612cc9565b5060e083015161302c60e0860182613037565b508091505092915050565b6130408161353a565b82525050565b61304f8161353a565b82525050565b600061306082612e92565b9150819050919050565b600060208201905061307f6000830184612c45565b92915050565b600060608201905061309a6000830186612c45565b6130a76020830185612c45565b6130b46040830184613046565b949350505050565b600060208201905081810360008301526130d68184612c54565b905092915050565b600060208201905081810360008301526130f781612d11565b9050919050565b6000602082019050818103600083015261311781612d34565b9050919050565b6000602082019050818103600083015261313781612d57565b9050919050565b6000602082019050818103600083015261315781612d7a565b9050919050565b6000602082019050818103600083015261317781612d9d565b9050919050565b6000602082019050818103600083015261319781612dc0565b9050919050565b600060208201905081810360008301526131b781612de3565b9050919050565b600060208201905081810360008301526131d781612e06565b9050919050565b600060208201905081810360008301526131f781612e29565b9050919050565b6000602082019050818103600083015261321781612e4c565b9050919050565b6000602082019050818103600083015261323781612e6f565b9050919050565b6000602082019050818103600083015261325781612eb5565b9050919050565b6000602082019050818103600083015261327781612ed8565b9050919050565b6000602082019050818103600083015261329781612efb565b9050919050565b600060208201905081810360008301526132b781612f1e565b9050919050565b600060208201905081810360008301526132d781612f41565b9050919050565b600060208201905081810360008301526132f781612f64565b9050919050565b60006020820190506133136000830184613046565b92915050565b6000613323613334565b905061332f82826135ca565b919050565b6000604051905090565b600067ffffffffffffffff8211156133595761335861372f565b5b61336282613772565b9050602081019050919050565b6000819050602082019050919050565b600081519050919050565b600081519050919050565b6000602082019050919050565b600082825260208201905092915050565b600081905092915050565b600082825260208201905092915050565b600082825260208201905092915050565b60006133eb8261353a565b91506133f68361353a565b9250827fffffffffffffffffffffffffffffffffffffffffffffffffffffffffffffffff0382111561342b5761342a613644565b5b828201905092915050565b60006134418261353a565b915061344c8361353a565b92508261345c5761345b613673565b5b828204905092915050565b60006134728261353a565b915061347d8361353a565b9250817fffffffffffffffffffffffffffffffffffffffffffffffffffffffffffffffff04831182151516156134b6576134b5613644565b5b828202905092915050565b60006134cc8261353a565b91506134d78361353a565b9250828210156134ea576134e9613644565b5b828203905092915050565b60006135008261351a565b9050919050565b600081905061351582613afd565b919050565b600073ffffffffffffffffffffffffffffffffffffffff82169050919050565b6000819050919050565b600061354f82613507565b9050919050565b82818337600083830152505050565b60005b83811015613583578082015181840152602081019050613568565b83811115613592576000848401525b50505050565b600060028204905060018216806135b057607f821691505b602082108114156135c4576135c36136d1565b5b50919050565b6135d382613772565b810181811067ffffffffffffffff821117156135f2576135f161372f565b5b80604052505050565b60006136068261353a565b91507fffffffffffffffffffffffffffffffffffffffffffffffffffffffffffffffff82141561363957613638613644565b5b600182019050919050565b7f4e487b7100000000000000000000000000000000000000000000000000000000600052601160045260246000fd5b7f4e487b7100000000000000000000000000000000000000000000000000000000600052601260045260246000fd5b7f4e487b7100000000000000000000000000000000000000000000000000000000600052602160045260246000fd5b7f4e487b7100000000000000000000000000000000000000000000000000000000600052602260045260246000fd5b7f4e487b7100000000000000000000000000000000000000000000000000000000600052603260045260246000fd5b7f4e487b7100000000000000000000000000000000000000000000000000000000600052604160045260246000fd5b600080fd5b600080fd5b600080fd5b600080fd5b6000601f19601f8301169050919050565b7f546865207072696365206d7573742062652061626f766520302e000000000000600082015250565b7f5265717565737420697320657870697265640000000000000000000000000000600082015250565b7f5265717565737420697320616374697665000000000000000000000000000000600082015250565b7f4f6e6c7920646f6e61746f722063616e2063616c6c20746869732066756e637460008201527f696f6e0000000000000000000000000000000000000000000000000000000000602082015250565b7f5472616e73666572206661696c65640000000000000000000000000000000000600082015250565b7f546865204e4654206d757374206265206f776e65642062792061646d696e2e00600082015250565b7f596f75206d7573742070617920746865207072696365206f662074686520697460008201527f656d2e0000000000000000000000000000000000000000000000000000000000602082015250565b7f4974656d20697320616c7265616479206c697374656400000000000000000000600082015250565b7f54686572652061726520656e6f75676820617070726f76616c73000000000000600082015250565b7f4974656d206973206e6f74206c69737465640000000000000000000000000000600082015250565b7f52657175657374206973206e6f74206163746976650000000000000000000000600082015250565b50565b7f596f75206861766520616c726561647920617070726f7665642074686973207260008201527f6571756573740000000000000000000000000000000000000000000000000000602082015250565b7f4e6f7420656e6f756768206d6f6e657920617661696c61626c6520666f72207260008201527f6571756573747300000000000000000000000000000000000000000000000000602082015250565b7f4f6e6c792061646d696e2063616e2063616c6c20746869732066756e6374696f60008201527f6e00000000000000000000000000000000000000000000000000000000000000602082015250565b7f546865204e6674206d75737420626520617070726f7665642e00000000000000600082015250565b7f5265656e7472616e637947756172643a207265656e7472616e742063616c6c00600082015250565b7f4e6f7420656e6f75676820617070726f76616c73000000000000000000000000600082015250565b60038110613b0e57613b0d6136a2565b5b50565b613b1a816134f5565b8114613b2557600080fd5b50565b613b318161353a565b8114613b3c57600080fd5b5056fea264697066735822122025177e7e6a9e3abe72cf5236e509b6a26cea3944f48c6356cfbc5869e90692cc64736f6c63430008070033",
  "linkReferences": {},
  "deployedLinkReferences": {}
}