{
  "_format": "hh-sol-artifact-1",
  "contractName": "NftCharity",
  "sourceName": "contracts/NftCharity.sol",
  "abi": [
    {
      "inputs": [],
      "stateMutability": "nonpayable",
      "type": "constructor"
    },
    {
      "anonymous": false,
      "inputs": [
        {
          "indexed": true,
          "internalType": "address",
          "name": "buyer",
          "type": "address"
        },
        {
          "indexed": true,
          "internalType": "address",
          "name": "nftAddress",
          "type": "address"
        },
        {
          "indexed": true,
          "internalType": "uint256",
          "name": "tokenId",
          "type": "uint256"
        },
        {
          "indexed": false,
          "internalType": "uint256",
          "name": "price",
          "type": "uint256"
        }
      ],
      "name": "ItemBought",
      "type": "event"
    },
    {
      "anonymous": false,
      "inputs": [
        {
          "indexed": true,
          "internalType": "address",
          "name": "seller",
          "type": "address"
        },
        {
          "indexed": true,
          "internalType": "address",
          "name": "nftAddress",
          "type": "address"
        },
        {
          "indexed": true,
          "internalType": "uint256",
          "name": "tokenId",
          "type": "uint256"
        }
      ],
      "name": "ItemCanceled",
      "type": "event"
    },
    {
      "anonymous": false,
      "inputs": [
        {
          "indexed": true,
          "internalType": "address",
          "name": "seller",
          "type": "address"
        },
        {
          "indexed": true,
          "internalType": "address",
          "name": "nftAddress",
          "type": "address"
        },
        {
          "indexed": true,
          "internalType": "uint256",
          "name": "tokenId",
          "type": "uint256"
        },
        {
          "indexed": false,
          "internalType": "uint256",
          "name": "price",
          "type": "uint256"
        }
      ],
      "name": "ItemListed",
      "type": "event"
    },
    {
      "inputs": [
        {
          "internalType": "uint256",
          "name": "index",
          "type": "uint256"
        }
      ],
      "name": "approveRequest",
      "outputs": [],
      "stateMutability": "nonpayable",
      "type": "function"
    },
    {
      "inputs": [
        {
          "internalType": "address",
          "name": "nftAddress",
          "type": "address"
        },
        {
          "internalType": "uint256",
          "name": "tokenId",
          "type": "uint256"
        }
      ],
      "name": "buyItem",
      "outputs": [],
      "stateMutability": "payable",
      "type": "function"
    },
    {
      "inputs": [
        {
          "internalType": "address",
          "name": "nftAddress",
          "type": "address"
        },
        {
          "internalType": "uint256",
          "name": "tokenId",
          "type": "uint256"
        }
      ],
      "name": "cancelListing",
      "outputs": [],
      "stateMutability": "nonpayable",
      "type": "function"
    },
    {
      "inputs": [
        {
          "internalType": "string",
          "name": "description",
          "type": "string"
        },
        {
          "internalType": "uint256",
          "name": "value",
          "type": "uint256"
        },
        {
          "internalType": "address",
          "name": "recipient",
          "type": "address"
        }
      ],
      "name": "createRequest",
      "outputs": [],
      "stateMutability": "nonpayable",
      "type": "function"
    },
    {
      "inputs": [
        {
          "internalType": "uint256",
          "name": "index",
          "type": "uint256"
        }
      ],
      "name": "finalizeRequest",
      "outputs": [],
      "stateMutability": "nonpayable",
      "type": "function"
    },
    {
      "inputs": [],
      "name": "getAdmin",
      "outputs": [
        {
          "internalType": "address",
          "name": "",
          "type": "address"
        }
      ],
      "stateMutability": "view",
      "type": "function"
    },
    {
      "inputs": [],
      "name": "getCompleteRequestsCount",
      "outputs": [
        {
          "internalType": "uint256",
          "name": "",
          "type": "uint256"
        }
      ],
      "stateMutability": "view",
      "type": "function"
    },
    {
      "inputs": [],
      "name": "getCurrentFund",
      "outputs": [
        {
          "internalType": "uint256",
          "name": "",
          "type": "uint256"
        }
      ],
      "stateMutability": "view",
      "type": "function"
    },
    {
      "inputs": [],
      "name": "getDonatorsCount",
      "outputs": [
        {
          "internalType": "uint256",
          "name": "",
          "type": "uint256"
        }
      ],
      "stateMutability": "view",
      "type": "function"
    },
    {
      "inputs": [],
      "name": "getMoneyAvailableForRequests",
      "outputs": [
        {
          "internalType": "uint256",
          "name": "",
          "type": "uint256"
        }
      ],
      "stateMutability": "view",
      "type": "function"
    },
    {
      "inputs": [
        {
          "internalType": "address",
          "name": "nftAddress",
          "type": "address"
        },
        {
          "internalType": "uint256",
          "name": "tokenId",
          "type": "uint256"
        }
      ],
      "name": "getNftListingPrice",
      "outputs": [
        {
          "internalType": "uint256",
          "name": "",
          "type": "uint256"
        }
      ],
      "stateMutability": "view",
      "type": "function"
    },
    {
      "inputs": [],
      "name": "getRequestsCount",
      "outputs": [
        {
          "internalType": "uint256",
          "name": "",
          "type": "uint256"
        }
      ],
      "stateMutability": "view",
      "type": "function"
    },
    {
      "inputs": [
        {
          "internalType": "address",
          "name": "nftAddress",
          "type": "address"
        },
        {
          "internalType": "uint256",
          "name": "tokenId",
          "type": "uint256"
        },
        {
          "internalType": "uint256",
          "name": "price",
          "type": "uint256"
        }
      ],
      "name": "listItem",
      "outputs": [],
      "stateMutability": "nonpayable",
      "type": "function"
    }
  ],
  "bytecode": "0x608060405234801561001057600080fd5b50600160008190555033600160006101000a81548173ffffffffffffffffffffffffffffffffffffffff021916908373ffffffffffffffffffffffffffffffffffffffff160217905550612113806100696000396000f3fe6080604052600436106100c25760003560e01c80638a9cfd551161007f578063b2ddee0611610059578063b2ddee0614610247578063cc6e07b614610270578063d7d1bbdb1461029b578063f2d67334146102c4576100c2565b80638a9cfd55146101d75780639a34d0fb146102005780639f37092a1461022b576100c2565b806303441006146100c757806309282a60146100f057806329465b1c1461011b5780633410452a146101585780636e9960c31461018357806389bfd38f146101ae575b600080fd5b3480156100d357600080fd5b506100ee60048036038101906100e991906115e2565b6102ef565b005b3480156100fc57600080fd5b50610105610577565b6040516101129190611a61565b60405180910390f35b34801561012757600080fd5b50610142600480360381019061013d91906114e0565b610581565b60405161014f9190611a61565b60405180910390f35b34801561016457600080fd5b5061016d6105dc565b60405161017a9190611a61565b60405180910390f35b34801561018f57600080fd5b506101986105e6565b6040516101a5919061184f565b60405180910390f35b3480156101ba57600080fd5b506101d560048036038101906101d09190611520565b610610565b005b3480156101e357600080fd5b506101fe60048036038101906101f99190611573565b6109d5565b005b34801561020c57600080fd5b50610215610b9c565b6040516102229190611a61565b60405180910390f35b610245600480360381019061024091906114e0565b610ba6565b005b34801561025357600080fd5b5061026e600480360381019061026991906114e0565b610ec4565b005b34801561027c57600080fd5b5061028561113c565b6040516102929190611a61565b60405180910390f35b3480156102a757600080fd5b506102c260048036038101906102bd91906115e2565b611146565b005b3480156102d057600080fd5b506102d96112ff565b6040516102e69190611a61565b60405180910390f35b600160009054906101000a900473ffffffffffffffffffffffffffffffffffffffff1673ffffffffffffffffffffffffffffffffffffffff163373ffffffffffffffffffffffffffffffffffffffff161461037f576040517f08c379a0000000000000000000000000000000000000000000000000000000008152600401610376906119e1565b60405180910390fd5b60006003828154811061039557610394611d2d565b5b9060005260206000209060060201905060026006546103b49190611b44565b816004015410156103fa576040517f08c379a00000000000000000000000000000000000000000000000000000000081526004016103f190611a41565b60405180910390fd5b8060030160149054906101000a900460ff161561044c576040517f08c379a0000000000000000000000000000000000000000000000000000000008152600401610443906119a1565b60405180910390fd5b60008160030160009054906101000a900473ffffffffffffffffffffffffffffffffffffffff1673ffffffffffffffffffffffffffffffffffffffff16826002015460405161049a9061183a565b60006040518083038185875af1925050503d80600081146104d7576040519150601f19603f3d011682016040523d82523d6000602084013e6104dc565b606091505b5050905080610520576040517f08c379a0000000000000000000000000000000000000000000000000000000008152600401610517906118e1565b60405180910390fd5b60018260030160146101000a81548160ff0219169083151502179055508160020154600860008282546105539190611b75565b925050819055506007600081548092919061056d90611c57565b9190505550505050565b6000600854905090565b6000600260008473ffffffffffffffffffffffffffffffffffffffff1673ffffffffffffffffffffffffffffffffffffffff168152602001908152602001600020600083815260200190815260200160002054905092915050565b6000600554905090565b6000600160009054906101000a900473ffffffffffffffffffffffffffffffffffffffff16905090565b82826000600260008473ffffffffffffffffffffffffffffffffffffffff1673ffffffffffffffffffffffffffffffffffffffff168152602001908152602001600020600083815260200190815260200160002054905060008111156106ab576040517f08c379a00000000000000000000000000000000000000000000000000000000081526004016106a290611941565b60405180910390fd5b8585600082905060008173ffffffffffffffffffffffffffffffffffffffff16636352211e846040518263ffffffff1660e01b81526004016106ed9190611a61565b60206040518083038186803b15801561070557600080fd5b505afa158015610719573d6000803e3d6000fd5b505050506040513d601f19601f8201168201806040525081019061073d91906114b3565b9050600160009054906101000a900473ffffffffffffffffffffffffffffffffffffffff1673ffffffffffffffffffffffffffffffffffffffff168173ffffffffffffffffffffffffffffffffffffffff16146107cf576040517f08c379a00000000000000000000000000000000000000000000000000000000081526004016107c690611901565b60405180910390fd5b60008811610812576040517f08c379a0000000000000000000000000000000000000000000000000000000008152600401610809906118a1565b60405180910390fd5b60008a90503073ffffffffffffffffffffffffffffffffffffffff168173ffffffffffffffffffffffffffffffffffffffff1663081812fc8c6040518263ffffffff1660e01b81526004016108679190611a61565b60206040518083038186803b15801561087f57600080fd5b505afa158015610893573d6000803e3d6000fd5b505050506040513d601f19601f820116820180604052508101906108b791906114b3565b73ffffffffffffffffffffffffffffffffffffffff161461090d576040517f08c379a000000000000000000000000000000000000000000000000000000000815260040161090490611a01565b60405180910390fd5b88600260008d73ffffffffffffffffffffffffffffffffffffffff1673ffffffffffffffffffffffffffffffffffffffff16815260200190815260200160002060008c815260200190815260200160002081905550898b73ffffffffffffffffffffffffffffffffffffffff163373ffffffffffffffffffffffffffffffffffffffff167fd547e933094f12a9159076970143ebe73234e64480317844b0dcb36117116de48c6040516109c09190611a61565b60405180910390a45050505050505050505050565b600160009054906101000a900473ffffffffffffffffffffffffffffffffffffffff1673ffffffffffffffffffffffffffffffffffffffff163373ffffffffffffffffffffffffffffffffffffffff1614610a65576040517f08c379a0000000000000000000000000000000000000000000000000000000008152600401610a5c906119e1565b60405180910390fd5b600854821115610aaa576040517f08c379a0000000000000000000000000000000000000000000000000000000008152600401610aa1906119c1565b60405180910390fd5b600060036001816001815401808255809150500390600052602060002090600602019050600554816000018190555083816001019080519060200190610af1929190611361565b50828160020181905550818160030160006101000a81548173ffffffffffffffffffffffffffffffffffffffff021916908373ffffffffffffffffffffffffffffffffffffffff16021790555060008160030160146101000a81548160ff0219169083151502179055506000816004018190555060056000815480929190610b7890611c57565b91905055508260086000828254610b8f9190611b75565b9250508190555050505050565b6000600754905090565b81816000600260008473ffffffffffffffffffffffffffffffffffffffff1673ffffffffffffffffffffffffffffffffffffffff168152602001908152602001600020600083815260200190815260200160002054905060008111610c40576040517f08c379a0000000000000000000000000000000000000000000000000000000008152600401610c3790611961565b60405180910390fd5b610c48611307565b6000600260008773ffffffffffffffffffffffffffffffffffffffff1673ffffffffffffffffffffffffffffffffffffffff168152602001908152602001600020600086815260200190815260200160002054905080341015610ce0576040517f08c379a0000000000000000000000000000000000000000000000000000000008152600401610cd790611921565b60405180910390fd5b600260008773ffffffffffffffffffffffffffffffffffffffff1673ffffffffffffffffffffffffffffffffffffffff1681526020019081526020016000206000868152602001908152602001600020600090556001600460003373ffffffffffffffffffffffffffffffffffffffff1673ffffffffffffffffffffffffffffffffffffffff16815260200190815260200160002060006101000a81548160ff02191690831515021790555060066000815480929190610d9f90611c57565b91905055508060086000828254610db69190611aee565b925050819055508573ffffffffffffffffffffffffffffffffffffffff166342842e0e600160009054906101000a900473ffffffffffffffffffffffffffffffffffffffff1633886040518463ffffffff1660e01b8152600401610e1c9392919061186a565b600060405180830381600087803b158015610e3657600080fd5b505af1158015610e4a573d6000803e3d6000fd5b50505050848673ffffffffffffffffffffffffffffffffffffffff163373ffffffffffffffffffffffffffffffffffffffff167f263223b1dd81e51054a4e6f791d45a4a1ddb4aadcd93a2dfd892615c3fdac18784604051610eac9190611a61565b60405180910390a450610ebd611357565b5050505050565b8181600082905060008173ffffffffffffffffffffffffffffffffffffffff16636352211e846040518263ffffffff1660e01b8152600401610f069190611a61565b60206040518083038186803b158015610f1e57600080fd5b505afa158015610f32573d6000803e3d6000fd5b505050506040513d601f19601f82011682018060405250810190610f5691906114b3565b9050600160009054906101000a900473ffffffffffffffffffffffffffffffffffffffff1673ffffffffffffffffffffffffffffffffffffffff168173ffffffffffffffffffffffffffffffffffffffff1614610fe8576040517f08c379a0000000000000000000000000000000000000000000000000000000008152600401610fdf90611901565b60405180910390fd5b85856000600260008473ffffffffffffffffffffffffffffffffffffffff1673ffffffffffffffffffffffffffffffffffffffff168152602001908152602001600020600083815260200190815260200160002054905060008111611082576040517f08c379a000000000000000000000000000000000000000000000000000000000815260040161107990611961565b60405180910390fd5b600260008a73ffffffffffffffffffffffffffffffffffffffff1673ffffffffffffffffffffffffffffffffffffffff168152602001908152602001600020600089815260200190815260200160002060009055878973ffffffffffffffffffffffffffffffffffffffff163373ffffffffffffffffffffffffffffffffffffffff167f9ba1a3cb55ce8d63d072a886f94d2a744f50cddf82128e897d0661f5ec62315860405160405180910390a4505050505050505050565b6000600654905090565b600460003373ffffffffffffffffffffffffffffffffffffffff1673ffffffffffffffffffffffffffffffffffffffff16815260200190815260200160002060009054906101000a900460ff166111d2576040517f08c379a00000000000000000000000000000000000000000000000000000000081526004016111c9906118c1565b60405180910390fd5b6000600382815481106111e8576111e7611d2d565b5b906000526020600020906006020190508060050160003373ffffffffffffffffffffffffffffffffffffffff1673ffffffffffffffffffffffffffffffffffffffff16815260200190815260200160002060009054906101000a900460ff1615611287576040517f08c379a000000000000000000000000000000000000000000000000000000000815260040161127e90611981565b60405180910390fd5b60018160050160003373ffffffffffffffffffffffffffffffffffffffff1673ffffffffffffffffffffffffffffffffffffffff16815260200190815260200160002060006101000a81548160ff0219169083151502179055508060040160008154809291906112f690611c57565b91905055505050565b600047905090565b6002600054141561134d576040517f08c379a000000000000000000000000000000000000000000000000000000000815260040161134490611a21565b60405180910390fd5b6002600081905550565b6001600081905550565b82805461136d90611bf4565b90600052602060002090601f01602090048101928261138f57600085556113d6565b82601f106113a857805160ff19168380011785556113d6565b828001600101855582156113d6579182015b828111156113d55782518255916020019190600101906113ba565b5b5090506113e391906113e7565b5090565b5b808211156114005760008160009055506001016113e8565b5090565b600061141761141284611aa1565b611a7c565b90508281526020810184848401111561143357611432611d90565b5b61143e848285611be5565b509392505050565b600081359050611455816120af565b92915050565b60008151905061146a816120af565b92915050565b600082601f83011261148557611484611d8b565b5b8135611495848260208601611404565b91505092915050565b6000813590506114ad816120c6565b92915050565b6000602082840312156114c9576114c8611d9a565b5b60006114d78482850161145b565b91505092915050565b600080604083850312156114f7576114f6611d9a565b5b600061150585828601611446565b92505060206115168582860161149e565b9150509250929050565b60008060006060848603121561153957611538611d9a565b5b600061154786828701611446565b93505060206115588682870161149e565b92505060406115698682870161149e565b9150509250925092565b60008060006060848603121561158c5761158b611d9a565b5b600084013567ffffffffffffffff8111156115aa576115a9611d95565b5b6115b686828701611470565b93505060206115c78682870161149e565b92505060406115d886828701611446565b9150509250925092565b6000602082840312156115f8576115f7611d9a565b5b60006116068482850161149e565b91505092915050565b61161881611ba9565b82525050565b600061162b601a83611add565b915061163682611db0565b602082019050919050565b600061164e602383611add565b915061165982611dd9565b604082019050919050565b6000611671600f83611add565b915061167c82611e28565b602082019050919050565b6000611694601f83611add565b915061169f82611e51565b602082019050919050565b60006116b7602383611add565b91506116c282611e7a565b604082019050919050565b60006116da601683611add565b91506116e582611ec9565b602082019050919050565b60006116fd601283611add565b915061170882611ef2565b602082019050919050565b6000611720600083611ad2565b915061172b82611f1b565b600082019050919050565b6000611743602683611add565b915061174e82611f1e565b604082019050919050565b6000611766601983611add565b915061177182611f6d565b602082019050919050565b6000611789602783611add565b915061179482611f96565b604082019050919050565b60006117ac602183611add565b91506117b782611fe5565b604082019050919050565b60006117cf601983611add565b91506117da82612034565b602082019050919050565b60006117f2601f83611add565b91506117fd8261205d565b602082019050919050565b6000611815601483611add565b915061182082612086565b602082019050919050565b61183481611bdb565b82525050565b600061184582611713565b9150819050919050565b6000602082019050611864600083018461160f565b92915050565b600060608201905061187f600083018661160f565b61188c602083018561160f565b611899604083018461182b565b949350505050565b600060208201905081810360008301526118ba8161161e565b9050919050565b600060208201905081810360008301526118da81611641565b9050919050565b600060208201905081810360008301526118fa81611664565b9050919050565b6000602082019050818103600083015261191a81611687565b9050919050565b6000602082019050818103600083015261193a816116aa565b9050919050565b6000602082019050818103600083015261195a816116cd565b9050919050565b6000602082019050818103600083015261197a816116f0565b9050919050565b6000602082019050818103600083015261199a81611736565b9050919050565b600060208201905081810360008301526119ba81611759565b9050919050565b600060208201905081810360008301526119da8161177c565b9050919050565b600060208201905081810360008301526119fa8161179f565b9050919050565b60006020820190508181036000830152611a1a816117c2565b9050919050565b60006020820190508181036000830152611a3a816117e5565b9050919050565b60006020820190508181036000830152611a5a81611808565b9050919050565b6000602082019050611a76600083018461182b565b92915050565b6000611a86611a97565b9050611a928282611c26565b919050565b6000604051905090565b600067ffffffffffffffff821115611abc57611abb611d5c565b5b611ac582611d9f565b9050602081019050919050565b600081905092915050565b600082825260208201905092915050565b6000611af982611bdb565b9150611b0483611bdb565b9250827fffffffffffffffffffffffffffffffffffffffffffffffffffffffffffffffff03821115611b3957611b38611ca0565b5b828201905092915050565b6000611b4f82611bdb565b9150611b5a83611bdb565b925082611b6a57611b69611ccf565b5b828204905092915050565b6000611b8082611bdb565b9150611b8b83611bdb565b925082821015611b9e57611b9d611ca0565b5b828203905092915050565b6000611bb482611bbb565b9050919050565b600073ffffffffffffffffffffffffffffffffffffffff82169050919050565b6000819050919050565b82818337600083830152505050565b60006002820490506001821680611c0c57607f821691505b60208210811415611c2057611c1f611cfe565b5b50919050565b611c2f82611d9f565b810181811067ffffffffffffffff82111715611c4e57611c4d611d5c565b5b80604052505050565b6000611c6282611bdb565b91507fffffffffffffffffffffffffffffffffffffffffffffffffffffffffffffffff821415611c9557611c94611ca0565b5b600182019050919050565b7f4e487b7100000000000000000000000000000000000000000000000000000000600052601160045260246000fd5b7f4e487b7100000000000000000000000000000000000000000000000000000000600052601260045260246000fd5b7f4e487b7100000000000000000000000000000000000000000000000000000000600052602260045260246000fd5b7f4e487b7100000000000000000000000000000000000000000000000000000000600052603260045260246000fd5b7f4e487b7100000000000000000000000000000000000000000000000000000000600052604160045260246000fd5b600080fd5b600080fd5b600080fd5b600080fd5b6000601f19601f8301169050919050565b7f546865207072696365206d7573742062652061626f766520302e000000000000600082015250565b7f4f6e6c7920646f6e61746f722063616e2063616c6c20746869732066756e637460008201527f696f6e0000000000000000000000000000000000000000000000000000000000602082015250565b7f5472616e73666572206661696c65640000000000000000000000000000000000600082015250565b7f546865204e4654206d757374206265206f776e65642062792061646d696e2e00600082015250565b7f596f75206d7573742070617920746865207072696365206f662074686520697460008201527f656d2e0000000000000000000000000000000000000000000000000000000000602082015250565b7f4974656d20697320616c7265616479206c697374656400000000000000000000600082015250565b7f4974656d206973206e6f74206c69737465640000000000000000000000000000600082015250565b50565b7f596f75206861766520616c726561647920617070726f7665642074686973207260008201527f6571756573740000000000000000000000000000000000000000000000000000602082015250565b7f5265717565737420616c726561647920636f6d706c6574656400000000000000600082015250565b7f4e6f7420656e6f756768206d6f6e657920617661696c61626c6520666f72207260008201527f6571756573747300000000000000000000000000000000000000000000000000602082015250565b7f4f6e6c792061646d696e2063616e2063616c6c20746869732066756e6374696f60008201527f6e00000000000000000000000000000000000000000000000000000000000000602082015250565b7f546865204e6674206d75737420626520617070726f7665642e00000000000000600082015250565b7f5265656e7472616e637947756172643a207265656e7472616e742063616c6c00600082015250565b7f4e6f7420656e6f75676820617070726f76616c73000000000000000000000000600082015250565b6120b881611ba9565b81146120c357600080fd5b50565b6120cf81611bdb565b81146120da57600080fd5b5056fea2646970667358221220be882c1cca58a430112da4290ad06aa407189f99700b8b65c6ace516f10c9ee764736f6c63430008070033",
  "linkReferences": {},
  "deployedLinkReferences": {}
}