{
  "_format": "hh-sol-artifact-1",
  "contractName": "NftCharity",
  "sourceName": "contracts/NftCharity.sol",
  "abi": [
    {
      "inputs": [],
      "stateMutability": "nonpayable",
      "type": "constructor"
    },
    {
      "anonymous": false,
      "inputs": [
        {
          "indexed": true,
          "internalType": "address",
          "name": "buyer",
          "type": "address"
        },
        {
          "indexed": true,
          "internalType": "address",
          "name": "nftAddress",
          "type": "address"
        },
        {
          "indexed": true,
          "internalType": "uint256",
          "name": "tokenId",
          "type": "uint256"
        },
        {
          "indexed": false,
          "internalType": "uint256",
          "name": "price",
          "type": "uint256"
        }
      ],
      "name": "ItemBought",
      "type": "event"
    },
    {
      "anonymous": false,
      "inputs": [
        {
          "indexed": true,
          "internalType": "address",
          "name": "seller",
          "type": "address"
        },
        {
          "indexed": true,
          "internalType": "address",
          "name": "nftAddress",
          "type": "address"
        },
        {
          "indexed": true,
          "internalType": "uint256",
          "name": "tokenId",
          "type": "uint256"
        }
      ],
      "name": "ItemCanceled",
      "type": "event"
    },
    {
      "anonymous": false,
      "inputs": [
        {
          "indexed": true,
          "internalType": "address",
          "name": "seller",
          "type": "address"
        },
        {
          "indexed": true,
          "internalType": "address",
          "name": "nftAddress",
          "type": "address"
        },
        {
          "indexed": true,
          "internalType": "uint256",
          "name": "tokenId",
          "type": "uint256"
        },
        {
          "indexed": false,
          "internalType": "uint256",
          "name": "price",
          "type": "uint256"
        }
      ],
      "name": "ItemListed",
      "type": "event"
    },
    {
      "inputs": [
        {
          "internalType": "uint256",
          "name": "requestId",
          "type": "uint256"
        },
        {
          "internalType": "uint256",
          "name": "index",
          "type": "uint256"
        }
      ],
      "name": "approveRequest",
      "outputs": [],
      "stateMutability": "nonpayable",
      "type": "function"
    },
    {
      "inputs": [
        {
          "internalType": "address",
          "name": "nftAddress",
          "type": "address"
        },
        {
          "internalType": "uint256",
          "name": "tokenId",
          "type": "uint256"
        }
      ],
      "name": "buyItem",
      "outputs": [],
      "stateMutability": "payable",
      "type": "function"
    },
    {
      "inputs": [
        {
          "internalType": "address",
          "name": "nftAddress",
          "type": "address"
        },
        {
          "internalType": "uint256",
          "name": "tokenId",
          "type": "uint256"
        }
      ],
      "name": "cancelListing",
      "outputs": [],
      "stateMutability": "nonpayable",
      "type": "function"
    },
    {
      "inputs": [
        {
          "internalType": "uint256",
          "name": "index",
          "type": "uint256"
        }
      ],
      "name": "completeRequest",
      "outputs": [],
      "stateMutability": "nonpayable",
      "type": "function"
    },
    {
      "inputs": [
        {
          "internalType": "string",
          "name": "description",
          "type": "string"
        },
        {
          "internalType": "uint256",
          "name": "value",
          "type": "uint256"
        },
        {
          "internalType": "address",
          "name": "recipient",
          "type": "address"
        }
      ],
      "name": "createRequest",
      "outputs": [],
      "stateMutability": "nonpayable",
      "type": "function"
    },
    {
      "inputs": [
        {
          "internalType": "uint256",
          "name": "requestId",
          "type": "uint256"
        },
        {
          "internalType": "uint256",
          "name": "index",
          "type": "uint256"
        }
      ],
      "name": "declineRequest",
      "outputs": [],
      "stateMutability": "nonpayable",
      "type": "function"
    },
    {
      "inputs": [],
      "name": "getActiveRequests",
      "outputs": [
        {
          "components": [
            {
              "internalType": "uint256",
              "name": "id",
              "type": "uint256"
            },
            {
              "internalType": "string",
              "name": "description",
              "type": "string"
            },
            {
              "internalType": "uint256",
              "name": "value",
              "type": "uint256"
            },
            {
              "internalType": "address",
              "name": "recipient",
              "type": "address"
            },
            {
              "internalType": "enum NftCharity.RequestState",
              "name": "state",
              "type": "uint8"
            },
            {
              "internalType": "uint256",
              "name": "approvalsCount",
              "type": "uint256"
            },
            {
              "internalType": "uint256",
              "name": "declinesCount",
              "type": "uint256"
            }
          ],
          "internalType": "struct NftCharity.Request[]",
          "name": "",
          "type": "tuple[]"
        }
      ],
      "stateMutability": "view",
      "type": "function"
    },
    {
      "inputs": [],
      "name": "getAdmin",
      "outputs": [
        {
          "internalType": "address",
          "name": "",
          "type": "address"
        }
      ],
      "stateMutability": "view",
      "type": "function"
    },
    {
      "inputs": [],
      "name": "getCompleteRequestsCount",
      "outputs": [
        {
          "internalType": "uint256",
          "name": "",
          "type": "uint256"
        }
      ],
      "stateMutability": "view",
      "type": "function"
    },
    {
      "inputs": [],
      "name": "getCompletedRequests",
      "outputs": [
        {
          "components": [
            {
              "internalType": "uint256",
              "name": "id",
              "type": "uint256"
            },
            {
              "internalType": "string",
              "name": "description",
              "type": "string"
            },
            {
              "internalType": "uint256",
              "name": "value",
              "type": "uint256"
            },
            {
              "internalType": "address",
              "name": "recipient",
              "type": "address"
            },
            {
              "internalType": "enum NftCharity.RequestState",
              "name": "state",
              "type": "uint8"
            },
            {
              "internalType": "uint256",
              "name": "approvalsCount",
              "type": "uint256"
            },
            {
              "internalType": "uint256",
              "name": "declinesCount",
              "type": "uint256"
            }
          ],
          "internalType": "struct NftCharity.Request[]",
          "name": "",
          "type": "tuple[]"
        }
      ],
      "stateMutability": "view",
      "type": "function"
    },
    {
      "inputs": [],
      "name": "getCurrentFund",
      "outputs": [
        {
          "internalType": "uint256",
          "name": "",
          "type": "uint256"
        }
      ],
      "stateMutability": "view",
      "type": "function"
    },
    {
      "inputs": [],
      "name": "getDonatorsCount",
      "outputs": [
        {
          "internalType": "uint256",
          "name": "",
          "type": "uint256"
        }
      ],
      "stateMutability": "view",
      "type": "function"
    },
    {
      "inputs": [],
      "name": "getMoneyAvailableForRequests",
      "outputs": [
        {
          "internalType": "uint256",
          "name": "",
          "type": "uint256"
        }
      ],
      "stateMutability": "view",
      "type": "function"
    },
    {
      "inputs": [
        {
          "internalType": "address",
          "name": "nftAddress",
          "type": "address"
        },
        {
          "internalType": "uint256",
          "name": "tokenId",
          "type": "uint256"
        }
      ],
      "name": "getNftListingPrice",
      "outputs": [
        {
          "internalType": "uint256",
          "name": "",
          "type": "uint256"
        }
      ],
      "stateMutability": "view",
      "type": "function"
    },
    {
      "inputs": [],
      "name": "getRejectedRequests",
      "outputs": [
        {
          "components": [
            {
              "internalType": "uint256",
              "name": "id",
              "type": "uint256"
            },
            {
              "internalType": "string",
              "name": "description",
              "type": "string"
            },
            {
              "internalType": "uint256",
              "name": "value",
              "type": "uint256"
            },
            {
              "internalType": "address",
              "name": "recipient",
              "type": "address"
            },
            {
              "internalType": "enum NftCharity.RequestState",
              "name": "state",
              "type": "uint8"
            },
            {
              "internalType": "uint256",
              "name": "approvalsCount",
              "type": "uint256"
            },
            {
              "internalType": "uint256",
              "name": "declinesCount",
              "type": "uint256"
            }
          ],
          "internalType": "struct NftCharity.Request[]",
          "name": "",
          "type": "tuple[]"
        }
      ],
      "stateMutability": "view",
      "type": "function"
    },
    {
      "inputs": [],
      "name": "getRequests",
      "outputs": [
        {
          "components": [
            {
              "internalType": "uint256",
              "name": "id",
              "type": "uint256"
            },
            {
              "internalType": "string",
              "name": "description",
              "type": "string"
            },
            {
              "internalType": "uint256",
              "name": "value",
              "type": "uint256"
            },
            {
              "internalType": "address",
              "name": "recipient",
              "type": "address"
            },
            {
              "internalType": "enum NftCharity.RequestState",
              "name": "state",
              "type": "uint8"
            },
            {
              "internalType": "uint256",
              "name": "approvalsCount",
              "type": "uint256"
            },
            {
              "internalType": "uint256",
              "name": "declinesCount",
              "type": "uint256"
            }
          ],
          "internalType": "struct NftCharity.Request[]",
          "name": "",
          "type": "tuple[]"
        }
      ],
      "stateMutability": "view",
      "type": "function"
    },
    {
      "inputs": [],
      "name": "getRequestsCount",
      "outputs": [
        {
          "internalType": "uint256",
          "name": "",
          "type": "uint256"
        }
      ],
      "stateMutability": "view",
      "type": "function"
    },
    {
      "inputs": [
        {
          "internalType": "address",
          "name": "nftAddress",
          "type": "address"
        },
        {
          "internalType": "uint256",
          "name": "tokenId",
          "type": "uint256"
        },
        {
          "internalType": "uint256",
          "name": "price",
          "type": "uint256"
        }
      ],
      "name": "listItem",
      "outputs": [],
      "stateMutability": "nonpayable",
      "type": "function"
    },
    {
      "inputs": [
        {
          "internalType": "uint256",
          "name": "index",
          "type": "uint256"
        }
      ],
      "name": "rejectRequest",
      "outputs": [],
      "stateMutability": "nonpayable",
      "type": "function"
    }
  ],
  "bytecode": "0x608060405234801561001057600080fd5b50600160008190555033600160006101000a81548173ffffffffffffffffffffffffffffffffffffffff021916908373ffffffffffffffffffffffffffffffffffffffff160217905550613639806100696000396000f3fe6080604052600436106101145760003560e01c80638a9cfd55116100a0578063b2ddee0611610064578063b2ddee061461036c578063cc1e035914610395578063cc6e07b6146103be578063e8c1e76f146103e9578063f2d673341461041457610114565b80638a9cfd55146102a85780639a34d0fb146102d15780639f37092a146102fc578063accbeb6814610318578063aec9e4f61461034157610114565b80632d7788db116100e75780632d7788db146101d55780633410452a146101fe5780636e9960c3146102295780638813ce121461025457806389bfd38f1461027f57610114565b806309282a6014610119578063126d89ff1461014457806329465b1c1461016f5780632c0a90a9146101ac575b600080fd5b34801561012557600080fd5b5061012e61043f565b60405161013b9190612e1f565b60405180910390f35b34801561015057600080fd5b50610159610449565b6040516101669190612bfd565b60405180910390f35b34801561017b57600080fd5b506101966004803603810190610191919061262b565b6106d3565b6040516101a39190612e1f565b60405180910390f35b3480156101b857600080fd5b506101d360048036038101906101ce919061275a565b61072e565b005b3480156101e157600080fd5b506101fc60048036038101906101f7919061272d565b610a1c565b005b34801561020a57600080fd5b50610213610be8565b6040516102209190612e1f565b60405180910390f35b34801561023557600080fd5b5061023e610bf2565b60405161024b9190612bab565b60405180910390f35b34801561026057600080fd5b50610269610c1c565b6040516102769190612bfd565b60405180910390f35b34801561028b57600080fd5b506102a660048036038101906102a1919061266b565b610dc6565b005b3480156102b457600080fd5b506102cf60048036038101906102ca91906126be565b61118b565b005b3480156102dd57600080fd5b506102e6611362565b6040516102f39190612e1f565b60405180910390f35b6103166004803603810190610311919061262b565b61136c565b005b34801561032457600080fd5b5061033f600480360381019061033a919061275a565b61168a565b005b34801561034d57600080fd5b50610356611978565b6040516103639190612bfd565b60405180910390f35b34801561037857600080fd5b50610393600480360381019061038e919061262b565b611c01565b005b3480156103a157600080fd5b506103bc60048036038101906103b7919061272d565b611e79565b005b3480156103ca57600080fd5b506103d3612137565b6040516103e09190612e1f565b60405180910390f35b3480156103f557600080fd5b506103fe612141565b60405161040b9190612bfd565b60405180910390f35b34801561042057600080fd5b506104296123e5565b6040516104369190612e1f565b60405180910390f35b6000600b54905090565b6060600060095467ffffffffffffffff811115610469576104686131f6565b5b6040519080825280602002602001820160405280156104a257816020015b61048f612447565b8152602001906001900390816104875790505b5090506000805b6007548110156106ca57600160028111156104c7576104c6613169565b5b600582815481106104db576104da6131c7565b5b906000526020600020906006020160030160149054906101000a900460ff16600281111561050c5761050b613169565b5b14156106b75760058181548110610526576105256131c7565b5b90600052602060002090600602016040518060e0016040529081600082015481526020016001820180546105599061305f565b80601f01602080910402602001604051908101604052809291908181526020018280546105859061305f565b80156105d25780601f106105a7576101008083540402835291602001916105d2565b820191906000526020600020905b8154815290600101906020018083116105b557829003601f168201915b50505050508152602001600282015481526020016003820160009054906101000a900473ffffffffffffffffffffffffffffffffffffffff1673ffffffffffffffffffffffffffffffffffffffff1673ffffffffffffffffffffffffffffffffffffffff1681526020016003820160149054906101000a900460ff1660028111156106605761065f613169565b5b600281111561067257610671613169565b5b81526020016004820154815260200160058201548152505083838151811061069d5761069c6131c7565b5b602002602001018190525081806106b3906130c2565b9250505b80806106c2906130c2565b9150506104a9565b50819250505090565b6000600260008473ffffffffffffffffffffffffffffffffffffffff1673ffffffffffffffffffffffffffffffffffffffff168152602001908152602001600020600083815260200190815260200160002054905092915050565b600660003373ffffffffffffffffffffffffffffffffffffffff1673ffffffffffffffffffffffffffffffffffffffff16815260200190815260200160002060009054906101000a900460ff166107ba576040517f08c379a00000000000000000000000000000000000000000000000000000000081526004016107b190612c5f565b60405180910390fd5b6000600582815481106107d0576107cf6131c7565b5b90600052602060002090600602019050600060028111156107f4576107f3613169565b5b8160030160149054906101000a900460ff16600281111561081857610817613169565b5b14610858576040517f08c379a000000000000000000000000000000000000000000000000000000000815260040161084f90612d3f565b60405180910390fd5b6003600084815260200190815260200160002060003373ffffffffffffffffffffffffffffffffffffffff1673ffffffffffffffffffffffffffffffffffffffff16815260200190815260200160002060009054906101000a900460ff16156108f6576040517f08c379a00000000000000000000000000000000000000000000000000000000081526004016108ed90612d5f565b60405180910390fd5b6004600084815260200190815260200160002060003373ffffffffffffffffffffffffffffffffffffffff1673ffffffffffffffffffffffffffffffffffffffff16815260200190815260200160002060009054906101000a900460ff1615610994576040517f08c379a000000000000000000000000000000000000000000000000000000000815260040161098b90612c3f565b60405180910390fd5b60016003600085815260200190815260200160002060003373ffffffffffffffffffffffffffffffffffffffff1673ffffffffffffffffffffffffffffffffffffffff16815260200190815260200160002060006101000a81548160ff021916908315150217905550806004016000815480929190610a12906130c2565b9190505550505050565b600160009054906101000a900473ffffffffffffffffffffffffffffffffffffffff1673ffffffffffffffffffffffffffffffffffffffff163373ffffffffffffffffffffffffffffffffffffffff1614610aac576040517f08c379a0000000000000000000000000000000000000000000000000000000008152600401610aa390612d9f565b60405180910390fd5b600060058281548110610ac257610ac16131c7565b5b906000526020600020906006020190506002600854610ae19190612f57565b81600501541015610b27576040517f08c379a0000000000000000000000000000000000000000000000000000000008152600401610b1e90612cff565b60405180910390fd5b60006002811115610b3b57610b3a613169565b5b8160030160149054906101000a900460ff166002811115610b5f57610b5e613169565b5b14610b9f576040517f08c379a0000000000000000000000000000000000000000000000000000000008152600401610b9690612d3f565b60405180910390fd5b60028160030160146101000a81548160ff02191690836002811115610bc757610bc6613169565b5b0217905550600a6000815480929190610bdf906130c2565b91905055505050565b6000600754905090565b6000600160009054906101000a900473ffffffffffffffffffffffffffffffffffffffff16905090565b60606005805480602002602001604051908101604052809291908181526020016000905b82821015610dbd57838290600052602060002090600602016040518060e001604052908160008201548152602001600182018054610c7d9061305f565b80601f0160208091040260200160405190810160405280929190818152602001828054610ca99061305f565b8015610cf65780601f10610ccb57610100808354040283529160200191610cf6565b820191906000526020600020905b815481529060010190602001808311610cd957829003601f168201915b50505050508152602001600282015481526020016003820160009054906101000a900473ffffffffffffffffffffffffffffffffffffffff1673ffffffffffffffffffffffffffffffffffffffff1673ffffffffffffffffffffffffffffffffffffffff1681526020016003820160149054906101000a900460ff166002811115610d8457610d83613169565b5b6002811115610d9657610d95613169565b5b81526020016004820154815260200160058201548152505081526020019060010190610c40565b50505050905090565b82826000600260008473ffffffffffffffffffffffffffffffffffffffff1673ffffffffffffffffffffffffffffffffffffffff16815260200190815260200160002060008381526020019081526020016000205490506000811115610e61576040517f08c379a0000000000000000000000000000000000000000000000000000000008152600401610e5890612cdf565b60405180910390fd5b8585600082905060008173ffffffffffffffffffffffffffffffffffffffff16636352211e846040518263ffffffff1660e01b8152600401610ea39190612e1f565b60206040518083038186803b158015610ebb57600080fd5b505afa158015610ecf573d6000803e3d6000fd5b505050506040513d601f19601f82011682018060405250810190610ef391906125fe565b9050600160009054906101000a900473ffffffffffffffffffffffffffffffffffffffff1673ffffffffffffffffffffffffffffffffffffffff168173ffffffffffffffffffffffffffffffffffffffff1614610f85576040517f08c379a0000000000000000000000000000000000000000000000000000000008152600401610f7c90612c9f565b60405180910390fd5b60008811610fc8576040517f08c379a0000000000000000000000000000000000000000000000000000000008152600401610fbf90612c1f565b60405180910390fd5b60008a90503073ffffffffffffffffffffffffffffffffffffffff168173ffffffffffffffffffffffffffffffffffffffff1663081812fc8c6040518263ffffffff1660e01b815260040161101d9190612e1f565b60206040518083038186803b15801561103557600080fd5b505afa158015611049573d6000803e3d6000fd5b505050506040513d601f19601f8201168201806040525081019061106d91906125fe565b73ffffffffffffffffffffffffffffffffffffffff16146110c3576040517f08c379a00000000000000000000000000000000000000000000000000000000081526004016110ba90612dbf565b60405180910390fd5b88600260008d73ffffffffffffffffffffffffffffffffffffffff1673ffffffffffffffffffffffffffffffffffffffff16815260200190815260200160002060008c815260200190815260200160002081905550898b73ffffffffffffffffffffffffffffffffffffffff163373ffffffffffffffffffffffffffffffffffffffff167fd547e933094f12a9159076970143ebe73234e64480317844b0dcb36117116de48c6040516111769190612e1f565b60405180910390a45050505050505050505050565b600160009054906101000a900473ffffffffffffffffffffffffffffffffffffffff1673ffffffffffffffffffffffffffffffffffffffff163373ffffffffffffffffffffffffffffffffffffffff161461121b576040517f08c379a000000000000000000000000000000000000000000000000000000000815260040161121290612d9f565b60405180910390fd5b600b54821115611260576040517f08c379a000000000000000000000000000000000000000000000000000000000815260040161125790612d7f565b60405180910390fd5b6000600560018160018154018082558091505003906000526020600020906006020190506007548160000181905550838160010190805190602001906112a79291906124ac565b50828160020181905550818160030160006101000a81548173ffffffffffffffffffffffffffffffffffffffff021916908373ffffffffffffffffffffffffffffffffffffffff16021790555060008160030160146101000a81548160ff0219169083600281111561131c5761131b613169565b5b0217905550600081600401819055506007600081548092919061133e906130c2565b919050555082600b60008282546113559190612f88565b9250508190555050505050565b6000600954905090565b81816000600260008473ffffffffffffffffffffffffffffffffffffffff1673ffffffffffffffffffffffffffffffffffffffff168152602001908152602001600020600083815260200190815260200160002054905060008111611406576040517f08c379a00000000000000000000000000000000000000000000000000000000081526004016113fd90612d1f565b60405180910390fd5b61140e6123ed565b6000600260008773ffffffffffffffffffffffffffffffffffffffff1673ffffffffffffffffffffffffffffffffffffffff1681526020019081526020016000206000868152602001908152602001600020549050803410156114a6576040517f08c379a000000000000000000000000000000000000000000000000000000000815260040161149d90612cbf565b60405180910390fd5b600260008773ffffffffffffffffffffffffffffffffffffffff1673ffffffffffffffffffffffffffffffffffffffff1681526020019081526020016000206000868152602001908152602001600020600090556001600660003373ffffffffffffffffffffffffffffffffffffffff1673ffffffffffffffffffffffffffffffffffffffff16815260200190815260200160002060006101000a81548160ff02191690831515021790555060086000815480929190611565906130c2565b919050555080600b600082825461157c9190612f01565b925050819055508573ffffffffffffffffffffffffffffffffffffffff166342842e0e600160009054906101000a900473ffffffffffffffffffffffffffffffffffffffff1633886040518463ffffffff1660e01b81526004016115e293929190612bc6565b600060405180830381600087803b1580156115fc57600080fd5b505af1158015611610573d6000803e3d6000fd5b50505050848673ffffffffffffffffffffffffffffffffffffffff163373ffffffffffffffffffffffffffffffffffffffff167f263223b1dd81e51054a4e6f791d45a4a1ddb4aadcd93a2dfd892615c3fdac187846040516116729190612e1f565b60405180910390a45061168361243d565b5050505050565b600660003373ffffffffffffffffffffffffffffffffffffffff1673ffffffffffffffffffffffffffffffffffffffff16815260200190815260200160002060009054906101000a900460ff16611716576040517f08c379a000000000000000000000000000000000000000000000000000000000815260040161170d90612c5f565b60405180910390fd5b60006005828154811061172c5761172b6131c7565b5b90600052602060002090600602019050600060028111156117505761174f613169565b5b8160030160149054906101000a900460ff16600281111561177457611773613169565b5b146117b4576040517f08c379a00000000000000000000000000000000000000000000000000000000081526004016117ab90612d3f565b60405180910390fd5b6003600084815260200190815260200160002060003373ffffffffffffffffffffffffffffffffffffffff1673ffffffffffffffffffffffffffffffffffffffff16815260200190815260200160002060009054906101000a900460ff1615611852576040517f08c379a000000000000000000000000000000000000000000000000000000000815260040161184990612d5f565b60405180910390fd5b6004600084815260200190815260200160002060003373ffffffffffffffffffffffffffffffffffffffff1673ffffffffffffffffffffffffffffffffffffffff16815260200190815260200160002060009054906101000a900460ff16156118f0576040517f08c379a00000000000000000000000000000000000000000000000000000000081526004016118e790612c3f565b60405180910390fd5b60016004600085815260200190815260200160002060003373ffffffffffffffffffffffffffffffffffffffff1673ffffffffffffffffffffffffffffffffffffffff16815260200190815260200160002060006101000a81548160ff02191690831515021790555080600501600081548092919061196e906130c2565b9190505550505050565b60606000600a5467ffffffffffffffff811115611998576119976131f6565b5b6040519080825280602002602001820160405280156119d157816020015b6119be612447565b8152602001906001900390816119b65790505b5090506000805b600754811015611bf8576002808111156119f5576119f4613169565b5b60058281548110611a0957611a086131c7565b5b906000526020600020906006020160030160149054906101000a900460ff166002811115611a3a57611a39613169565b5b1415611be55760058181548110611a5457611a536131c7565b5b90600052602060002090600602016040518060e001604052908160008201548152602001600182018054611a879061305f565b80601f0160208091040260200160405190810160405280929190818152602001828054611ab39061305f565b8015611b005780601f10611ad557610100808354040283529160200191611b00565b820191906000526020600020905b815481529060010190602001808311611ae357829003601f168201915b50505050508152602001600282015481526020016003820160009054906101000a900473ffffffffffffffffffffffffffffffffffffffff1673ffffffffffffffffffffffffffffffffffffffff1673ffffffffffffffffffffffffffffffffffffffff1681526020016003820160149054906101000a900460ff166002811115611b8e57611b8d613169565b5b6002811115611ba057611b9f613169565b5b815260200160048201548152602001600582015481525050838381518110611bcb57611bca6131c7565b5b60200260200101819052508180611be1906130c2565b9250505b8080611bf0906130c2565b9150506119d8565b50819250505090565b8181600082905060008173ffffffffffffffffffffffffffffffffffffffff16636352211e846040518263ffffffff1660e01b8152600401611c439190612e1f565b60206040518083038186803b158015611c5b57600080fd5b505afa158015611c6f573d6000803e3d6000fd5b505050506040513d601f19601f82011682018060405250810190611c9391906125fe565b9050600160009054906101000a900473ffffffffffffffffffffffffffffffffffffffff1673ffffffffffffffffffffffffffffffffffffffff168173ffffffffffffffffffffffffffffffffffffffff1614611d25576040517f08c379a0000000000000000000000000000000000000000000000000000000008152600401611d1c90612c9f565b60405180910390fd5b85856000600260008473ffffffffffffffffffffffffffffffffffffffff1673ffffffffffffffffffffffffffffffffffffffff168152602001908152602001600020600083815260200190815260200160002054905060008111611dbf576040517f08c379a0000000000000000000000000000000000000000000000000000000008152600401611db690612d1f565b60405180910390fd5b600260008a73ffffffffffffffffffffffffffffffffffffffff1673ffffffffffffffffffffffffffffffffffffffff168152602001908152602001600020600089815260200190815260200160002060009055878973ffffffffffffffffffffffffffffffffffffffff163373ffffffffffffffffffffffffffffffffffffffff167f9ba1a3cb55ce8d63d072a886f94d2a744f50cddf82128e897d0661f5ec62315860405160405180910390a4505050505050505050565b600160009054906101000a900473ffffffffffffffffffffffffffffffffffffffff1673ffffffffffffffffffffffffffffffffffffffff163373ffffffffffffffffffffffffffffffffffffffff1614611f09576040517f08c379a0000000000000000000000000000000000000000000000000000000008152600401611f0090612d9f565b60405180910390fd5b600060058281548110611f1f57611f1e6131c7565b5b906000526020600020906006020190506002600854611f3e9190612f57565b81600401541015611f84576040517f08c379a0000000000000000000000000000000000000000000000000000000008152600401611f7b90612dff565b60405180910390fd5b60006002811115611f9857611f97613169565b5b8160030160149054906101000a900460ff166002811115611fbc57611fbb613169565b5b14611ffc576040517f08c379a0000000000000000000000000000000000000000000000000000000008152600401611ff390612d3f565b60405180910390fd5b60008160030160009054906101000a900473ffffffffffffffffffffffffffffffffffffffff1673ffffffffffffffffffffffffffffffffffffffff16826002015460405161204a90612b96565b60006040518083038185875af1925050503d8060008114612087576040519150601f19603f3d011682016040523d82523d6000602084013e61208c565b606091505b50509050806120d0576040517f08c379a00000000000000000000000000000000000000000000000000000000081526004016120c790612c7f565b60405180910390fd5b60018260030160146101000a81548160ff021916908360028111156120f8576120f7613169565b5b02179055508160020154600b60008282546121139190612f88565b925050819055506009600081548092919061212d906130c2565b9190505550505050565b6000600854905090565b60606000600a546009546007546121589190612f88565b6121629190612f88565b67ffffffffffffffff81111561217b5761217a6131f6565b5b6040519080825280602002602001820160405280156121b457816020015b6121a1612447565b8152602001906001900390816121995790505b5090506000805b6007548110156123dc57600060028111156121d9576121d8613169565b5b600582815481106121ed576121ec6131c7565b5b906000526020600020906006020160030160149054906101000a900460ff16600281111561221e5761221d613169565b5b14156123c95760058181548110612238576122376131c7565b5b90600052602060002090600602016040518060e00160405290816000820154815260200160018201805461226b9061305f565b80601f01602080910402602001604051908101604052809291908181526020018280546122979061305f565b80156122e45780601f106122b9576101008083540402835291602001916122e4565b820191906000526020600020905b8154815290600101906020018083116122c757829003601f168201915b50505050508152602001600282015481526020016003820160009054906101000a900473ffffffffffffffffffffffffffffffffffffffff1673ffffffffffffffffffffffffffffffffffffffff1673ffffffffffffffffffffffffffffffffffffffff1681526020016003820160149054906101000a900460ff16600281111561237257612371613169565b5b600281111561238457612383613169565b5b8152602001600482015481526020016005820154815250508383815181106123af576123ae6131c7565b5b602002602001018190525081806123c5906130c2565b9250505b80806123d4906130c2565b9150506121bb565b50819250505090565b600047905090565b60026000541415612433576040517f08c379a000000000000000000000000000000000000000000000000000000000815260040161242a90612ddf565b60405180910390fd5b6002600081905550565b6001600081905550565b6040518060e00160405280600081526020016060815260200160008152602001600073ffffffffffffffffffffffffffffffffffffffff1681526020016000600281111561249857612497613169565b5b815260200160008152602001600081525090565b8280546124b89061305f565b90600052602060002090601f0160209004810192826124da5760008555612521565b82601f106124f357805160ff1916838001178555612521565b82800160010185558215612521579182015b82811115612520578251825591602001919060010190612505565b5b50905061252e9190612532565b5090565b5b8082111561254b576000816000905550600101612533565b5090565b600061256261255d84612e5f565b612e3a565b90508281526020810184848401111561257e5761257d61322a565b5b61258984828561301d565b509392505050565b6000813590506125a0816135d5565b92915050565b6000815190506125b5816135d5565b92915050565b600082601f8301126125d0576125cf613225565b5b81356125e084826020860161254f565b91505092915050565b6000813590506125f8816135ec565b92915050565b60006020828403121561261457612613613234565b5b6000612622848285016125a6565b91505092915050565b6000806040838503121561264257612641613234565b5b600061265085828601612591565b9250506020612661858286016125e9565b9150509250929050565b60008060006060848603121561268457612683613234565b5b600061269286828701612591565b93505060206126a3868287016125e9565b92505060406126b4868287016125e9565b9150509250925092565b6000806000606084860312156126d7576126d6613234565b5b600084013567ffffffffffffffff8111156126f5576126f461322f565b5b612701868287016125bb565b9350506020612712868287016125e9565b925050604061272386828701612591565b9150509250925092565b60006020828403121561274357612742613234565b5b6000612751848285016125e9565b91505092915050565b6000806040838503121561277157612770613234565b5b600061277f858286016125e9565b9250506020612790858286016125e9565b9150509250929050565b60006127a68383612adc565b905092915050565b6127b781612fbc565b82525050565b6127c681612fbc565b82525050565b60006127d782612ea0565b6127e18185612ec3565b9350836020820285016127f385612e90565b8060005b8581101561282f5784840389528151612810858261279a565b945061281b83612eb6565b925060208a019950506001810190506127f7565b50829750879550505050505092915050565b61284a8161300b565b82525050565b600061285b82612eab565b6128658185612edf565b935061287581856020860161302c565b61287e81613239565b840191505092915050565b6000612896601a83612ef0565b91506128a18261324a565b602082019050919050565b60006128b9602683612ef0565b91506128c482613273565b604082019050919050565b60006128dc602383612ef0565b91506128e7826132c2565b604082019050919050565b60006128ff600f83612ef0565b915061290a82613311565b602082019050919050565b6000612922601f83612ef0565b915061292d8261333a565b602082019050919050565b6000612945602383612ef0565b915061295082613363565b604082019050919050565b6000612968601683612ef0565b9150612973826133b2565b602082019050919050565b600061298b601383612ef0565b9150612996826133db565b602082019050919050565b60006129ae601283612ef0565b91506129b982613404565b602082019050919050565b60006129d1601583612ef0565b91506129dc8261342d565b602082019050919050565b60006129f4600083612ed4565b91506129ff82613456565b600082019050919050565b6000612a17602683612ef0565b9150612a2282613459565b604082019050919050565b6000612a3a602783612ef0565b9150612a45826134a8565b604082019050919050565b6000612a5d602183612ef0565b9150612a68826134f7565b604082019050919050565b6000612a80601983612ef0565b9150612a8b82613546565b602082019050919050565b6000612aa3601f83612ef0565b9150612aae8261356f565b602082019050919050565b6000612ac6601483612ef0565b9150612ad182613598565b602082019050919050565b600060e083016000830151612af46000860182612b78565b5060208301518482036020860152612b0c8282612850565b9150506040830151612b216040860182612b78565b506060830151612b3460608601826127ae565b506080830151612b476080860182612841565b5060a0830151612b5a60a0860182612b78565b5060c0830151612b6d60c0860182612b78565b508091505092915050565b612b8181613001565b82525050565b612b9081613001565b82525050565b6000612ba1826129e7565b9150819050919050565b6000602082019050612bc060008301846127bd565b92915050565b6000606082019050612bdb60008301866127bd565b612be860208301856127bd565b612bf56040830184612b87565b949350505050565b60006020820190508181036000830152612c1781846127cc565b905092915050565b60006020820190508181036000830152612c3881612889565b9050919050565b60006020820190508181036000830152612c58816128ac565b9050919050565b60006020820190508181036000830152612c78816128cf565b9050919050565b60006020820190508181036000830152612c98816128f2565b9050919050565b60006020820190508181036000830152612cb881612915565b9050919050565b60006020820190508181036000830152612cd881612938565b9050919050565b60006020820190508181036000830152612cf88161295b565b9050919050565b60006020820190508181036000830152612d188161297e565b9050919050565b60006020820190508181036000830152612d38816129a1565b9050919050565b60006020820190508181036000830152612d58816129c4565b9050919050565b60006020820190508181036000830152612d7881612a0a565b9050919050565b60006020820190508181036000830152612d9881612a2d565b9050919050565b60006020820190508181036000830152612db881612a50565b9050919050565b60006020820190508181036000830152612dd881612a73565b9050919050565b60006020820190508181036000830152612df881612a96565b9050919050565b60006020820190508181036000830152612e1881612ab9565b9050919050565b6000602082019050612e346000830184612b87565b92915050565b6000612e44612e55565b9050612e508282613091565b919050565b6000604051905090565b600067ffffffffffffffff821115612e7a57612e796131f6565b5b612e8382613239565b9050602081019050919050565b6000819050602082019050919050565b600081519050919050565b600081519050919050565b6000602082019050919050565b600082825260208201905092915050565b600081905092915050565b600082825260208201905092915050565b600082825260208201905092915050565b6000612f0c82613001565b9150612f1783613001565b9250827fffffffffffffffffffffffffffffffffffffffffffffffffffffffffffffffff03821115612f4c57612f4b61310b565b5b828201905092915050565b6000612f6282613001565b9150612f6d83613001565b925082612f7d57612f7c61313a565b5b828204905092915050565b6000612f9382613001565b9150612f9e83613001565b925082821015612fb157612fb061310b565b5b828203905092915050565b6000612fc782612fe1565b9050919050565b6000819050612fdc826135c1565b919050565b600073ffffffffffffffffffffffffffffffffffffffff82169050919050565b6000819050919050565b600061301682612fce565b9050919050565b82818337600083830152505050565b60005b8381101561304a57808201518184015260208101905061302f565b83811115613059576000848401525b50505050565b6000600282049050600182168061307757607f821691505b6020821081141561308b5761308a613198565b5b50919050565b61309a82613239565b810181811067ffffffffffffffff821117156130b9576130b86131f6565b5b80604052505050565b60006130cd82613001565b91507fffffffffffffffffffffffffffffffffffffffffffffffffffffffffffffffff821415613100576130ff61310b565b5b600182019050919050565b7f4e487b7100000000000000000000000000000000000000000000000000000000600052601160045260246000fd5b7f4e487b7100000000000000000000000000000000000000000000000000000000600052601260045260246000fd5b7f4e487b7100000000000000000000000000000000000000000000000000000000600052602160045260246000fd5b7f4e487b7100000000000000000000000000000000000000000000000000000000600052602260045260246000fd5b7f4e487b7100000000000000000000000000000000000000000000000000000000600052603260045260246000fd5b7f4e487b7100000000000000000000000000000000000000000000000000000000600052604160045260246000fd5b600080fd5b600080fd5b600080fd5b600080fd5b6000601f19601f8301169050919050565b7f546865207072696365206d7573742062652061626f766520302e000000000000600082015250565b7f596f75206861766520616c7265616479206465636c696e65642074686973207260008201527f6571756573740000000000000000000000000000000000000000000000000000602082015250565b7f4f6e6c7920646f6e61746f722063616e2063616c6c20746869732066756e637460008201527f696f6e0000000000000000000000000000000000000000000000000000000000602082015250565b7f5472616e73666572206661696c65640000000000000000000000000000000000600082015250565b7f546865204e4654206d757374206265206f776e65642062792061646d696e2e00600082015250565b7f596f75206d7573742070617920746865207072696365206f662074686520697460008201527f656d2e0000000000000000000000000000000000000000000000000000000000602082015250565b7f4974656d20697320616c7265616479206c697374656400000000000000000000600082015250565b7f4e6f7420656e6f756768206465636c696e657300000000000000000000000000600082015250565b7f4974656d206973206e6f74206c69737465640000000000000000000000000000600082015250565b7f52657175657374206973206e6f74206163746976650000000000000000000000600082015250565b50565b7f596f75206861766520616c726561647920617070726f7665642074686973207260008201527f6571756573740000000000000000000000000000000000000000000000000000602082015250565b7f4e6f7420656e6f756768206d6f6e657920617661696c61626c6520666f72207260008201527f6571756573747300000000000000000000000000000000000000000000000000602082015250565b7f4f6e6c792061646d696e2063616e2063616c6c20746869732066756e6374696f60008201527f6e00000000000000000000000000000000000000000000000000000000000000602082015250565b7f546865204e6674206d75737420626520617070726f7665642e00000000000000600082015250565b7f5265656e7472616e637947756172643a207265656e7472616e742063616c6c00600082015250565b7f4e6f7420656e6f75676820617070726f76616c73000000000000000000000000600082015250565b600381106135d2576135d1613169565b5b50565b6135de81612fbc565b81146135e957600080fd5b50565b6135f581613001565b811461360057600080fd5b5056fea2646970667358221220afaf1f814de57330e0e05c351c1901f4a58e6c9beb32d816ea854e4ff7aaa98164736f6c63430008070033",
  "linkReferences": {},
  "deployedLinkReferences": {}
}