{
  "_format": "hh-sol-artifact-1",
  "contractName": "NftCharity",
  "sourceName": "contracts/NftCharity.sol",
  "abi": [
    {
      "inputs": [],
      "stateMutability": "nonpayable",
      "type": "constructor"
    },
    {
      "anonymous": false,
      "inputs": [
        {
          "indexed": true,
          "internalType": "address",
          "name": "buyer",
          "type": "address"
        },
        {
          "indexed": true,
          "internalType": "address",
          "name": "nftAddress",
          "type": "address"
        },
        {
          "indexed": true,
          "internalType": "uint256",
          "name": "tokenId",
          "type": "uint256"
        },
        {
          "indexed": false,
          "internalType": "uint256",
          "name": "price",
          "type": "uint256"
        }
      ],
      "name": "ItemBought",
      "type": "event"
    },
    {
      "anonymous": false,
      "inputs": [
        {
          "indexed": true,
          "internalType": "address",
          "name": "seller",
          "type": "address"
        },
        {
          "indexed": true,
          "internalType": "address",
          "name": "nftAddress",
          "type": "address"
        },
        {
          "indexed": true,
          "internalType": "uint256",
          "name": "tokenId",
          "type": "uint256"
        }
      ],
      "name": "ItemCanceled",
      "type": "event"
    },
    {
      "anonymous": false,
      "inputs": [
        {
          "indexed": true,
          "internalType": "address",
          "name": "seller",
          "type": "address"
        },
        {
          "indexed": true,
          "internalType": "address",
          "name": "nftAddress",
          "type": "address"
        },
        {
          "indexed": true,
          "internalType": "uint256",
          "name": "tokenId",
          "type": "uint256"
        },
        {
          "indexed": false,
          "internalType": "uint256",
          "name": "price",
          "type": "uint256"
        }
      ],
      "name": "ItemListed",
      "type": "event"
    },
    {
      "inputs": [
        {
          "internalType": "uint256",
          "name": "requestId",
          "type": "uint256"
        },
        {
          "internalType": "uint256",
          "name": "index",
          "type": "uint256"
        }
      ],
      "name": "approveRequest",
      "outputs": [],
      "stateMutability": "nonpayable",
      "type": "function"
    },
    {
      "inputs": [
        {
          "internalType": "address",
          "name": "nftAddress",
          "type": "address"
        },
        {
          "internalType": "uint256",
          "name": "tokenId",
          "type": "uint256"
        }
      ],
      "name": "buyItem",
      "outputs": [],
      "stateMutability": "payable",
      "type": "function"
    },
    {
      "inputs": [
        {
          "internalType": "address",
          "name": "nftAddress",
          "type": "address"
        },
        {
          "internalType": "uint256",
          "name": "tokenId",
          "type": "uint256"
        }
      ],
      "name": "cancelListing",
      "outputs": [],
      "stateMutability": "nonpayable",
      "type": "function"
    },
    {
      "inputs": [
        {
          "internalType": "uint256",
          "name": "index",
          "type": "uint256"
        }
      ],
      "name": "completeRequest",
      "outputs": [],
      "stateMutability": "nonpayable",
      "type": "function"
    },
    {
      "inputs": [
        {
          "internalType": "string",
          "name": "description",
          "type": "string"
        },
        {
          "internalType": "uint256",
          "name": "value",
          "type": "uint256"
        },
        {
          "internalType": "address",
          "name": "recipient",
          "type": "address"
        }
      ],
      "name": "createRequest",
      "outputs": [],
      "stateMutability": "nonpayable",
      "type": "function"
    },
    {
      "inputs": [
        {
          "internalType": "uint256",
          "name": "requestId",
          "type": "uint256"
        },
        {
          "internalType": "uint256",
          "name": "index",
          "type": "uint256"
        }
      ],
      "name": "declineRequest",
      "outputs": [],
      "stateMutability": "nonpayable",
      "type": "function"
    },
    {
      "inputs": [],
      "name": "getActiveRequests",
      "outputs": [
        {
          "components": [
            {
              "internalType": "uint256",
              "name": "id",
              "type": "uint256"
            },
            {
              "internalType": "string",
              "name": "description",
              "type": "string"
            },
            {
              "internalType": "uint256",
              "name": "value",
              "type": "uint256"
            },
            {
              "internalType": "address",
              "name": "recipient",
              "type": "address"
            },
            {
              "internalType": "enum NftCharity.RequestState",
              "name": "state",
              "type": "uint8"
            },
            {
              "internalType": "uint256",
              "name": "approvalsCount",
              "type": "uint256"
            },
            {
              "internalType": "uint256",
              "name": "declinesCount",
              "type": "uint256"
            }
          ],
          "internalType": "struct NftCharity.Request[]",
          "name": "",
          "type": "tuple[]"
        }
      ],
      "stateMutability": "view",
      "type": "function"
    },
    {
      "inputs": [],
      "name": "getAdmin",
      "outputs": [
        {
          "internalType": "address",
          "name": "",
          "type": "address"
        }
      ],
      "stateMutability": "view",
      "type": "function"
    },
    {
      "inputs": [],
      "name": "getCompleteRequestsCount",
      "outputs": [
        {
          "internalType": "uint256",
          "name": "",
          "type": "uint256"
        }
      ],
      "stateMutability": "view",
      "type": "function"
    },
    {
      "inputs": [],
      "name": "getCompletedRequests",
      "outputs": [
        {
          "components": [
            {
              "internalType": "uint256",
              "name": "id",
              "type": "uint256"
            },
            {
              "internalType": "string",
              "name": "description",
              "type": "string"
            },
            {
              "internalType": "uint256",
              "name": "value",
              "type": "uint256"
            },
            {
              "internalType": "address",
              "name": "recipient",
              "type": "address"
            },
            {
              "internalType": "enum NftCharity.RequestState",
              "name": "state",
              "type": "uint8"
            },
            {
              "internalType": "uint256",
              "name": "approvalsCount",
              "type": "uint256"
            },
            {
              "internalType": "uint256",
              "name": "declinesCount",
              "type": "uint256"
            }
          ],
          "internalType": "struct NftCharity.Request[]",
          "name": "",
          "type": "tuple[]"
        }
      ],
      "stateMutability": "view",
      "type": "function"
    },
    {
      "inputs": [],
      "name": "getCurrentFund",
      "outputs": [
        {
          "internalType": "uint256",
          "name": "",
          "type": "uint256"
        }
      ],
      "stateMutability": "view",
      "type": "function"
    },
    {
      "inputs": [],
      "name": "getDonatorsCount",
      "outputs": [
        {
          "internalType": "uint256",
          "name": "",
          "type": "uint256"
        }
      ],
      "stateMutability": "view",
      "type": "function"
    },
    {
      "inputs": [],
      "name": "getMoneyAvailableForRequests",
      "outputs": [
        {
          "internalType": "uint256",
          "name": "",
          "type": "uint256"
        }
      ],
      "stateMutability": "view",
      "type": "function"
    },
    {
      "inputs": [
        {
          "internalType": "address",
          "name": "nftAddress",
          "type": "address"
        },
        {
          "internalType": "uint256",
          "name": "tokenId",
          "type": "uint256"
        }
      ],
      "name": "getNftListingPrice",
      "outputs": [
        {
          "internalType": "uint256",
          "name": "",
          "type": "uint256"
        }
      ],
      "stateMutability": "view",
      "type": "function"
    },
    {
      "inputs": [],
      "name": "getRejectedRequests",
      "outputs": [
        {
          "components": [
            {
              "internalType": "uint256",
              "name": "id",
              "type": "uint256"
            },
            {
              "internalType": "string",
              "name": "description",
              "type": "string"
            },
            {
              "internalType": "uint256",
              "name": "value",
              "type": "uint256"
            },
            {
              "internalType": "address",
              "name": "recipient",
              "type": "address"
            },
            {
              "internalType": "enum NftCharity.RequestState",
              "name": "state",
              "type": "uint8"
            },
            {
              "internalType": "uint256",
              "name": "approvalsCount",
              "type": "uint256"
            },
            {
              "internalType": "uint256",
              "name": "declinesCount",
              "type": "uint256"
            }
          ],
          "internalType": "struct NftCharity.Request[]",
          "name": "",
          "type": "tuple[]"
        }
      ],
      "stateMutability": "view",
      "type": "function"
    },
    {
      "inputs": [],
      "name": "getRejectedRequestsCount",
      "outputs": [
        {
          "internalType": "uint256",
          "name": "",
          "type": "uint256"
        }
      ],
      "stateMutability": "view",
      "type": "function"
    },
    {
      "inputs": [],
      "name": "getRequests",
      "outputs": [
        {
          "components": [
            {
              "internalType": "uint256",
              "name": "id",
              "type": "uint256"
            },
            {
              "internalType": "string",
              "name": "description",
              "type": "string"
            },
            {
              "internalType": "uint256",
              "name": "value",
              "type": "uint256"
            },
            {
              "internalType": "address",
              "name": "recipient",
              "type": "address"
            },
            {
              "internalType": "enum NftCharity.RequestState",
              "name": "state",
              "type": "uint8"
            },
            {
              "internalType": "uint256",
              "name": "approvalsCount",
              "type": "uint256"
            },
            {
              "internalType": "uint256",
              "name": "declinesCount",
              "type": "uint256"
            }
          ],
          "internalType": "struct NftCharity.Request[]",
          "name": "",
          "type": "tuple[]"
        }
      ],
      "stateMutability": "view",
      "type": "function"
    },
    {
      "inputs": [],
      "name": "getRequestsCount",
      "outputs": [
        {
          "internalType": "uint256",
          "name": "",
          "type": "uint256"
        }
      ],
      "stateMutability": "view",
      "type": "function"
    },
    {
      "inputs": [
        {
          "internalType": "address",
          "name": "nftAddress",
          "type": "address"
        },
        {
          "internalType": "uint256",
          "name": "tokenId",
          "type": "uint256"
        },
        {
          "internalType": "uint256",
          "name": "price",
          "type": "uint256"
        }
      ],
      "name": "listItem",
      "outputs": [],
      "stateMutability": "nonpayable",
      "type": "function"
    },
    {
      "inputs": [
        {
          "internalType": "uint256",
          "name": "index",
          "type": "uint256"
        }
      ],
      "name": "rejectRequest",
      "outputs": [],
      "stateMutability": "nonpayable",
      "type": "function"
    }
  ],
  "bytecode": "0x608060405234801561001057600080fd5b50600160008190555033600160006101000a81548173ffffffffffffffffffffffffffffffffffffffff021916908373ffffffffffffffffffffffffffffffffffffffff160217905550613679806100696000396000f3fe60806040526004361061011f5760003560e01c80638a9cfd55116100a0578063b2ddee0611610064578063b2ddee06146103a2578063cc1e0359146103cb578063cc6e07b6146103f4578063e8c1e76f1461041f578063f2d673341461044a5761011f565b80638a9cfd55146102de5780639a34d0fb146103075780639f37092a14610332578063accbeb681461034e578063aec9e4f6146103775761011f565b80633277187c116100e75780633277187c146102095780633410452a146102345780636e9960c31461025f5780638813ce121461028a57806389bfd38f146102b55761011f565b806309282a6014610124578063126d89ff1461014f57806329465b1c1461017a5780632c0a90a9146101b75780632d7788db146101e0575b600080fd5b34801561013057600080fd5b50610139610475565b6040516101469190612e5f565b60405180910390f35b34801561015b57600080fd5b5061016461047f565b6040516101719190612c3d565b60405180910390f35b34801561018657600080fd5b506101a1600480360381019061019c919061266b565b610709565b6040516101ae9190612e5f565b60405180910390f35b3480156101c357600080fd5b506101de60048036038101906101d9919061279a565b610764565b005b3480156101ec57600080fd5b506102076004803603810190610202919061276d565b610a52565b005b34801561021557600080fd5b5061021e610c1e565b60405161022b9190612e5f565b60405180910390f35b34801561024057600080fd5b50610249610c28565b6040516102569190612e5f565b60405180910390f35b34801561026b57600080fd5b50610274610c32565b6040516102819190612beb565b60405180910390f35b34801561029657600080fd5b5061029f610c5c565b6040516102ac9190612c3d565b60405180910390f35b3480156102c157600080fd5b506102dc60048036038101906102d791906126ab565b610e06565b005b3480156102ea57600080fd5b50610305600480360381019061030091906126fe565b6111cb565b005b34801561031357600080fd5b5061031c6113a2565b6040516103299190612e5f565b60405180910390f35b61034c6004803603810190610347919061266b565b6113ac565b005b34801561035a57600080fd5b506103756004803603810190610370919061279a565b6116ca565b005b34801561038357600080fd5b5061038c6119b8565b6040516103999190612c3d565b60405180910390f35b3480156103ae57600080fd5b506103c960048036038101906103c4919061266b565b611c41565b005b3480156103d757600080fd5b506103f260048036038101906103ed919061276d565b611eb9565b005b34801561040057600080fd5b50610409612177565b6040516104169190612e5f565b60405180910390f35b34801561042b57600080fd5b50610434612181565b6040516104419190612c3d565b60405180910390f35b34801561045657600080fd5b5061045f612425565b60405161046c9190612e5f565b60405180910390f35b6000600b54905090565b6060600060095467ffffffffffffffff81111561049f5761049e613236565b5b6040519080825280602002602001820160405280156104d857816020015b6104c5612487565b8152602001906001900390816104bd5790505b5090506000805b60075481101561070057600160028111156104fd576104fc6131a9565b5b6005828154811061051157610510613207565b5b906000526020600020906006020160030160149054906101000a900460ff166002811115610542576105416131a9565b5b14156106ed576005818154811061055c5761055b613207565b5b90600052602060002090600602016040518060e00160405290816000820154815260200160018201805461058f9061309f565b80601f01602080910402602001604051908101604052809291908181526020018280546105bb9061309f565b80156106085780601f106105dd57610100808354040283529160200191610608565b820191906000526020600020905b8154815290600101906020018083116105eb57829003601f168201915b50505050508152602001600282015481526020016003820160009054906101000a900473ffffffffffffffffffffffffffffffffffffffff1673ffffffffffffffffffffffffffffffffffffffff1673ffffffffffffffffffffffffffffffffffffffff1681526020016003820160149054906101000a900460ff166002811115610696576106956131a9565b5b60028111156106a8576106a76131a9565b5b8152602001600482015481526020016005820154815250508383815181106106d3576106d2613207565b5b602002602001018190525081806106e990613102565b9250505b80806106f890613102565b9150506104df565b50819250505090565b6000600260008473ffffffffffffffffffffffffffffffffffffffff1673ffffffffffffffffffffffffffffffffffffffff168152602001908152602001600020600083815260200190815260200160002054905092915050565b600660003373ffffffffffffffffffffffffffffffffffffffff1673ffffffffffffffffffffffffffffffffffffffff16815260200190815260200160002060009054906101000a900460ff166107f0576040517f08c379a00000000000000000000000000000000000000000000000000000000081526004016107e790612c9f565b60405180910390fd5b60006005828154811061080657610805613207565b5b906000526020600020906006020190506000600281111561082a576108296131a9565b5b8160030160149054906101000a900460ff16600281111561084e5761084d6131a9565b5b1461088e576040517f08c379a000000000000000000000000000000000000000000000000000000000815260040161088590612d7f565b60405180910390fd5b6003600084815260200190815260200160002060003373ffffffffffffffffffffffffffffffffffffffff1673ffffffffffffffffffffffffffffffffffffffff16815260200190815260200160002060009054906101000a900460ff161561092c576040517f08c379a000000000000000000000000000000000000000000000000000000000815260040161092390612d9f565b60405180910390fd5b6004600084815260200190815260200160002060003373ffffffffffffffffffffffffffffffffffffffff1673ffffffffffffffffffffffffffffffffffffffff16815260200190815260200160002060009054906101000a900460ff16156109ca576040517f08c379a00000000000000000000000000000000000000000000000000000000081526004016109c190612c7f565b60405180910390fd5b60016003600085815260200190815260200160002060003373ffffffffffffffffffffffffffffffffffffffff1673ffffffffffffffffffffffffffffffffffffffff16815260200190815260200160002060006101000a81548160ff021916908315150217905550806004016000815480929190610a4890613102565b9190505550505050565b600160009054906101000a900473ffffffffffffffffffffffffffffffffffffffff1673ffffffffffffffffffffffffffffffffffffffff163373ffffffffffffffffffffffffffffffffffffffff1614610ae2576040517f08c379a0000000000000000000000000000000000000000000000000000000008152600401610ad990612ddf565b60405180910390fd5b600060058281548110610af857610af7613207565b5b906000526020600020906006020190506002600854610b179190612f97565b81600501541015610b5d576040517f08c379a0000000000000000000000000000000000000000000000000000000008152600401610b5490612d3f565b60405180910390fd5b60006002811115610b7157610b706131a9565b5b8160030160149054906101000a900460ff166002811115610b9557610b946131a9565b5b14610bd5576040517f08c379a0000000000000000000000000000000000000000000000000000000008152600401610bcc90612d7f565b60405180910390fd5b60028160030160146101000a81548160ff02191690836002811115610bfd57610bfc6131a9565b5b0217905550600a6000815480929190610c1590613102565b91905055505050565b6000600a54905090565b6000600754905090565b6000600160009054906101000a900473ffffffffffffffffffffffffffffffffffffffff16905090565b60606005805480602002602001604051908101604052809291908181526020016000905b82821015610dfd57838290600052602060002090600602016040518060e001604052908160008201548152602001600182018054610cbd9061309f565b80601f0160208091040260200160405190810160405280929190818152602001828054610ce99061309f565b8015610d365780601f10610d0b57610100808354040283529160200191610d36565b820191906000526020600020905b815481529060010190602001808311610d1957829003601f168201915b50505050508152602001600282015481526020016003820160009054906101000a900473ffffffffffffffffffffffffffffffffffffffff1673ffffffffffffffffffffffffffffffffffffffff1673ffffffffffffffffffffffffffffffffffffffff1681526020016003820160149054906101000a900460ff166002811115610dc457610dc36131a9565b5b6002811115610dd657610dd56131a9565b5b81526020016004820154815260200160058201548152505081526020019060010190610c80565b50505050905090565b82826000600260008473ffffffffffffffffffffffffffffffffffffffff1673ffffffffffffffffffffffffffffffffffffffff16815260200190815260200160002060008381526020019081526020016000205490506000811115610ea1576040517f08c379a0000000000000000000000000000000000000000000000000000000008152600401610e9890612d1f565b60405180910390fd5b8585600082905060008173ffffffffffffffffffffffffffffffffffffffff16636352211e846040518263ffffffff1660e01b8152600401610ee39190612e5f565b60206040518083038186803b158015610efb57600080fd5b505afa158015610f0f573d6000803e3d6000fd5b505050506040513d601f19601f82011682018060405250810190610f33919061263e565b9050600160009054906101000a900473ffffffffffffffffffffffffffffffffffffffff1673ffffffffffffffffffffffffffffffffffffffff168173ffffffffffffffffffffffffffffffffffffffff1614610fc5576040517f08c379a0000000000000000000000000000000000000000000000000000000008152600401610fbc90612cdf565b60405180910390fd5b60008811611008576040517f08c379a0000000000000000000000000000000000000000000000000000000008152600401610fff90612c5f565b60405180910390fd5b60008a90503073ffffffffffffffffffffffffffffffffffffffff168173ffffffffffffffffffffffffffffffffffffffff1663081812fc8c6040518263ffffffff1660e01b815260040161105d9190612e5f565b60206040518083038186803b15801561107557600080fd5b505afa158015611089573d6000803e3d6000fd5b505050506040513d601f19601f820116820180604052508101906110ad919061263e565b73ffffffffffffffffffffffffffffffffffffffff1614611103576040517f08c379a00000000000000000000000000000000000000000000000000000000081526004016110fa90612dff565b60405180910390fd5b88600260008d73ffffffffffffffffffffffffffffffffffffffff1673ffffffffffffffffffffffffffffffffffffffff16815260200190815260200160002060008c815260200190815260200160002081905550898b73ffffffffffffffffffffffffffffffffffffffff163373ffffffffffffffffffffffffffffffffffffffff167fd547e933094f12a9159076970143ebe73234e64480317844b0dcb36117116de48c6040516111b69190612e5f565b60405180910390a45050505050505050505050565b600160009054906101000a900473ffffffffffffffffffffffffffffffffffffffff1673ffffffffffffffffffffffffffffffffffffffff163373ffffffffffffffffffffffffffffffffffffffff161461125b576040517f08c379a000000000000000000000000000000000000000000000000000000000815260040161125290612ddf565b60405180910390fd5b600b548211156112a0576040517f08c379a000000000000000000000000000000000000000000000000000000000815260040161129790612dbf565b60405180910390fd5b6000600560018160018154018082558091505003906000526020600020906006020190506007548160000181905550838160010190805190602001906112e79291906124ec565b50828160020181905550818160030160006101000a81548173ffffffffffffffffffffffffffffffffffffffff021916908373ffffffffffffffffffffffffffffffffffffffff16021790555060008160030160146101000a81548160ff0219169083600281111561135c5761135b6131a9565b5b0217905550600081600401819055506007600081548092919061137e90613102565b919050555082600b60008282546113959190612fc8565b9250508190555050505050565b6000600954905090565b81816000600260008473ffffffffffffffffffffffffffffffffffffffff1673ffffffffffffffffffffffffffffffffffffffff168152602001908152602001600020600083815260200190815260200160002054905060008111611446576040517f08c379a000000000000000000000000000000000000000000000000000000000815260040161143d90612d5f565b60405180910390fd5b61144e61242d565b6000600260008773ffffffffffffffffffffffffffffffffffffffff1673ffffffffffffffffffffffffffffffffffffffff1681526020019081526020016000206000868152602001908152602001600020549050803410156114e6576040517f08c379a00000000000000000000000000000000000000000000000000000000081526004016114dd90612cff565b60405180910390fd5b600260008773ffffffffffffffffffffffffffffffffffffffff1673ffffffffffffffffffffffffffffffffffffffff1681526020019081526020016000206000868152602001908152602001600020600090556001600660003373ffffffffffffffffffffffffffffffffffffffff1673ffffffffffffffffffffffffffffffffffffffff16815260200190815260200160002060006101000a81548160ff021916908315150217905550600860008154809291906115a590613102565b919050555080600b60008282546115bc9190612f41565b925050819055508573ffffffffffffffffffffffffffffffffffffffff166342842e0e600160009054906101000a900473ffffffffffffffffffffffffffffffffffffffff1633886040518463ffffffff1660e01b815260040161162293929190612c06565b600060405180830381600087803b15801561163c57600080fd5b505af1158015611650573d6000803e3d6000fd5b50505050848673ffffffffffffffffffffffffffffffffffffffff163373ffffffffffffffffffffffffffffffffffffffff167f263223b1dd81e51054a4e6f791d45a4a1ddb4aadcd93a2dfd892615c3fdac187846040516116b29190612e5f565b60405180910390a4506116c361247d565b5050505050565b600660003373ffffffffffffffffffffffffffffffffffffffff1673ffffffffffffffffffffffffffffffffffffffff16815260200190815260200160002060009054906101000a900460ff16611756576040517f08c379a000000000000000000000000000000000000000000000000000000000815260040161174d90612c9f565b60405180910390fd5b60006005828154811061176c5761176b613207565b5b90600052602060002090600602019050600060028111156117905761178f6131a9565b5b8160030160149054906101000a900460ff1660028111156117b4576117b36131a9565b5b146117f4576040517f08c379a00000000000000000000000000000000000000000000000000000000081526004016117eb90612d7f565b60405180910390fd5b6003600084815260200190815260200160002060003373ffffffffffffffffffffffffffffffffffffffff1673ffffffffffffffffffffffffffffffffffffffff16815260200190815260200160002060009054906101000a900460ff1615611892576040517f08c379a000000000000000000000000000000000000000000000000000000000815260040161188990612d9f565b60405180910390fd5b6004600084815260200190815260200160002060003373ffffffffffffffffffffffffffffffffffffffff1673ffffffffffffffffffffffffffffffffffffffff16815260200190815260200160002060009054906101000a900460ff1615611930576040517f08c379a000000000000000000000000000000000000000000000000000000000815260040161192790612c7f565b60405180910390fd5b60016004600085815260200190815260200160002060003373ffffffffffffffffffffffffffffffffffffffff1673ffffffffffffffffffffffffffffffffffffffff16815260200190815260200160002060006101000a81548160ff0219169083151502179055508060050160008154809291906119ae90613102565b9190505550505050565b60606000600a5467ffffffffffffffff8111156119d8576119d7613236565b5b604051908082528060200260200182016040528015611a1157816020015b6119fe612487565b8152602001906001900390816119f65790505b5090506000805b600754811015611c3857600280811115611a3557611a346131a9565b5b60058281548110611a4957611a48613207565b5b906000526020600020906006020160030160149054906101000a900460ff166002811115611a7a57611a796131a9565b5b1415611c255760058181548110611a9457611a93613207565b5b90600052602060002090600602016040518060e001604052908160008201548152602001600182018054611ac79061309f565b80601f0160208091040260200160405190810160405280929190818152602001828054611af39061309f565b8015611b405780601f10611b1557610100808354040283529160200191611b40565b820191906000526020600020905b815481529060010190602001808311611b2357829003601f168201915b50505050508152602001600282015481526020016003820160009054906101000a900473ffffffffffffffffffffffffffffffffffffffff1673ffffffffffffffffffffffffffffffffffffffff1673ffffffffffffffffffffffffffffffffffffffff1681526020016003820160149054906101000a900460ff166002811115611bce57611bcd6131a9565b5b6002811115611be057611bdf6131a9565b5b815260200160048201548152602001600582015481525050838381518110611c0b57611c0a613207565b5b60200260200101819052508180611c2190613102565b9250505b8080611c3090613102565b915050611a18565b50819250505090565b8181600082905060008173ffffffffffffffffffffffffffffffffffffffff16636352211e846040518263ffffffff1660e01b8152600401611c839190612e5f565b60206040518083038186803b158015611c9b57600080fd5b505afa158015611caf573d6000803e3d6000fd5b505050506040513d601f19601f82011682018060405250810190611cd3919061263e565b9050600160009054906101000a900473ffffffffffffffffffffffffffffffffffffffff1673ffffffffffffffffffffffffffffffffffffffff168173ffffffffffffffffffffffffffffffffffffffff1614611d65576040517f08c379a0000000000000000000000000000000000000000000000000000000008152600401611d5c90612cdf565b60405180910390fd5b85856000600260008473ffffffffffffffffffffffffffffffffffffffff1673ffffffffffffffffffffffffffffffffffffffff168152602001908152602001600020600083815260200190815260200160002054905060008111611dff576040517f08c379a0000000000000000000000000000000000000000000000000000000008152600401611df690612d5f565b60405180910390fd5b600260008a73ffffffffffffffffffffffffffffffffffffffff1673ffffffffffffffffffffffffffffffffffffffff168152602001908152602001600020600089815260200190815260200160002060009055878973ffffffffffffffffffffffffffffffffffffffff163373ffffffffffffffffffffffffffffffffffffffff167f9ba1a3cb55ce8d63d072a886f94d2a744f50cddf82128e897d0661f5ec62315860405160405180910390a4505050505050505050565b600160009054906101000a900473ffffffffffffffffffffffffffffffffffffffff1673ffffffffffffffffffffffffffffffffffffffff163373ffffffffffffffffffffffffffffffffffffffff1614611f49576040517f08c379a0000000000000000000000000000000000000000000000000000000008152600401611f4090612ddf565b60405180910390fd5b600060058281548110611f5f57611f5e613207565b5b906000526020600020906006020190506002600854611f7e9190612f97565b81600401541015611fc4576040517f08c379a0000000000000000000000000000000000000000000000000000000008152600401611fbb90612e3f565b60405180910390fd5b60006002811115611fd857611fd76131a9565b5b8160030160149054906101000a900460ff166002811115611ffc57611ffb6131a9565b5b1461203c576040517f08c379a000000000000000000000000000000000000000000000000000000000815260040161203390612d7f565b60405180910390fd5b60008160030160009054906101000a900473ffffffffffffffffffffffffffffffffffffffff1673ffffffffffffffffffffffffffffffffffffffff16826002015460405161208a90612bd6565b60006040518083038185875af1925050503d80600081146120c7576040519150601f19603f3d011682016040523d82523d6000602084013e6120cc565b606091505b5050905080612110576040517f08c379a000000000000000000000000000000000000000000000000000000000815260040161210790612cbf565b60405180910390fd5b60018260030160146101000a81548160ff02191690836002811115612138576121376131a9565b5b02179055508160020154600b60008282546121539190612fc8565b925050819055506009600081548092919061216d90613102565b9190505550505050565b6000600854905090565b60606000600a546009546007546121989190612fc8565b6121a29190612fc8565b67ffffffffffffffff8111156121bb576121ba613236565b5b6040519080825280602002602001820160405280156121f457816020015b6121e1612487565b8152602001906001900390816121d95790505b5090506000805b60075481101561241c5760006002811115612219576122186131a9565b5b6005828154811061222d5761222c613207565b5b906000526020600020906006020160030160149054906101000a900460ff16600281111561225e5761225d6131a9565b5b1415612409576005818154811061227857612277613207565b5b90600052602060002090600602016040518060e0016040529081600082015481526020016001820180546122ab9061309f565b80601f01602080910402602001604051908101604052809291908181526020018280546122d79061309f565b80156123245780601f106122f957610100808354040283529160200191612324565b820191906000526020600020905b81548152906001019060200180831161230757829003601f168201915b50505050508152602001600282015481526020016003820160009054906101000a900473ffffffffffffffffffffffffffffffffffffffff1673ffffffffffffffffffffffffffffffffffffffff1673ffffffffffffffffffffffffffffffffffffffff1681526020016003820160149054906101000a900460ff1660028111156123b2576123b16131a9565b5b60028111156123c4576123c36131a9565b5b8152602001600482015481526020016005820154815250508383815181106123ef576123ee613207565b5b6020026020010181905250818061240590613102565b9250505b808061241490613102565b9150506121fb565b50819250505090565b600047905090565b60026000541415612473576040517f08c379a000000000000000000000000000000000000000000000000000000000815260040161246a90612e1f565b60405180910390fd5b6002600081905550565b6001600081905550565b6040518060e00160405280600081526020016060815260200160008152602001600073ffffffffffffffffffffffffffffffffffffffff168152602001600060028111156124d8576124d76131a9565b5b815260200160008152602001600081525090565b8280546124f89061309f565b90600052602060002090601f01602090048101928261251a5760008555612561565b82601f1061253357805160ff1916838001178555612561565b82800160010185558215612561579182015b82811115612560578251825591602001919060010190612545565b5b50905061256e9190612572565b5090565b5b8082111561258b576000816000905550600101612573565b5090565b60006125a261259d84612e9f565b612e7a565b9050828152602081018484840111156125be576125bd61326a565b5b6125c984828561305d565b509392505050565b6000813590506125e081613615565b92915050565b6000815190506125f581613615565b92915050565b600082601f8301126126105761260f613265565b5b813561262084826020860161258f565b91505092915050565b6000813590506126388161362c565b92915050565b60006020828403121561265457612653613274565b5b6000612662848285016125e6565b91505092915050565b6000806040838503121561268257612681613274565b5b6000612690858286016125d1565b92505060206126a185828601612629565b9150509250929050565b6000806000606084860312156126c4576126c3613274565b5b60006126d2868287016125d1565b93505060206126e386828701612629565b92505060406126f486828701612629565b9150509250925092565b60008060006060848603121561271757612716613274565b5b600084013567ffffffffffffffff8111156127355761273461326f565b5b612741868287016125fb565b935050602061275286828701612629565b9250506040612763868287016125d1565b9150509250925092565b60006020828403121561278357612782613274565b5b600061279184828501612629565b91505092915050565b600080604083850312156127b1576127b0613274565b5b60006127bf85828601612629565b92505060206127d085828601612629565b9150509250929050565b60006127e68383612b1c565b905092915050565b6127f781612ffc565b82525050565b61280681612ffc565b82525050565b600061281782612ee0565b6128218185612f03565b93508360208202850161283385612ed0565b8060005b8581101561286f578484038952815161285085826127da565b945061285b83612ef6565b925060208a01995050600181019050612837565b50829750879550505050505092915050565b61288a8161304b565b82525050565b600061289b82612eeb565b6128a58185612f1f565b93506128b581856020860161306c565b6128be81613279565b840191505092915050565b60006128d6601a83612f30565b91506128e18261328a565b602082019050919050565b60006128f9602683612f30565b9150612904826132b3565b604082019050919050565b600061291c602383612f30565b915061292782613302565b604082019050919050565b600061293f600f83612f30565b915061294a82613351565b602082019050919050565b6000612962601f83612f30565b915061296d8261337a565b602082019050919050565b6000612985602383612f30565b9150612990826133a3565b604082019050919050565b60006129a8601683612f30565b91506129b3826133f2565b602082019050919050565b60006129cb601383612f30565b91506129d68261341b565b602082019050919050565b60006129ee601283612f30565b91506129f982613444565b602082019050919050565b6000612a11601583612f30565b9150612a1c8261346d565b602082019050919050565b6000612a34600083612f14565b9150612a3f82613496565b600082019050919050565b6000612a57602683612f30565b9150612a6282613499565b604082019050919050565b6000612a7a602783612f30565b9150612a85826134e8565b604082019050919050565b6000612a9d602183612f30565b9150612aa882613537565b604082019050919050565b6000612ac0601983612f30565b9150612acb82613586565b602082019050919050565b6000612ae3601f83612f30565b9150612aee826135af565b602082019050919050565b6000612b06601483612f30565b9150612b11826135d8565b602082019050919050565b600060e083016000830151612b346000860182612bb8565b5060208301518482036020860152612b4c8282612890565b9150506040830151612b616040860182612bb8565b506060830151612b7460608601826127ee565b506080830151612b876080860182612881565b5060a0830151612b9a60a0860182612bb8565b5060c0830151612bad60c0860182612bb8565b508091505092915050565b612bc181613041565b82525050565b612bd081613041565b82525050565b6000612be182612a27565b9150819050919050565b6000602082019050612c0060008301846127fd565b92915050565b6000606082019050612c1b60008301866127fd565b612c2860208301856127fd565b612c356040830184612bc7565b949350505050565b60006020820190508181036000830152612c57818461280c565b905092915050565b60006020820190508181036000830152612c78816128c9565b9050919050565b60006020820190508181036000830152612c98816128ec565b9050919050565b60006020820190508181036000830152612cb88161290f565b9050919050565b60006020820190508181036000830152612cd881612932565b9050919050565b60006020820190508181036000830152612cf881612955565b9050919050565b60006020820190508181036000830152612d1881612978565b9050919050565b60006020820190508181036000830152612d388161299b565b9050919050565b60006020820190508181036000830152612d58816129be565b9050919050565b60006020820190508181036000830152612d78816129e1565b9050919050565b60006020820190508181036000830152612d9881612a04565b9050919050565b60006020820190508181036000830152612db881612a4a565b9050919050565b60006020820190508181036000830152612dd881612a6d565b9050919050565b60006020820190508181036000830152612df881612a90565b9050919050565b60006020820190508181036000830152612e1881612ab3565b9050919050565b60006020820190508181036000830152612e3881612ad6565b9050919050565b60006020820190508181036000830152612e5881612af9565b9050919050565b6000602082019050612e746000830184612bc7565b92915050565b6000612e84612e95565b9050612e9082826130d1565b919050565b6000604051905090565b600067ffffffffffffffff821115612eba57612eb9613236565b5b612ec382613279565b9050602081019050919050565b6000819050602082019050919050565b600081519050919050565b600081519050919050565b6000602082019050919050565b600082825260208201905092915050565b600081905092915050565b600082825260208201905092915050565b600082825260208201905092915050565b6000612f4c82613041565b9150612f5783613041565b9250827fffffffffffffffffffffffffffffffffffffffffffffffffffffffffffffffff03821115612f8c57612f8b61314b565b5b828201905092915050565b6000612fa282613041565b9150612fad83613041565b925082612fbd57612fbc61317a565b5b828204905092915050565b6000612fd382613041565b9150612fde83613041565b925082821015612ff157612ff061314b565b5b828203905092915050565b600061300782613021565b9050919050565b600081905061301c82613601565b919050565b600073ffffffffffffffffffffffffffffffffffffffff82169050919050565b6000819050919050565b60006130568261300e565b9050919050565b82818337600083830152505050565b60005b8381101561308a57808201518184015260208101905061306f565b83811115613099576000848401525b50505050565b600060028204905060018216806130b757607f821691505b602082108114156130cb576130ca6131d8565b5b50919050565b6130da82613279565b810181811067ffffffffffffffff821117156130f9576130f8613236565b5b80604052505050565b600061310d82613041565b91507fffffffffffffffffffffffffffffffffffffffffffffffffffffffffffffffff8214156131405761313f61314b565b5b600182019050919050565b7f4e487b7100000000000000000000000000000000000000000000000000000000600052601160045260246000fd5b7f4e487b7100000000000000000000000000000000000000000000000000000000600052601260045260246000fd5b7f4e487b7100000000000000000000000000000000000000000000000000000000600052602160045260246000fd5b7f4e487b7100000000000000000000000000000000000000000000000000000000600052602260045260246000fd5b7f4e487b7100000000000000000000000000000000000000000000000000000000600052603260045260246000fd5b7f4e487b7100000000000000000000000000000000000000000000000000000000600052604160045260246000fd5b600080fd5b600080fd5b600080fd5b600080fd5b6000601f19601f8301169050919050565b7f546865207072696365206d7573742062652061626f766520302e000000000000600082015250565b7f596f75206861766520616c7265616479206465636c696e65642074686973207260008201527f6571756573740000000000000000000000000000000000000000000000000000602082015250565b7f4f6e6c7920646f6e61746f722063616e2063616c6c20746869732066756e637460008201527f696f6e0000000000000000000000000000000000000000000000000000000000602082015250565b7f5472616e73666572206661696c65640000000000000000000000000000000000600082015250565b7f546865204e4654206d757374206265206f776e65642062792061646d696e2e00600082015250565b7f596f75206d7573742070617920746865207072696365206f662074686520697460008201527f656d2e0000000000000000000000000000000000000000000000000000000000602082015250565b7f4974656d20697320616c7265616479206c697374656400000000000000000000600082015250565b7f4e6f7420656e6f756768206465636c696e657300000000000000000000000000600082015250565b7f4974656d206973206e6f74206c69737465640000000000000000000000000000600082015250565b7f52657175657374206973206e6f74206163746976650000000000000000000000600082015250565b50565b7f596f75206861766520616c726561647920617070726f7665642074686973207260008201527f6571756573740000000000000000000000000000000000000000000000000000602082015250565b7f4e6f7420656e6f756768206d6f6e657920617661696c61626c6520666f72207260008201527f6571756573747300000000000000000000000000000000000000000000000000602082015250565b7f4f6e6c792061646d696e2063616e2063616c6c20746869732066756e6374696f60008201527f6e00000000000000000000000000000000000000000000000000000000000000602082015250565b7f546865204e6674206d75737420626520617070726f7665642e00000000000000600082015250565b7f5265656e7472616e637947756172643a207265656e7472616e742063616c6c00600082015250565b7f4e6f7420656e6f75676820617070726f76616c73000000000000000000000000600082015250565b60038110613612576136116131a9565b5b50565b61361e81612ffc565b811461362957600080fd5b50565b61363581613041565b811461364057600080fd5b5056fea264697066735822122031e3f80580b44ba4af11e9e9a3ce96799851090f782043140996878f884c336764736f6c63430008070033",
  "linkReferences": {},
  "deployedLinkReferences": {}
}